{
	"contracts/Chapter9.sol": {
		"Chapter9": {
			"abi": [
				{
					"inputs": [
						{
							"internalType": "address",
							"name": "_owner",
							"type": "address"
						}
					],
					"stateMutability": "nonpayable",
					"type": "constructor"
				},
				{
					"inputs": [
						{
							"internalType": "address",
							"name": "",
							"type": "address"
						}
					],
					"name": "balanceReceived",
					"outputs": [
						{
							"internalType": "uint64",
							"name": "",
							"type": "uint64"
						}
					],
					"stateMutability": "view",
					"type": "function"
				},
				{
					"inputs": [
						{
							"internalType": "uint256",
							"name": "x",
							"type": "uint256"
						}
					],
					"name": "myFunc",
					"outputs": [
						{
							"internalType": "string",
							"name": "",
							"type": "string"
						}
					],
					"stateMutability": "pure",
					"type": "function"
				},
				{
					"inputs": [],
					"name": "owner",
					"outputs": [
						{
							"internalType": "address",
							"name": "",
							"type": "address"
						}
					],
					"stateMutability": "view",
					"type": "function"
				},
				{
					"inputs": [],
					"name": "receiveMoney",
					"outputs": [],
					"stateMutability": "payable",
					"type": "function"
				},
				{
					"inputs": [
						{
							"internalType": "uint256",
							"name": "_i",
							"type": "uint256"
						}
					],
					"name": "testAssert",
					"outputs": [],
					"stateMutability": "pure",
					"type": "function"
				},
				{
					"inputs": [
						{
							"internalType": "uint256",
							"name": "_i",
							"type": "uint256"
						}
					],
					"name": "testRequire",
					"outputs": [],
					"stateMutability": "pure",
					"type": "function"
				},
				{
					"inputs": [
						{
							"internalType": "uint256",
							"name": "_i",
							"type": "uint256"
						}
					],
					"name": "testRevert",
					"outputs": [],
					"stateMutability": "pure",
					"type": "function"
				},
				{
					"inputs": [
						{
							"internalType": "address payable",
							"name": "_to",
							"type": "address"
						},
						{
							"internalType": "uint64",
							"name": "_amount",
							"type": "uint64"
						}
					],
					"name": "withdrawMoney",
					"outputs": [],
					"stateMutability": "nonpayable",
					"type": "function"
				}
			],
			"devdoc": {
				"kind": "dev",
				"methods": {},
				"version": 1
			},
			"evm": {
				"assembly": "    /* \"contracts/Chapter9.sol\":325:1623  contract Chapter9 {... */\n  mstore(0x40, 0x80)\n    /* \"contracts/Chapter9.sol\":437:554  constructor(address _owner) {... */\n  callvalue\n  dup1\n  iszero\n  tag_1\n  jumpi\n  0x00\n  dup1\n  revert\ntag_1:\n  pop\n  mload(0x40)\n  sub(codesize, bytecodeSize)\n  dup1\n  bytecodeSize\n  dup4\n  codecopy\n  dup2\n  dup2\n  add\n  0x40\n  mstore\n  dup2\n  add\n  swap1\n  tag_2\n  swap2\n  swap1\n  tag_3\n  jump\t// in\ntag_2:\n    /* \"contracts/Chapter9.sol\":501:502  0 */\n  0x00\n    /* \"contracts/Chapter9.sol\":483:503  _owner != address(0) */\n  0xffffffffffffffffffffffffffffffffffffffff\n  and\n    /* \"contracts/Chapter9.sol\":483:489  _owner */\n  dup2\n    /* \"contracts/Chapter9.sol\":483:503  _owner != address(0) */\n  0xffffffffffffffffffffffffffffffffffffffff\n  and\n  sub\n    /* \"contracts/Chapter9.sol\":475:523  require(_owner != address(0), \"Invalid address\") */\n  tag_6\n  jumpi\n  mload(0x40)\n  0x08c379a000000000000000000000000000000000000000000000000000000000\n  dup2\n  mstore\n  0x04\n  add\n  tag_7\n  swap1\n  tag_8\n  jump\t// in\ntag_7:\n  mload(0x40)\n  dup1\n  swap2\n  sub\n  swap1\n  revert\ntag_6:\n    /* \"contracts/Chapter9.sol\":541:547  _owner */\n  dup1\n    /* \"contracts/Chapter9.sol\":533:538  owner */\n  0x01\n  0x00\n    /* \"contracts/Chapter9.sol\":533:547  owner = _owner */\n  0x0100\n  exp\n  dup2\n  sload\n  dup2\n  0xffffffffffffffffffffffffffffffffffffffff\n  mul\n  not\n  and\n  swap1\n  dup4\n  0xffffffffffffffffffffffffffffffffffffffff\n  and\n  mul\n  or\n  swap1\n  sstore\n  pop\n    /* \"contracts/Chapter9.sol\":437:554  constructor(address _owner) {... */\n  pop\n    /* \"contracts/Chapter9.sol\":325:1623  contract Chapter9 {... */\n  jump(tag_9)\n    /* \"#utility.yul\":88:205   */\ntag_11:\n    /* \"#utility.yul\":197:198   */\n  0x00\n    /* \"#utility.yul\":194:195   */\n  dup1\n    /* \"#utility.yul\":187:199   */\n  revert\n    /* \"#utility.yul\":334:460   */\ntag_13:\n    /* \"#utility.yul\":371:378   */\n  0x00\n    /* \"#utility.yul\":411:453   */\n  0xffffffffffffffffffffffffffffffffffffffff\n    /* \"#utility.yul\":404:409   */\n  dup3\n    /* \"#utility.yul\":400:454   */\n  and\n    /* \"#utility.yul\":389:454   */\n  swap1\n  pop\n    /* \"#utility.yul\":334:460   */\n  swap2\n  swap1\n  pop\n  jump\t// out\n    /* \"#utility.yul\":466:562   */\ntag_14:\n    /* \"#utility.yul\":503:510   */\n  0x00\n    /* \"#utility.yul\":532:556   */\n  tag_26\n    /* \"#utility.yul\":550:555   */\n  dup3\n    /* \"#utility.yul\":532:556   */\n  tag_13\n  jump\t// in\ntag_26:\n    /* \"#utility.yul\":521:556   */\n  swap1\n  pop\n    /* \"#utility.yul\":466:562   */\n  swap2\n  swap1\n  pop\n  jump\t// out\n    /* \"#utility.yul\":568:690   */\ntag_15:\n    /* \"#utility.yul\":641:665   */\n  tag_28\n    /* \"#utility.yul\":659:664   */\n  dup2\n    /* \"#utility.yul\":641:665   */\n  tag_14\n  jump\t// in\ntag_28:\n    /* \"#utility.yul\":634:639   */\n  dup2\n    /* \"#utility.yul\":631:666   */\n  eq\n    /* \"#utility.yul\":621:684   */\n  tag_29\n  jumpi\n    /* \"#utility.yul\":680:681   */\n  0x00\n    /* \"#utility.yul\":677:678   */\n  dup1\n    /* \"#utility.yul\":670:682   */\n  revert\n    /* \"#utility.yul\":621:684   */\ntag_29:\n    /* \"#utility.yul\":568:690   */\n  pop\n  jump\t// out\n    /* \"#utility.yul\":696:839   */\ntag_16:\n    /* \"#utility.yul\":753:758   */\n  0x00\n    /* \"#utility.yul\":784:790   */\n  dup2\n    /* \"#utility.yul\":778:791   */\n  mload\n    /* \"#utility.yul\":769:791   */\n  swap1\n  pop\n    /* \"#utility.yul\":800:833   */\n  tag_31\n    /* \"#utility.yul\":827:832   */\n  dup2\n    /* \"#utility.yul\":800:833   */\n  tag_15\n  jump\t// in\ntag_31:\n    /* \"#utility.yul\":696:839   */\n  swap3\n  swap2\n  pop\n  pop\n  jump\t// out\n    /* \"#utility.yul\":845:1196   */\ntag_3:\n    /* \"#utility.yul\":915:921   */\n  0x00\n    /* \"#utility.yul\":964:966   */\n  0x20\n    /* \"#utility.yul\":952:961   */\n  dup3\n    /* \"#utility.yul\":943:950   */\n  dup5\n    /* \"#utility.yul\":939:962   */\n  sub\n    /* \"#utility.yul\":935:967   */\n  slt\n    /* \"#utility.yul\":932:1051   */\n  iszero\n  tag_33\n  jumpi\n    /* \"#utility.yul\":970:1049   */\n  tag_34\n  tag_11\n  jump\t// in\ntag_34:\n    /* \"#utility.yul\":932:1051   */\ntag_33:\n    /* \"#utility.yul\":1090:1091   */\n  0x00\n    /* \"#utility.yul\":1115:1179   */\n  tag_35\n    /* \"#utility.yul\":1171:1178   */\n  dup5\n    /* \"#utility.yul\":1162:1168   */\n  dup3\n    /* \"#utility.yul\":1151:1160   */\n  dup6\n    /* \"#utility.yul\":1147:1169   */\n  add\n    /* \"#utility.yul\":1115:1179   */\n  tag_16\n  jump\t// in\ntag_35:\n    /* \"#utility.yul\":1105:1179   */\n  swap2\n  pop\n    /* \"#utility.yul\":1061:1189   */\n  pop\n    /* \"#utility.yul\":845:1196   */\n  swap3\n  swap2\n  pop\n  pop\n  jump\t// out\n    /* \"#utility.yul\":1202:1371   */\ntag_17:\n    /* \"#utility.yul\":1286:1297   */\n  0x00\n    /* \"#utility.yul\":1320:1326   */\n  dup3\n    /* \"#utility.yul\":1315:1318   */\n  dup3\n    /* \"#utility.yul\":1308:1327   */\n  mstore\n    /* \"#utility.yul\":1360:1364   */\n  0x20\n    /* \"#utility.yul\":1355:1358   */\n  dup3\n    /* \"#utility.yul\":1351:1365   */\n  add\n    /* \"#utility.yul\":1336:1365   */\n  swap1\n  pop\n    /* \"#utility.yul\":1202:1371   */\n  swap3\n  swap2\n  pop\n  pop\n  jump\t// out\n    /* \"#utility.yul\":1377:1542   */\ntag_18:\n    /* \"#utility.yul\":1517:1534   */\n  0x496e76616c696420616464726573730000000000000000000000000000000000\n    /* \"#utility.yul\":1513:1514   */\n  0x00\n    /* \"#utility.yul\":1505:1511   */\n  dup3\n    /* \"#utility.yul\":1501:1515   */\n  add\n    /* \"#utility.yul\":1494:1535   */\n  mstore\n    /* \"#utility.yul\":1377:1542   */\n  pop\n  jump\t// out\n    /* \"#utility.yul\":1548:1914   */\ntag_19:\n    /* \"#utility.yul\":1690:1693   */\n  0x00\n    /* \"#utility.yul\":1711:1778   */\n  tag_39\n    /* \"#utility.yul\":1775:1777   */\n  0x0f\n    /* \"#utility.yul\":1770:1773   */\n  dup4\n    /* \"#utility.yul\":1711:1778   */\n  tag_17\n  jump\t// in\ntag_39:\n    /* \"#utility.yul\":1704:1778   */\n  swap2\n  pop\n    /* \"#utility.yul\":1787:1880   */\n  tag_40\n    /* \"#utility.yul\":1876:1879   */\n  dup3\n    /* \"#utility.yul\":1787:1880   */\n  tag_18\n  jump\t// in\ntag_40:\n    /* \"#utility.yul\":1905:1907   */\n  0x20\n    /* \"#utility.yul\":1900:1903   */\n  dup3\n    /* \"#utility.yul\":1896:1908   */\n  add\n    /* \"#utility.yul\":1889:1908   */\n  swap1\n  pop\n    /* \"#utility.yul\":1548:1914   */\n  swap2\n  swap1\n  pop\n  jump\t// out\n    /* \"#utility.yul\":1920:2339   */\ntag_8:\n    /* \"#utility.yul\":2086:2090   */\n  0x00\n    /* \"#utility.yul\":2124:2126   */\n  0x20\n    /* \"#utility.yul\":2113:2122   */\n  dup3\n    /* \"#utility.yul\":2109:2127   */\n  add\n    /* \"#utility.yul\":2101:2127   */\n  swap1\n  pop\n    /* \"#utility.yul\":2173:2182   */\n  dup2\n    /* \"#utility.yul\":2167:2171   */\n  dup2\n    /* \"#utility.yul\":2163:2183   */\n  sub\n    /* \"#utility.yul\":2159:2160   */\n  0x00\n    /* \"#utility.yul\":2148:2157   */\n  dup4\n    /* \"#utility.yul\":2144:2161   */\n  add\n    /* \"#utility.yul\":2137:2184   */\n  mstore\n    /* \"#utility.yul\":2201:2332   */\n  tag_42\n    /* \"#utility.yul\":2327:2331   */\n  dup2\n    /* \"#utility.yul\":2201:2332   */\n  tag_19\n  jump\t// in\ntag_42:\n    /* \"#utility.yul\":2193:2332   */\n  swap1\n  pop\n    /* \"#utility.yul\":1920:2339   */\n  swap2\n  swap1\n  pop\n  jump\t// out\n    /* \"contracts/Chapter9.sol\":325:1623  contract Chapter9 {... */\ntag_9:\n  dataSize(sub_0)\n  dup1\n  dataOffset(sub_0)\n  0x00\n  codecopy\n  0x00\n  return\nstop\n\nsub_0: assembly {\n        /* \"contracts/Chapter9.sol\":325:1623  contract Chapter9 {... */\n      mstore(0x40, 0x80)\n      jumpi(tag_1, lt(calldatasize, 0x04))\n      shr(0xe0, calldataload(0x00))\n      dup1\n      0x8da5cb5b\n      gt\n      tag_10\n      jumpi\n      dup1\n      0x8da5cb5b\n      eq\n      tag_6\n      jumpi\n      dup1\n      0xa9bf5633\n      eq\n      tag_7\n      jumpi\n      dup1\n      0xb8bd717f\n      eq\n      tag_8\n      jumpi\n      dup1\n      0xd18a42e1\n      eq\n      tag_9\n      jumpi\n      jump(tag_1)\n    tag_10:\n      dup1\n      0x0ad19aeb\n      eq\n      tag_2\n      jumpi\n      dup1\n      0x20987767\n      eq\n      tag_3\n      jumpi\n      dup1\n      0x246ce3f9\n      eq\n      tag_4\n      jumpi\n      dup1\n      0x6d26ec18\n      eq\n      tag_5\n      jumpi\n    tag_1:\n      0x00\n      dup1\n      revert\n        /* \"contracts/Chapter9.sol\":766:1094  function withdrawMoney(address payable _to, uint64 _amount) public {... */\n    tag_2:\n      callvalue\n      dup1\n      iszero\n      tag_11\n      jumpi\n      0x00\n      dup1\n      revert\n    tag_11:\n      pop\n      tag_12\n      0x04\n      dup1\n      calldatasize\n      sub\n      dup2\n      add\n      swap1\n      tag_13\n      swap2\n      swap1\n      tag_14\n      jump\t// in\n    tag_13:\n      tag_15\n      jump\t// in\n    tag_12:\n      stop\n        /* \"contracts/Chapter9.sol\":1293:1467  function testRevert(uint _i) public pure {... */\n    tag_3:\n      callvalue\n      dup1\n      iszero\n      tag_16\n      jumpi\n      0x00\n      dup1\n      revert\n    tag_16:\n      pop\n      tag_17\n      0x04\n      dup1\n      calldatasize\n      sub\n      dup2\n      add\n      swap1\n      tag_18\n      swap2\n      swap1\n      tag_19\n      jump\t// in\n    tag_18:\n      tag_20\n      jump\t// in\n    tag_17:\n      stop\n        /* \"contracts/Chapter9.sol\":1214:1287  function testAssert(uint _i) public pure {... */\n    tag_4:\n      callvalue\n      dup1\n      iszero\n      tag_21\n      jumpi\n      0x00\n      dup1\n      revert\n    tag_21:\n      pop\n      tag_22\n      0x04\n      dup1\n      calldatasize\n      sub\n      dup2\n      add\n      swap1\n      tag_23\n      swap2\n      swap1\n      tag_19\n      jump\t// in\n    tag_23:\n      tag_24\n      jump\t// in\n    tag_22:\n      stop\n        /* \"contracts/Chapter9.sol\":560:760  function receiveMoney() public payable {... */\n    tag_5:\n      tag_25\n      tag_26\n      jump\t// in\n    tag_25:\n      stop\n        /* \"contracts/Chapter9.sol\":410:430  address public owner */\n    tag_6:\n      callvalue\n      dup1\n      iszero\n      tag_27\n      jumpi\n      0x00\n      dup1\n      revert\n    tag_27:\n      pop\n      tag_28\n      tag_29\n      jump\t// in\n    tag_28:\n      mload(0x40)\n      tag_30\n      swap2\n      swap1\n      tag_31\n      jump\t// in\n    tag_30:\n      mload(0x40)\n      dup1\n      swap2\n      sub\n      swap1\n      return\n        /* \"contracts/Chapter9.sol\":1473:1621  function myFunc(uint x) public pure returns (string memory) {... */\n    tag_7:\n      callvalue\n      dup1\n      iszero\n      tag_32\n      jumpi\n      0x00\n      dup1\n      revert\n    tag_32:\n      pop\n      tag_33\n      0x04\n      dup1\n      calldatasize\n      sub\n      dup2\n      add\n      swap1\n      tag_34\n      swap2\n      swap1\n      tag_19\n      jump\t// in\n    tag_34:\n      tag_35\n      jump\t// in\n    tag_33:\n      mload(0x40)\n      tag_36\n      swap2\n      swap1\n      tag_37\n      jump\t// in\n    tag_36:\n      mload(0x40)\n      dup1\n      swap2\n      sub\n      swap1\n      return\n        /* \"contracts/Chapter9.sol\":1100:1208  function testRequire(uint _i) public pure {... */\n    tag_8:\n      callvalue\n      dup1\n      iszero\n      tag_38\n      jumpi\n      0x00\n      dup1\n      revert\n    tag_38:\n      pop\n      tag_39\n      0x04\n      dup1\n      calldatasize\n      sub\n      dup2\n      add\n      swap1\n      tag_40\n      swap2\n      swap1\n      tag_19\n      jump\t// in\n    tag_40:\n      tag_41\n      jump\t// in\n    tag_39:\n      stop\n        /* \"contracts/Chapter9.sol\":354:404  mapping (address => uint64) public balanceReceived */\n    tag_9:\n      callvalue\n      dup1\n      iszero\n      tag_42\n      jumpi\n      0x00\n      dup1\n      revert\n    tag_42:\n      pop\n      tag_43\n      0x04\n      dup1\n      calldatasize\n      sub\n      dup2\n      add\n      swap1\n      tag_44\n      swap2\n      swap1\n      tag_45\n      jump\t// in\n    tag_44:\n      tag_46\n      jump\t// in\n    tag_43:\n      mload(0x40)\n      tag_47\n      swap2\n      swap1\n      tag_48\n      jump\t// in\n    tag_47:\n      mload(0x40)\n      dup1\n      swap2\n      sub\n      swap1\n      return\n        /* \"contracts/Chapter9.sol\":766:1094  function withdrawMoney(address payable _to, uint64 _amount) public {... */\n    tag_15:\n        /* \"contracts/Chapter9.sol\":882:889  _amount */\n      dup1\n        /* \"contracts/Chapter9.sol\":851:889  balanceReceived[msg.sender] >= _amount */\n      0xffffffffffffffff\n      and\n        /* \"contracts/Chapter9.sol\":851:866  balanceReceived */\n      0x00\n        /* \"contracts/Chapter9.sol\":851:878  balanceReceived[msg.sender] */\n      dup1\n        /* \"contracts/Chapter9.sol\":867:877  msg.sender */\n      caller\n        /* \"contracts/Chapter9.sol\":851:878  balanceReceived[msg.sender] */\n      0xffffffffffffffffffffffffffffffffffffffff\n      and\n      0xffffffffffffffffffffffffffffffffffffffff\n      and\n      dup2\n      mstore\n      0x20\n      add\n      swap1\n      dup2\n      mstore\n      0x20\n      add\n      0x00\n      keccak256\n      0x00\n      swap1\n      sload\n      swap1\n      0x0100\n      exp\n      swap1\n      div\n      0xffffffffffffffff\n      and\n        /* \"contracts/Chapter9.sol\":851:889  balanceReceived[msg.sender] >= _amount */\n      0xffffffffffffffff\n      and\n      lt\n      iszero\n        /* \"contracts/Chapter9.sol\":843:922  require(balanceReceived[msg.sender] >= _amount, \"You don't have enough ether.\") */\n      tag_50\n      jumpi\n      mload(0x40)\n      0x08c379a000000000000000000000000000000000000000000000000000000000\n      dup2\n      mstore\n      0x04\n      add\n      tag_51\n      swap1\n      tag_52\n      jump\t// in\n    tag_51:\n      mload(0x40)\n      dup1\n      swap2\n      sub\n      swap1\n      revert\n    tag_50:\n        /* \"contracts/Chapter9.sol\":1000:1007  _amount */\n      dup1\n        /* \"contracts/Chapter9.sol\":970:985  balanceReceived */\n      0x00\n        /* \"contracts/Chapter9.sol\":970:997  balanceReceived[msg.sender] */\n      dup1\n        /* \"contracts/Chapter9.sol\":986:996  msg.sender */\n      caller\n        /* \"contracts/Chapter9.sol\":970:997  balanceReceived[msg.sender] */\n      0xffffffffffffffffffffffffffffffffffffffff\n      and\n      0xffffffffffffffffffffffffffffffffffffffff\n      and\n      dup2\n      mstore\n      0x20\n      add\n      swap1\n      dup2\n      mstore\n      0x20\n      add\n      0x00\n      keccak256\n      0x00\n      swap1\n      sload\n      swap1\n      0x0100\n      exp\n      swap1\n      div\n      0xffffffffffffffff\n      and\n        /* \"contracts/Chapter9.sol\":970:1007  balanceReceived[msg.sender] - _amount */\n      tag_53\n      swap2\n      swap1\n      tag_54\n      jump\t// in\n    tag_53:\n        /* \"contracts/Chapter9.sol\":939:1007  balanceReceived[msg.sender] >= balanceReceived[msg.sender] - _amount */\n      0xffffffffffffffff\n      and\n        /* \"contracts/Chapter9.sol\":939:954  balanceReceived */\n      0x00\n        /* \"contracts/Chapter9.sol\":939:966  balanceReceived[msg.sender] */\n      dup1\n        /* \"contracts/Chapter9.sol\":955:965  msg.sender */\n      caller\n        /* \"contracts/Chapter9.sol\":939:966  balanceReceived[msg.sender] */\n      0xffffffffffffffffffffffffffffffffffffffff\n      and\n      0xffffffffffffffffffffffffffffffffffffffff\n      and\n      dup2\n      mstore\n      0x20\n      add\n      swap1\n      dup2\n      mstore\n      0x20\n      add\n      0x00\n      keccak256\n      0x00\n      swap1\n      sload\n      swap1\n      0x0100\n      exp\n      swap1\n      div\n      0xffffffffffffffff\n      and\n        /* \"contracts/Chapter9.sol\":939:1007  balanceReceived[msg.sender] >= balanceReceived[msg.sender] - _amount */\n      0xffffffffffffffff\n      and\n      lt\n      iszero\n        /* \"contracts/Chapter9.sol\":932:1008  assert(balanceReceived[msg.sender] >= balanceReceived[msg.sender] - _amount) */\n      tag_55\n      jumpi\n      tag_56\n      tag_57\n      jump\t// in\n    tag_56:\n    tag_55:\n        /* \"contracts/Chapter9.sol\":1049:1056  _amount */\n      dup1\n        /* \"contracts/Chapter9.sol\":1018:1033  balanceReceived */\n      0x00\n        /* \"contracts/Chapter9.sol\":1018:1045  balanceReceived[msg.sender] */\n      dup1\n        /* \"contracts/Chapter9.sol\":1034:1044  msg.sender */\n      caller\n        /* \"contracts/Chapter9.sol\":1018:1045  balanceReceived[msg.sender] */\n      0xffffffffffffffffffffffffffffffffffffffff\n      and\n      0xffffffffffffffffffffffffffffffffffffffff\n      and\n      dup2\n      mstore\n      0x20\n      add\n      swap1\n      dup2\n      mstore\n      0x20\n      add\n      0x00\n      keccak256\n      0x00\n        /* \"contracts/Chapter9.sol\":1018:1056  balanceReceived[msg.sender] -= _amount */\n      dup3\n      dup3\n      dup3\n      swap1\n      sload\n      swap1\n      0x0100\n      exp\n      swap1\n      div\n      0xffffffffffffffff\n      and\n      tag_58\n      swap2\n      swap1\n      tag_54\n      jump\t// in\n    tag_58:\n      swap3\n      pop\n      0x0100\n      exp\n      dup2\n      sload\n      dup2\n      0xffffffffffffffff\n      mul\n      not\n      and\n      swap1\n      dup4\n      0xffffffffffffffff\n      and\n      mul\n      or\n      swap1\n      sstore\n      pop\n        /* \"contracts/Chapter9.sol\":1066:1069  _to */\n      dup2\n        /* \"contracts/Chapter9.sol\":1066:1078  _to.transfer */\n      0xffffffffffffffffffffffffffffffffffffffff\n      and\n        /* \"contracts/Chapter9.sol\":1066:1087  _to.transfer(_amount) */\n      0x08fc\n        /* \"contracts/Chapter9.sol\":1079:1086  _amount */\n      dup3\n        /* \"contracts/Chapter9.sol\":1066:1087  _to.transfer(_amount) */\n      0xffffffffffffffff\n      and\n      swap1\n      dup2\n      iszero\n      mul\n      swap1\n      mload(0x40)\n      0x00\n      mload(0x40)\n      dup1\n      dup4\n      sub\n      dup2\n      dup6\n      dup9\n      dup9\n      call\n      swap4\n      pop\n      pop\n      pop\n      pop\n      iszero\n      dup1\n      iszero\n      tag_60\n      jumpi\n      returndatasize\n      0x00\n      dup1\n      returndatacopy\n      revert(0x00, returndatasize)\n    tag_60:\n      pop\n        /* \"contracts/Chapter9.sol\":766:1094  function withdrawMoney(address payable _to, uint64 _amount) public {... */\n      pop\n      pop\n      jump\t// out\n        /* \"contracts/Chapter9.sol\":1293:1467  function testRevert(uint _i) public pure {... */\n    tag_20:\n        /* \"contracts/Chapter9.sol\":1354:1356  10 */\n      0x0a\n        /* \"contracts/Chapter9.sol\":1348:1350  _i */\n      dup2\n        /* \"contracts/Chapter9.sol\":1348:1356  _i <= 10 */\n      gt\n        /* \"contracts/Chapter9.sol\":1344:1461  if (_i <= 10) {... */\n      tag_62\n      jumpi\n        /* \"contracts/Chapter9.sol\":1382:1384  10 */\n      0x0a\n        /* \"contracts/Chapter9.sol\":1376:1378  _i */\n      dup2\n        /* \"contracts/Chapter9.sol\":1376:1384  _i != 10 */\n      eq\n        /* \"contracts/Chapter9.sol\":1372:1451  if (_i != 10) {... */\n      tag_63\n      jumpi\n        /* \"contracts/Chapter9.sol\":1404:1436  revert(\"Input must be equal 10\") */\n      mload(0x40)\n      0x08c379a000000000000000000000000000000000000000000000000000000000\n      dup2\n      mstore\n      0x04\n      add\n      tag_64\n      swap1\n      tag_65\n      jump\t// in\n    tag_64:\n      mload(0x40)\n      dup1\n      swap2\n      sub\n      swap1\n      revert\n        /* \"contracts/Chapter9.sol\":1372:1451  if (_i != 10) {... */\n    tag_63:\n        /* \"contracts/Chapter9.sol\":1344:1461  if (_i <= 10) {... */\n    tag_62:\n        /* \"contracts/Chapter9.sol\":1293:1467  function testRevert(uint _i) public pure {... */\n      pop\n      jump\t// out\n        /* \"contracts/Chapter9.sol\":1214:1287  function testAssert(uint _i) public pure {... */\n    tag_24:\n        /* \"contracts/Chapter9.sol\":1278:1279  0 */\n      0x00\n        /* \"contracts/Chapter9.sol\":1272:1274  _i */\n      dup2\n        /* \"contracts/Chapter9.sol\":1272:1279  _i == 0 */\n      eq\n        /* \"contracts/Chapter9.sol\":1265:1280  assert(_i == 0) */\n      tag_67\n      jumpi\n      tag_68\n      tag_57\n      jump\t// in\n    tag_68:\n    tag_67:\n        /* \"contracts/Chapter9.sol\":1214:1287  function testAssert(uint _i) public pure {... */\n      pop\n      jump\t// out\n        /* \"contracts/Chapter9.sol\":560:760  function receiveMoney() public payable {... */\n    tag_26:\n        /* \"contracts/Chapter9.sol\":667:682  balanceReceived */\n      0x00\n        /* \"contracts/Chapter9.sol\":667:694  balanceReceived[msg.sender] */\n      dup1\n        /* \"contracts/Chapter9.sol\":683:693  msg.sender */\n      caller\n        /* \"contracts/Chapter9.sol\":667:694  balanceReceived[msg.sender] */\n      0xffffffffffffffffffffffffffffffffffffffff\n      and\n      0xffffffffffffffffffffffffffffffffffffffff\n      and\n      dup2\n      mstore\n      0x20\n      add\n      swap1\n      dup2\n      mstore\n      0x20\n      add\n      0x00\n      keccak256\n      0x00\n      swap1\n      sload\n      swap1\n      0x0100\n      exp\n      swap1\n      div\n      0xffffffffffffffff\n      and\n        /* \"contracts/Chapter9.sol\":616:694  balanceReceived[msg.sender] + uint64(msg.value) >= balanceReceived[msg.sender] */\n      0xffffffffffffffff\n      and\n        /* \"contracts/Chapter9.sol\":653:662  msg.value */\n      callvalue\n        /* \"contracts/Chapter9.sol\":616:631  balanceReceived */\n      0x00\n        /* \"contracts/Chapter9.sol\":616:643  balanceReceived[msg.sender] */\n      dup1\n        /* \"contracts/Chapter9.sol\":632:642  msg.sender */\n      caller\n        /* \"contracts/Chapter9.sol\":616:643  balanceReceived[msg.sender] */\n      0xffffffffffffffffffffffffffffffffffffffff\n      and\n      0xffffffffffffffffffffffffffffffffffffffff\n      and\n      dup2\n      mstore\n      0x20\n      add\n      swap1\n      dup2\n      mstore\n      0x20\n      add\n      0x00\n      keccak256\n      0x00\n      swap1\n      sload\n      swap1\n      0x0100\n      exp\n      swap1\n      div\n      0xffffffffffffffff\n      and\n        /* \"contracts/Chapter9.sol\":616:663  balanceReceived[msg.sender] + uint64(msg.value) */\n      tag_70\n      swap2\n      swap1\n      tag_71\n      jump\t// in\n    tag_70:\n        /* \"contracts/Chapter9.sol\":616:694  balanceReceived[msg.sender] + uint64(msg.value) >= balanceReceived[msg.sender] */\n      0xffffffffffffffff\n      and\n      lt\n      iszero\n        /* \"contracts/Chapter9.sol\":609:695  assert(balanceReceived[msg.sender] + uint64(msg.value) >= balanceReceived[msg.sender]) */\n      tag_72\n      jumpi\n      tag_73\n      tag_57\n      jump\t// in\n    tag_73:\n    tag_72:\n        /* \"contracts/Chapter9.sol\":743:752  msg.value */\n      callvalue\n        /* \"contracts/Chapter9.sol\":705:720  balanceReceived */\n      0x00\n        /* \"contracts/Chapter9.sol\":705:732  balanceReceived[msg.sender] */\n      dup1\n        /* \"contracts/Chapter9.sol\":721:731  msg.sender */\n      caller\n        /* \"contracts/Chapter9.sol\":705:732  balanceReceived[msg.sender] */\n      0xffffffffffffffffffffffffffffffffffffffff\n      and\n      0xffffffffffffffffffffffffffffffffffffffff\n      and\n      dup2\n      mstore\n      0x20\n      add\n      swap1\n      dup2\n      mstore\n      0x20\n      add\n      0x00\n      keccak256\n      0x00\n        /* \"contracts/Chapter9.sol\":705:753  balanceReceived[msg.sender] += uint64(msg.value) */\n      dup3\n      dup3\n      dup3\n      swap1\n      sload\n      swap1\n      0x0100\n      exp\n      swap1\n      div\n      0xffffffffffffffff\n      and\n      tag_74\n      swap2\n      swap1\n      tag_71\n      jump\t// in\n    tag_74:\n      swap3\n      pop\n      0x0100\n      exp\n      dup2\n      sload\n      dup2\n      0xffffffffffffffff\n      mul\n      not\n      and\n      swap1\n      dup4\n      0xffffffffffffffff\n      and\n      mul\n      or\n      swap1\n      sstore\n      pop\n        /* \"contracts/Chapter9.sol\":560:760  function receiveMoney() public payable {... */\n      jump\t// out\n        /* \"contracts/Chapter9.sol\":410:430  address public owner */\n    tag_29:\n      0x01\n      0x00\n      swap1\n      sload\n      swap1\n      0x0100\n      exp\n      swap1\n      div\n      0xffffffffffffffffffffffffffffffffffffffff\n      and\n      dup2\n      jump\t// out\n        /* \"contracts/Chapter9.sol\":1473:1621  function myFunc(uint x) public pure returns (string memory) {... */\n    tag_35:\n        /* \"contracts/Chapter9.sol\":1518:1531  string memory */\n      0x60\n        /* \"contracts/Chapter9.sol\":1556:1557  0 */\n      0x00\n        /* \"contracts/Chapter9.sol\":1551:1552  x */\n      dup3\n        /* \"contracts/Chapter9.sol\":1551:1557  x != 0 */\n      sub\n        /* \"contracts/Chapter9.sol\":1543:1576  require(x != 0, \"require failed\") */\n      tag_76\n      jumpi\n      mload(0x40)\n      0x08c379a000000000000000000000000000000000000000000000000000000000\n      dup2\n      mstore\n      0x04\n      add\n      tag_77\n      swap1\n      tag_78\n      jump\t// in\n    tag_77:\n      mload(0x40)\n      dup1\n      swap2\n      sub\n      swap1\n      revert\n    tag_76:\n        /* \"contracts/Chapter9.sol\":1586:1614  return \"my func wes called.\" */\n      mload(0x40)\n      dup1\n      0x40\n      add\n      0x40\n      mstore\n      dup1\n      0x13\n      dup2\n      mstore\n      0x20\n      add\n      0x6d792066756e63207765732063616c6c65642e00000000000000000000000000\n      dup2\n      mstore\n      pop\n      swap1\n      pop\n        /* \"contracts/Chapter9.sol\":1473:1621  function myFunc(uint x) public pure returns (string memory) {... */\n      swap2\n      swap1\n      pop\n      jump\t// out\n        /* \"contracts/Chapter9.sol\":1100:1208  function testRequire(uint _i) public pure {... */\n    tag_41:\n        /* \"contracts/Chapter9.sol\":1165:1167  10 */\n      0x0a\n        /* \"contracts/Chapter9.sol\":1160:1162  _i */\n      dup2\n        /* \"contracts/Chapter9.sol\":1160:1167  _i > 10 */\n      gt\n        /* \"contracts/Chapter9.sol\":1152:1201  require(_i > 10, \"Input must be greater than 10\") */\n      tag_80\n      jumpi\n      mload(0x40)\n      0x08c379a000000000000000000000000000000000000000000000000000000000\n      dup2\n      mstore\n      0x04\n      add\n      tag_81\n      swap1\n      tag_82\n      jump\t// in\n    tag_81:\n      mload(0x40)\n      dup1\n      swap2\n      sub\n      swap1\n      revert\n    tag_80:\n        /* \"contracts/Chapter9.sol\":1100:1208  function testRequire(uint _i) public pure {... */\n      pop\n      jump\t// out\n        /* \"contracts/Chapter9.sol\":354:404  mapping (address => uint64) public balanceReceived */\n    tag_46:\n      mstore(0x20, 0x00)\n      dup1\n      0x00\n      mstore\n      keccak256(0x00, 0x40)\n      0x00\n      swap2\n      pop\n      sload\n      swap1\n      0x0100\n      exp\n      swap1\n      div\n      0xffffffffffffffff\n      and\n      dup2\n      jump\t// out\n        /* \"#utility.yul\":88:205   */\n    tag_84:\n        /* \"#utility.yul\":197:198   */\n      0x00\n        /* \"#utility.yul\":194:195   */\n      dup1\n        /* \"#utility.yul\":187:199   */\n      revert\n        /* \"#utility.yul\":334:460   */\n    tag_86:\n        /* \"#utility.yul\":371:378   */\n      0x00\n        /* \"#utility.yul\":411:453   */\n      0xffffffffffffffffffffffffffffffffffffffff\n        /* \"#utility.yul\":404:409   */\n      dup3\n        /* \"#utility.yul\":400:454   */\n      and\n        /* \"#utility.yul\":389:454   */\n      swap1\n      pop\n        /* \"#utility.yul\":334:460   */\n      swap2\n      swap1\n      pop\n      jump\t// out\n        /* \"#utility.yul\":466:570   */\n    tag_87:\n        /* \"#utility.yul\":511:518   */\n      0x00\n        /* \"#utility.yul\":540:564   */\n      tag_121\n        /* \"#utility.yul\":558:563   */\n      dup3\n        /* \"#utility.yul\":540:564   */\n      tag_86\n      jump\t// in\n    tag_121:\n        /* \"#utility.yul\":529:564   */\n      swap1\n      pop\n        /* \"#utility.yul\":466:570   */\n      swap2\n      swap1\n      pop\n      jump\t// out\n        /* \"#utility.yul\":576:714   */\n    tag_88:\n        /* \"#utility.yul\":657:689   */\n      tag_123\n        /* \"#utility.yul\":683:688   */\n      dup2\n        /* \"#utility.yul\":657:689   */\n      tag_87\n      jump\t// in\n    tag_123:\n        /* \"#utility.yul\":650:655   */\n      dup2\n        /* \"#utility.yul\":647:690   */\n      eq\n        /* \"#utility.yul\":637:708   */\n      tag_124\n      jumpi\n        /* \"#utility.yul\":704:705   */\n      0x00\n        /* \"#utility.yul\":701:702   */\n      dup1\n        /* \"#utility.yul\":694:706   */\n      revert\n        /* \"#utility.yul\":637:708   */\n    tag_124:\n        /* \"#utility.yul\":576:714   */\n      pop\n      jump\t// out\n        /* \"#utility.yul\":720:875   */\n    tag_89:\n        /* \"#utility.yul\":774:779   */\n      0x00\n        /* \"#utility.yul\":812:818   */\n      dup2\n        /* \"#utility.yul\":799:819   */\n      calldataload\n        /* \"#utility.yul\":790:819   */\n      swap1\n      pop\n        /* \"#utility.yul\":828:869   */\n      tag_126\n        /* \"#utility.yul\":863:868   */\n      dup2\n        /* \"#utility.yul\":828:869   */\n      tag_88\n      jump\t// in\n    tag_126:\n        /* \"#utility.yul\":720:875   */\n      swap3\n      swap2\n      pop\n      pop\n      jump\t// out\n        /* \"#utility.yul\":881:982   */\n    tag_90:\n        /* \"#utility.yul\":917:924   */\n      0x00\n        /* \"#utility.yul\":957:975   */\n      0xffffffffffffffff\n        /* \"#utility.yul\":950:955   */\n      dup3\n        /* \"#utility.yul\":946:976   */\n      and\n        /* \"#utility.yul\":935:976   */\n      swap1\n      pop\n        /* \"#utility.yul\":881:982   */\n      swap2\n      swap1\n      pop\n      jump\t// out\n        /* \"#utility.yul\":988:1108   */\n    tag_91:\n        /* \"#utility.yul\":1060:1083   */\n      tag_129\n        /* \"#utility.yul\":1077:1082   */\n      dup2\n        /* \"#utility.yul\":1060:1083   */\n      tag_90\n      jump\t// in\n    tag_129:\n        /* \"#utility.yul\":1053:1058   */\n      dup2\n        /* \"#utility.yul\":1050:1084   */\n      eq\n        /* \"#utility.yul\":1040:1102   */\n      tag_130\n      jumpi\n        /* \"#utility.yul\":1098:1099   */\n      0x00\n        /* \"#utility.yul\":1095:1096   */\n      dup1\n        /* \"#utility.yul\":1088:1100   */\n      revert\n        /* \"#utility.yul\":1040:1102   */\n    tag_130:\n        /* \"#utility.yul\":988:1108   */\n      pop\n      jump\t// out\n        /* \"#utility.yul\":1114:1251   */\n    tag_92:\n        /* \"#utility.yul\":1159:1164   */\n      0x00\n        /* \"#utility.yul\":1197:1203   */\n      dup2\n        /* \"#utility.yul\":1184:1204   */\n      calldataload\n        /* \"#utility.yul\":1175:1204   */\n      swap1\n      pop\n        /* \"#utility.yul\":1213:1245   */\n      tag_132\n        /* \"#utility.yul\":1239:1244   */\n      dup2\n        /* \"#utility.yul\":1213:1245   */\n      tag_91\n      jump\t// in\n    tag_132:\n        /* \"#utility.yul\":1114:1251   */\n      swap3\n      swap2\n      pop\n      pop\n      jump\t// out\n        /* \"#utility.yul\":1257:1745   */\n    tag_14:\n        /* \"#utility.yul\":1332:1338   */\n      0x00\n        /* \"#utility.yul\":1340:1346   */\n      dup1\n        /* \"#utility.yul\":1389:1391   */\n      0x40\n        /* \"#utility.yul\":1377:1386   */\n      dup4\n        /* \"#utility.yul\":1368:1375   */\n      dup6\n        /* \"#utility.yul\":1364:1387   */\n      sub\n        /* \"#utility.yul\":1360:1392   */\n      slt\n        /* \"#utility.yul\":1357:1476   */\n      iszero\n      tag_134\n      jumpi\n        /* \"#utility.yul\":1395:1474   */\n      tag_135\n      tag_84\n      jump\t// in\n    tag_135:\n        /* \"#utility.yul\":1357:1476   */\n    tag_134:\n        /* \"#utility.yul\":1515:1516   */\n      0x00\n        /* \"#utility.yul\":1540:1601   */\n      tag_136\n        /* \"#utility.yul\":1593:1600   */\n      dup6\n        /* \"#utility.yul\":1584:1590   */\n      dup3\n        /* \"#utility.yul\":1573:1582   */\n      dup7\n        /* \"#utility.yul\":1569:1591   */\n      add\n        /* \"#utility.yul\":1540:1601   */\n      tag_89\n      jump\t// in\n    tag_136:\n        /* \"#utility.yul\":1530:1601   */\n      swap3\n      pop\n        /* \"#utility.yul\":1486:1611   */\n      pop\n        /* \"#utility.yul\":1650:1652   */\n      0x20\n        /* \"#utility.yul\":1676:1728   */\n      tag_137\n        /* \"#utility.yul\":1720:1727   */\n      dup6\n        /* \"#utility.yul\":1711:1717   */\n      dup3\n        /* \"#utility.yul\":1700:1709   */\n      dup7\n        /* \"#utility.yul\":1696:1718   */\n      add\n        /* \"#utility.yul\":1676:1728   */\n      tag_92\n      jump\t// in\n    tag_137:\n        /* \"#utility.yul\":1666:1728   */\n      swap2\n      pop\n        /* \"#utility.yul\":1621:1738   */\n      pop\n        /* \"#utility.yul\":1257:1745   */\n      swap3\n      pop\n      swap3\n      swap1\n      pop\n      jump\t// out\n        /* \"#utility.yul\":1751:1828   */\n    tag_93:\n        /* \"#utility.yul\":1788:1795   */\n      0x00\n        /* \"#utility.yul\":1817:1822   */\n      dup2\n        /* \"#utility.yul\":1806:1822   */\n      swap1\n      pop\n        /* \"#utility.yul\":1751:1828   */\n      swap2\n      swap1\n      pop\n      jump\t// out\n        /* \"#utility.yul\":1834:1956   */\n    tag_94:\n        /* \"#utility.yul\":1907:1931   */\n      tag_140\n        /* \"#utility.yul\":1925:1930   */\n      dup2\n        /* \"#utility.yul\":1907:1931   */\n      tag_93\n      jump\t// in\n    tag_140:\n        /* \"#utility.yul\":1900:1905   */\n      dup2\n        /* \"#utility.yul\":1897:1932   */\n      eq\n        /* \"#utility.yul\":1887:1950   */\n      tag_141\n      jumpi\n        /* \"#utility.yul\":1946:1947   */\n      0x00\n        /* \"#utility.yul\":1943:1944   */\n      dup1\n        /* \"#utility.yul\":1936:1948   */\n      revert\n        /* \"#utility.yul\":1887:1950   */\n    tag_141:\n        /* \"#utility.yul\":1834:1956   */\n      pop\n      jump\t// out\n        /* \"#utility.yul\":1962:2101   */\n    tag_95:\n        /* \"#utility.yul\":2008:2013   */\n      0x00\n        /* \"#utility.yul\":2046:2052   */\n      dup2\n        /* \"#utility.yul\":2033:2053   */\n      calldataload\n        /* \"#utility.yul\":2024:2053   */\n      swap1\n      pop\n        /* \"#utility.yul\":2062:2095   */\n      tag_143\n        /* \"#utility.yul\":2089:2094   */\n      dup2\n        /* \"#utility.yul\":2062:2095   */\n      tag_94\n      jump\t// in\n    tag_143:\n        /* \"#utility.yul\":1962:2101   */\n      swap3\n      swap2\n      pop\n      pop\n      jump\t// out\n        /* \"#utility.yul\":2107:2436   */\n    tag_19:\n        /* \"#utility.yul\":2166:2172   */\n      0x00\n        /* \"#utility.yul\":2215:2217   */\n      0x20\n        /* \"#utility.yul\":2203:2212   */\n      dup3\n        /* \"#utility.yul\":2194:2201   */\n      dup5\n        /* \"#utility.yul\":2190:2213   */\n      sub\n        /* \"#utility.yul\":2186:2218   */\n      slt\n        /* \"#utility.yul\":2183:2302   */\n      iszero\n      tag_145\n      jumpi\n        /* \"#utility.yul\":2221:2300   */\n      tag_146\n      tag_84\n      jump\t// in\n    tag_146:\n        /* \"#utility.yul\":2183:2302   */\n    tag_145:\n        /* \"#utility.yul\":2341:2342   */\n      0x00\n        /* \"#utility.yul\":2366:2419   */\n      tag_147\n        /* \"#utility.yul\":2411:2418   */\n      dup5\n        /* \"#utility.yul\":2402:2408   */\n      dup3\n        /* \"#utility.yul\":2391:2400   */\n      dup6\n        /* \"#utility.yul\":2387:2409   */\n      add\n        /* \"#utility.yul\":2366:2419   */\n      tag_95\n      jump\t// in\n    tag_147:\n        /* \"#utility.yul\":2356:2419   */\n      swap2\n      pop\n        /* \"#utility.yul\":2312:2429   */\n      pop\n        /* \"#utility.yul\":2107:2436   */\n      swap3\n      swap2\n      pop\n      pop\n      jump\t// out\n        /* \"#utility.yul\":2442:2538   */\n    tag_96:\n        /* \"#utility.yul\":2479:2486   */\n      0x00\n        /* \"#utility.yul\":2508:2532   */\n      tag_149\n        /* \"#utility.yul\":2526:2531   */\n      dup3\n        /* \"#utility.yul\":2508:2532   */\n      tag_86\n      jump\t// in\n    tag_149:\n        /* \"#utility.yul\":2497:2532   */\n      swap1\n      pop\n        /* \"#utility.yul\":2442:2538   */\n      swap2\n      swap1\n      pop\n      jump\t// out\n        /* \"#utility.yul\":2544:2662   */\n    tag_97:\n        /* \"#utility.yul\":2631:2655   */\n      tag_151\n        /* \"#utility.yul\":2649:2654   */\n      dup2\n        /* \"#utility.yul\":2631:2655   */\n      tag_96\n      jump\t// in\n    tag_151:\n        /* \"#utility.yul\":2626:2629   */\n      dup3\n        /* \"#utility.yul\":2619:2656   */\n      mstore\n        /* \"#utility.yul\":2544:2662   */\n      pop\n      pop\n      jump\t// out\n        /* \"#utility.yul\":2668:2890   */\n    tag_31:\n        /* \"#utility.yul\":2761:2765   */\n      0x00\n        /* \"#utility.yul\":2799:2801   */\n      0x20\n        /* \"#utility.yul\":2788:2797   */\n      dup3\n        /* \"#utility.yul\":2784:2802   */\n      add\n        /* \"#utility.yul\":2776:2802   */\n      swap1\n      pop\n        /* \"#utility.yul\":2812:2883   */\n      tag_153\n        /* \"#utility.yul\":2880:2881   */\n      0x00\n        /* \"#utility.yul\":2869:2878   */\n      dup4\n        /* \"#utility.yul\":2865:2882   */\n      add\n        /* \"#utility.yul\":2856:2862   */\n      dup5\n        /* \"#utility.yul\":2812:2883   */\n      tag_97\n      jump\t// in\n    tag_153:\n        /* \"#utility.yul\":2668:2890   */\n      swap3\n      swap2\n      pop\n      pop\n      jump\t// out\n        /* \"#utility.yul\":2896:2995   */\n    tag_98:\n        /* \"#utility.yul\":2948:2954   */\n      0x00\n        /* \"#utility.yul\":2982:2987   */\n      dup2\n        /* \"#utility.yul\":2976:2988   */\n      mload\n        /* \"#utility.yul\":2966:2988   */\n      swap1\n      pop\n        /* \"#utility.yul\":2896:2995   */\n      swap2\n      swap1\n      pop\n      jump\t// out\n        /* \"#utility.yul\":3001:3170   */\n    tag_99:\n        /* \"#utility.yul\":3085:3096   */\n      0x00\n        /* \"#utility.yul\":3119:3125   */\n      dup3\n        /* \"#utility.yul\":3114:3117   */\n      dup3\n        /* \"#utility.yul\":3107:3126   */\n      mstore\n        /* \"#utility.yul\":3159:3163   */\n      0x20\n        /* \"#utility.yul\":3154:3157   */\n      dup3\n        /* \"#utility.yul\":3150:3164   */\n      add\n        /* \"#utility.yul\":3135:3164   */\n      swap1\n      pop\n        /* \"#utility.yul\":3001:3170   */\n      swap3\n      swap2\n      pop\n      pop\n      jump\t// out\n        /* \"#utility.yul\":3176:3422   */\n    tag_100:\n        /* \"#utility.yul\":3257:3258   */\n      0x00\n        /* \"#utility.yul\":3267:3380   */\n    tag_157:\n        /* \"#utility.yul\":3281:3287   */\n      dup4\n        /* \"#utility.yul\":3278:3279   */\n      dup2\n        /* \"#utility.yul\":3275:3288   */\n      lt\n        /* \"#utility.yul\":3267:3380   */\n      iszero\n      tag_159\n      jumpi\n        /* \"#utility.yul\":3366:3367   */\n      dup1\n        /* \"#utility.yul\":3361:3364   */\n      dup3\n        /* \"#utility.yul\":3357:3368   */\n      add\n        /* \"#utility.yul\":3351:3369   */\n      mload\n        /* \"#utility.yul\":3347:3348   */\n      dup2\n        /* \"#utility.yul\":3342:3345   */\n      dup5\n        /* \"#utility.yul\":3338:3349   */\n      add\n        /* \"#utility.yul\":3331:3370   */\n      mstore\n        /* \"#utility.yul\":3303:3305   */\n      0x20\n        /* \"#utility.yul\":3300:3301   */\n      dup2\n        /* \"#utility.yul\":3296:3306   */\n      add\n        /* \"#utility.yul\":3291:3306   */\n      swap1\n      pop\n        /* \"#utility.yul\":3267:3380   */\n      jump(tag_157)\n    tag_159:\n        /* \"#utility.yul\":3414:3415   */\n      0x00\n        /* \"#utility.yul\":3405:3411   */\n      dup5\n        /* \"#utility.yul\":3400:3403   */\n      dup5\n        /* \"#utility.yul\":3396:3412   */\n      add\n        /* \"#utility.yul\":3389:3416   */\n      mstore\n        /* \"#utility.yul\":3238:3422   */\n      pop\n        /* \"#utility.yul\":3176:3422   */\n      pop\n      pop\n      pop\n      jump\t// out\n        /* \"#utility.yul\":3428:3530   */\n    tag_101:\n        /* \"#utility.yul\":3469:3475   */\n      0x00\n        /* \"#utility.yul\":3520:3522   */\n      0x1f\n        /* \"#utility.yul\":3516:3523   */\n      not\n        /* \"#utility.yul\":3511:3513   */\n      0x1f\n        /* \"#utility.yul\":3504:3509   */\n      dup4\n        /* \"#utility.yul\":3500:3514   */\n      add\n        /* \"#utility.yul\":3496:3524   */\n      and\n        /* \"#utility.yul\":3486:3524   */\n      swap1\n      pop\n        /* \"#utility.yul\":3428:3530   */\n      swap2\n      swap1\n      pop\n      jump\t// out\n        /* \"#utility.yul\":3536:3913   */\n    tag_102:\n        /* \"#utility.yul\":3624:3627   */\n      0x00\n        /* \"#utility.yul\":3652:3691   */\n      tag_162\n        /* \"#utility.yul\":3685:3690   */\n      dup3\n        /* \"#utility.yul\":3652:3691   */\n      tag_98\n      jump\t// in\n    tag_162:\n        /* \"#utility.yul\":3707:3778   */\n      tag_163\n        /* \"#utility.yul\":3771:3777   */\n      dup2\n        /* \"#utility.yul\":3766:3769   */\n      dup6\n        /* \"#utility.yul\":3707:3778   */\n      tag_99\n      jump\t// in\n    tag_163:\n        /* \"#utility.yul\":3700:3778   */\n      swap4\n      pop\n        /* \"#utility.yul\":3787:3852   */\n      tag_164\n        /* \"#utility.yul\":3845:3851   */\n      dup2\n        /* \"#utility.yul\":3840:3843   */\n      dup6\n        /* \"#utility.yul\":3833:3837   */\n      0x20\n        /* \"#utility.yul\":3826:3831   */\n      dup7\n        /* \"#utility.yul\":3822:3838   */\n      add\n        /* \"#utility.yul\":3787:3852   */\n      tag_100\n      jump\t// in\n    tag_164:\n        /* \"#utility.yul\":3877:3906   */\n      tag_165\n        /* \"#utility.yul\":3899:3905   */\n      dup2\n        /* \"#utility.yul\":3877:3906   */\n      tag_101\n      jump\t// in\n    tag_165:\n        /* \"#utility.yul\":3872:3875   */\n      dup5\n        /* \"#utility.yul\":3868:3907   */\n      add\n        /* \"#utility.yul\":3861:3907   */\n      swap2\n      pop\n        /* \"#utility.yul\":3628:3913   */\n      pop\n        /* \"#utility.yul\":3536:3913   */\n      swap3\n      swap2\n      pop\n      pop\n      jump\t// out\n        /* \"#utility.yul\":3919:4232   */\n    tag_37:\n        /* \"#utility.yul\":4032:4036   */\n      0x00\n        /* \"#utility.yul\":4070:4072   */\n      0x20\n        /* \"#utility.yul\":4059:4068   */\n      dup3\n        /* \"#utility.yul\":4055:4073   */\n      add\n        /* \"#utility.yul\":4047:4073   */\n      swap1\n      pop\n        /* \"#utility.yul\":4119:4128   */\n      dup2\n        /* \"#utility.yul\":4113:4117   */\n      dup2\n        /* \"#utility.yul\":4109:4129   */\n      sub\n        /* \"#utility.yul\":4105:4106   */\n      0x00\n        /* \"#utility.yul\":4094:4103   */\n      dup4\n        /* \"#utility.yul\":4090:4107   */\n      add\n        /* \"#utility.yul\":4083:4130   */\n      mstore\n        /* \"#utility.yul\":4147:4225   */\n      tag_167\n        /* \"#utility.yul\":4220:4224   */\n      dup2\n        /* \"#utility.yul\":4211:4217   */\n      dup5\n        /* \"#utility.yul\":4147:4225   */\n      tag_102\n      jump\t// in\n    tag_167:\n        /* \"#utility.yul\":4139:4225   */\n      swap1\n      pop\n        /* \"#utility.yul\":3919:4232   */\n      swap3\n      swap2\n      pop\n      pop\n      jump\t// out\n        /* \"#utility.yul\":4238:4360   */\n    tag_103:\n        /* \"#utility.yul\":4311:4335   */\n      tag_169\n        /* \"#utility.yul\":4329:4334   */\n      dup2\n        /* \"#utility.yul\":4311:4335   */\n      tag_96\n      jump\t// in\n    tag_169:\n        /* \"#utility.yul\":4304:4309   */\n      dup2\n        /* \"#utility.yul\":4301:4336   */\n      eq\n        /* \"#utility.yul\":4291:4354   */\n      tag_170\n      jumpi\n        /* \"#utility.yul\":4350:4351   */\n      0x00\n        /* \"#utility.yul\":4347:4348   */\n      dup1\n        /* \"#utility.yul\":4340:4352   */\n      revert\n        /* \"#utility.yul\":4291:4354   */\n    tag_170:\n        /* \"#utility.yul\":4238:4360   */\n      pop\n      jump\t// out\n        /* \"#utility.yul\":4366:4505   */\n    tag_104:\n        /* \"#utility.yul\":4412:4417   */\n      0x00\n        /* \"#utility.yul\":4450:4456   */\n      dup2\n        /* \"#utility.yul\":4437:4457   */\n      calldataload\n        /* \"#utility.yul\":4428:4457   */\n      swap1\n      pop\n        /* \"#utility.yul\":4466:4499   */\n      tag_172\n        /* \"#utility.yul\":4493:4498   */\n      dup2\n        /* \"#utility.yul\":4466:4499   */\n      tag_103\n      jump\t// in\n    tag_172:\n        /* \"#utility.yul\":4366:4505   */\n      swap3\n      swap2\n      pop\n      pop\n      jump\t// out\n        /* \"#utility.yul\":4511:4840   */\n    tag_45:\n        /* \"#utility.yul\":4570:4576   */\n      0x00\n        /* \"#utility.yul\":4619:4621   */\n      0x20\n        /* \"#utility.yul\":4607:4616   */\n      dup3\n        /* \"#utility.yul\":4598:4605   */\n      dup5\n        /* \"#utility.yul\":4594:4617   */\n      sub\n        /* \"#utility.yul\":4590:4622   */\n      slt\n        /* \"#utility.yul\":4587:4706   */\n      iszero\n      tag_174\n      jumpi\n        /* \"#utility.yul\":4625:4704   */\n      tag_175\n      tag_84\n      jump\t// in\n    tag_175:\n        /* \"#utility.yul\":4587:4706   */\n    tag_174:\n        /* \"#utility.yul\":4745:4746   */\n      0x00\n        /* \"#utility.yul\":4770:4823   */\n      tag_176\n        /* \"#utility.yul\":4815:4822   */\n      dup5\n        /* \"#utility.yul\":4806:4812   */\n      dup3\n        /* \"#utility.yul\":4795:4804   */\n      dup6\n        /* \"#utility.yul\":4791:4813   */\n      add\n        /* \"#utility.yul\":4770:4823   */\n      tag_104\n      jump\t// in\n    tag_176:\n        /* \"#utility.yul\":4760:4823   */\n      swap2\n      pop\n        /* \"#utility.yul\":4716:4833   */\n      pop\n        /* \"#utility.yul\":4511:4840   */\n      swap3\n      swap2\n      pop\n      pop\n      jump\t// out\n        /* \"#utility.yul\":4846:4961   */\n    tag_105:\n        /* \"#utility.yul\":4931:4954   */\n      tag_178\n        /* \"#utility.yul\":4948:4953   */\n      dup2\n        /* \"#utility.yul\":4931:4954   */\n      tag_90\n      jump\t// in\n    tag_178:\n        /* \"#utility.yul\":4926:4929   */\n      dup3\n        /* \"#utility.yul\":4919:4955   */\n      mstore\n        /* \"#utility.yul\":4846:4961   */\n      pop\n      pop\n      jump\t// out\n        /* \"#utility.yul\":4967:5185   */\n    tag_48:\n        /* \"#utility.yul\":5058:5062   */\n      0x00\n        /* \"#utility.yul\":5096:5098   */\n      0x20\n        /* \"#utility.yul\":5085:5094   */\n      dup3\n        /* \"#utility.yul\":5081:5099   */\n      add\n        /* \"#utility.yul\":5073:5099   */\n      swap1\n      pop\n        /* \"#utility.yul\":5109:5178   */\n      tag_180\n        /* \"#utility.yul\":5175:5176   */\n      0x00\n        /* \"#utility.yul\":5164:5173   */\n      dup4\n        /* \"#utility.yul\":5160:5177   */\n      add\n        /* \"#utility.yul\":5151:5157   */\n      dup5\n        /* \"#utility.yul\":5109:5178   */\n      tag_105\n      jump\t// in\n    tag_180:\n        /* \"#utility.yul\":4967:5185   */\n      swap3\n      swap2\n      pop\n      pop\n      jump\t// out\n        /* \"#utility.yul\":5191:5369   */\n    tag_106:\n        /* \"#utility.yul\":5331:5361   */\n      0x596f7520646f6e2774206861766520656e6f7567682065746865722e00000000\n        /* \"#utility.yul\":5327:5328   */\n      0x00\n        /* \"#utility.yul\":5319:5325   */\n      dup3\n        /* \"#utility.yul\":5315:5329   */\n      add\n        /* \"#utility.yul\":5308:5362   */\n      mstore\n        /* \"#utility.yul\":5191:5369   */\n      pop\n      jump\t// out\n        /* \"#utility.yul\":5375:5741   */\n    tag_107:\n        /* \"#utility.yul\":5517:5520   */\n      0x00\n        /* \"#utility.yul\":5538:5605   */\n      tag_183\n        /* \"#utility.yul\":5602:5604   */\n      0x1c\n        /* \"#utility.yul\":5597:5600   */\n      dup4\n        /* \"#utility.yul\":5538:5605   */\n      tag_99\n      jump\t// in\n    tag_183:\n        /* \"#utility.yul\":5531:5605   */\n      swap2\n      pop\n        /* \"#utility.yul\":5614:5707   */\n      tag_184\n        /* \"#utility.yul\":5703:5706   */\n      dup3\n        /* \"#utility.yul\":5614:5707   */\n      tag_106\n      jump\t// in\n    tag_184:\n        /* \"#utility.yul\":5732:5734   */\n      0x20\n        /* \"#utility.yul\":5727:5730   */\n      dup3\n        /* \"#utility.yul\":5723:5735   */\n      add\n        /* \"#utility.yul\":5716:5735   */\n      swap1\n      pop\n        /* \"#utility.yul\":5375:5741   */\n      swap2\n      swap1\n      pop\n      jump\t// out\n        /* \"#utility.yul\":5747:6166   */\n    tag_52:\n        /* \"#utility.yul\":5913:5917   */\n      0x00\n        /* \"#utility.yul\":5951:5953   */\n      0x20\n        /* \"#utility.yul\":5940:5949   */\n      dup3\n        /* \"#utility.yul\":5936:5954   */\n      add\n        /* \"#utility.yul\":5928:5954   */\n      swap1\n      pop\n        /* \"#utility.yul\":6000:6009   */\n      dup2\n        /* \"#utility.yul\":5994:5998   */\n      dup2\n        /* \"#utility.yul\":5990:6010   */\n      sub\n        /* \"#utility.yul\":5986:5987   */\n      0x00\n        /* \"#utility.yul\":5975:5984   */\n      dup4\n        /* \"#utility.yul\":5971:5988   */\n      add\n        /* \"#utility.yul\":5964:6011   */\n      mstore\n        /* \"#utility.yul\":6028:6159   */\n      tag_186\n        /* \"#utility.yul\":6154:6158   */\n      dup2\n        /* \"#utility.yul\":6028:6159   */\n      tag_107\n      jump\t// in\n    tag_186:\n        /* \"#utility.yul\":6020:6159   */\n      swap1\n      pop\n        /* \"#utility.yul\":5747:6166   */\n      swap2\n      swap1\n      pop\n      jump\t// out\n        /* \"#utility.yul\":6172:6352   */\n    tag_108:\n        /* \"#utility.yul\":6220:6297   */\n      0x4e487b7100000000000000000000000000000000000000000000000000000000\n        /* \"#utility.yul\":6217:6218   */\n      0x00\n        /* \"#utility.yul\":6210:6298   */\n      mstore\n        /* \"#utility.yul\":6317:6321   */\n      0x11\n        /* \"#utility.yul\":6314:6315   */\n      0x04\n        /* \"#utility.yul\":6307:6322   */\n      mstore\n        /* \"#utility.yul\":6341:6345   */\n      0x24\n        /* \"#utility.yul\":6338:6339   */\n      0x00\n        /* \"#utility.yul\":6331:6346   */\n      revert\n        /* \"#utility.yul\":6358:6566   */\n    tag_54:\n        /* \"#utility.yul\":6397:6401   */\n      0x00\n        /* \"#utility.yul\":6417:6436   */\n      tag_189\n        /* \"#utility.yul\":6434:6435   */\n      dup3\n        /* \"#utility.yul\":6417:6436   */\n      tag_90\n      jump\t// in\n    tag_189:\n        /* \"#utility.yul\":6412:6436   */\n      swap2\n      pop\n        /* \"#utility.yul\":6450:6469   */\n      tag_190\n        /* \"#utility.yul\":6467:6468   */\n      dup4\n        /* \"#utility.yul\":6450:6469   */\n      tag_90\n      jump\t// in\n    tag_190:\n        /* \"#utility.yul\":6445:6469   */\n      swap3\n      pop\n        /* \"#utility.yul\":6493:6494   */\n      dup3\n        /* \"#utility.yul\":6490:6491   */\n      dup3\n        /* \"#utility.yul\":6486:6495   */\n      sub\n        /* \"#utility.yul\":6478:6495   */\n      swap1\n      pop\n        /* \"#utility.yul\":6517:6535   */\n      0xffffffffffffffff\n        /* \"#utility.yul\":6511:6515   */\n      dup2\n        /* \"#utility.yul\":6508:6536   */\n      gt\n        /* \"#utility.yul\":6505:6559   */\n      iszero\n      tag_191\n      jumpi\n        /* \"#utility.yul\":6539:6557   */\n      tag_192\n      tag_108\n      jump\t// in\n    tag_192:\n        /* \"#utility.yul\":6505:6559   */\n    tag_191:\n        /* \"#utility.yul\":6358:6566   */\n      swap3\n      swap2\n      pop\n      pop\n      jump\t// out\n        /* \"#utility.yul\":6572:6752   */\n    tag_57:\n        /* \"#utility.yul\":6620:6697   */\n      0x4e487b7100000000000000000000000000000000000000000000000000000000\n        /* \"#utility.yul\":6617:6618   */\n      0x00\n        /* \"#utility.yul\":6610:6698   */\n      mstore\n        /* \"#utility.yul\":6717:6721   */\n      0x01\n        /* \"#utility.yul\":6714:6715   */\n      0x04\n        /* \"#utility.yul\":6707:6722   */\n      mstore\n        /* \"#utility.yul\":6741:6745   */\n      0x24\n        /* \"#utility.yul\":6738:6739   */\n      0x00\n        /* \"#utility.yul\":6731:6746   */\n      revert\n        /* \"#utility.yul\":6758:6930   */\n    tag_109:\n        /* \"#utility.yul\":6898:6922   */\n      0x496e707574206d75737420626520657175616c20313000000000000000000000\n        /* \"#utility.yul\":6894:6895   */\n      0x00\n        /* \"#utility.yul\":6886:6892   */\n      dup3\n        /* \"#utility.yul\":6882:6896   */\n      add\n        /* \"#utility.yul\":6875:6923   */\n      mstore\n        /* \"#utility.yul\":6758:6930   */\n      pop\n      jump\t// out\n        /* \"#utility.yul\":6936:7302   */\n    tag_110:\n        /* \"#utility.yul\":7078:7081   */\n      0x00\n        /* \"#utility.yul\":7099:7166   */\n      tag_196\n        /* \"#utility.yul\":7163:7165   */\n      0x16\n        /* \"#utility.yul\":7158:7161   */\n      dup4\n        /* \"#utility.yul\":7099:7166   */\n      tag_99\n      jump\t// in\n    tag_196:\n        /* \"#utility.yul\":7092:7166   */\n      swap2\n      pop\n        /* \"#utility.yul\":7175:7268   */\n      tag_197\n        /* \"#utility.yul\":7264:7267   */\n      dup3\n        /* \"#utility.yul\":7175:7268   */\n      tag_109\n      jump\t// in\n    tag_197:\n        /* \"#utility.yul\":7293:7295   */\n      0x20\n        /* \"#utility.yul\":7288:7291   */\n      dup3\n        /* \"#utility.yul\":7284:7296   */\n      add\n        /* \"#utility.yul\":7277:7296   */\n      swap1\n      pop\n        /* \"#utility.yul\":6936:7302   */\n      swap2\n      swap1\n      pop\n      jump\t// out\n        /* \"#utility.yul\":7308:7727   */\n    tag_65:\n        /* \"#utility.yul\":7474:7478   */\n      0x00\n        /* \"#utility.yul\":7512:7514   */\n      0x20\n        /* \"#utility.yul\":7501:7510   */\n      dup3\n        /* \"#utility.yul\":7497:7515   */\n      add\n        /* \"#utility.yul\":7489:7515   */\n      swap1\n      pop\n        /* \"#utility.yul\":7561:7570   */\n      dup2\n        /* \"#utility.yul\":7555:7559   */\n      dup2\n        /* \"#utility.yul\":7551:7571   */\n      sub\n        /* \"#utility.yul\":7547:7548   */\n      0x00\n        /* \"#utility.yul\":7536:7545   */\n      dup4\n        /* \"#utility.yul\":7532:7549   */\n      add\n        /* \"#utility.yul\":7525:7572   */\n      mstore\n        /* \"#utility.yul\":7589:7720   */\n      tag_199\n        /* \"#utility.yul\":7715:7719   */\n      dup2\n        /* \"#utility.yul\":7589:7720   */\n      tag_110\n      jump\t// in\n    tag_199:\n        /* \"#utility.yul\":7581:7720   */\n      swap1\n      pop\n        /* \"#utility.yul\":7308:7727   */\n      swap2\n      swap1\n      pop\n      jump\t// out\n        /* \"#utility.yul\":7733:7938   */\n    tag_71:\n        /* \"#utility.yul\":7772:7775   */\n      0x00\n        /* \"#utility.yul\":7791:7810   */\n      tag_201\n        /* \"#utility.yul\":7808:7809   */\n      dup3\n        /* \"#utility.yul\":7791:7810   */\n      tag_90\n      jump\t// in\n    tag_201:\n        /* \"#utility.yul\":7786:7810   */\n      swap2\n      pop\n        /* \"#utility.yul\":7824:7843   */\n      tag_202\n        /* \"#utility.yul\":7841:7842   */\n      dup4\n        /* \"#utility.yul\":7824:7843   */\n      tag_90\n      jump\t// in\n    tag_202:\n        /* \"#utility.yul\":7819:7843   */\n      swap3\n      pop\n        /* \"#utility.yul\":7866:7867   */\n      dup3\n        /* \"#utility.yul\":7863:7864   */\n      dup3\n        /* \"#utility.yul\":7859:7868   */\n      add\n        /* \"#utility.yul\":7852:7868   */\n      swap1\n      pop\n        /* \"#utility.yul\":7889:7907   */\n      0xffffffffffffffff\n        /* \"#utility.yul\":7884:7887   */\n      dup2\n        /* \"#utility.yul\":7881:7908   */\n      gt\n        /* \"#utility.yul\":7878:7931   */\n      iszero\n      tag_203\n      jumpi\n        /* \"#utility.yul\":7911:7929   */\n      tag_204\n      tag_108\n      jump\t// in\n    tag_204:\n        /* \"#utility.yul\":7878:7931   */\n    tag_203:\n        /* \"#utility.yul\":7733:7938   */\n      swap3\n      swap2\n      pop\n      pop\n      jump\t// out\n        /* \"#utility.yul\":7944:8108   */\n    tag_111:\n        /* \"#utility.yul\":8084:8100   */\n      0x72657175697265206661696c6564000000000000000000000000000000000000\n        /* \"#utility.yul\":8080:8081   */\n      0x00\n        /* \"#utility.yul\":8072:8078   */\n      dup3\n        /* \"#utility.yul\":8068:8082   */\n      add\n        /* \"#utility.yul\":8061:8101   */\n      mstore\n        /* \"#utility.yul\":7944:8108   */\n      pop\n      jump\t// out\n        /* \"#utility.yul\":8114:8480   */\n    tag_112:\n        /* \"#utility.yul\":8256:8259   */\n      0x00\n        /* \"#utility.yul\":8277:8344   */\n      tag_207\n        /* \"#utility.yul\":8341:8343   */\n      0x0e\n        /* \"#utility.yul\":8336:8339   */\n      dup4\n        /* \"#utility.yul\":8277:8344   */\n      tag_99\n      jump\t// in\n    tag_207:\n        /* \"#utility.yul\":8270:8344   */\n      swap2\n      pop\n        /* \"#utility.yul\":8353:8446   */\n      tag_208\n        /* \"#utility.yul\":8442:8445   */\n      dup3\n        /* \"#utility.yul\":8353:8446   */\n      tag_111\n      jump\t// in\n    tag_208:\n        /* \"#utility.yul\":8471:8473   */\n      0x20\n        /* \"#utility.yul\":8466:8469   */\n      dup3\n        /* \"#utility.yul\":8462:8474   */\n      add\n        /* \"#utility.yul\":8455:8474   */\n      swap1\n      pop\n        /* \"#utility.yul\":8114:8480   */\n      swap2\n      swap1\n      pop\n      jump\t// out\n        /* \"#utility.yul\":8486:8905   */\n    tag_78:\n        /* \"#utility.yul\":8652:8656   */\n      0x00\n        /* \"#utility.yul\":8690:8692   */\n      0x20\n        /* \"#utility.yul\":8679:8688   */\n      dup3\n        /* \"#utility.yul\":8675:8693   */\n      add\n        /* \"#utility.yul\":8667:8693   */\n      swap1\n      pop\n        /* \"#utility.yul\":8739:8748   */\n      dup2\n        /* \"#utility.yul\":8733:8737   */\n      dup2\n        /* \"#utility.yul\":8729:8749   */\n      sub\n        /* \"#utility.yul\":8725:8726   */\n      0x00\n        /* \"#utility.yul\":8714:8723   */\n      dup4\n        /* \"#utility.yul\":8710:8727   */\n      add\n        /* \"#utility.yul\":8703:8750   */\n      mstore\n        /* \"#utility.yul\":8767:8898   */\n      tag_210\n        /* \"#utility.yul\":8893:8897   */\n      dup2\n        /* \"#utility.yul\":8767:8898   */\n      tag_112\n      jump\t// in\n    tag_210:\n        /* \"#utility.yul\":8759:8898   */\n      swap1\n      pop\n        /* \"#utility.yul\":8486:8905   */\n      swap2\n      swap1\n      pop\n      jump\t// out\n        /* \"#utility.yul\":8911:9090   */\n    tag_113:\n        /* \"#utility.yul\":9051:9082   */\n      0x496e707574206d7573742062652067726561746572207468616e203130000000\n        /* \"#utility.yul\":9047:9048   */\n      0x00\n        /* \"#utility.yul\":9039:9045   */\n      dup3\n        /* \"#utility.yul\":9035:9049   */\n      add\n        /* \"#utility.yul\":9028:9083   */\n      mstore\n        /* \"#utility.yul\":8911:9090   */\n      pop\n      jump\t// out\n        /* \"#utility.yul\":9096:9462   */\n    tag_114:\n        /* \"#utility.yul\":9238:9241   */\n      0x00\n        /* \"#utility.yul\":9259:9326   */\n      tag_213\n        /* \"#utility.yul\":9323:9325   */\n      0x1d\n        /* \"#utility.yul\":9318:9321   */\n      dup4\n        /* \"#utility.yul\":9259:9326   */\n      tag_99\n      jump\t// in\n    tag_213:\n        /* \"#utility.yul\":9252:9326   */\n      swap2\n      pop\n        /* \"#utility.yul\":9335:9428   */\n      tag_214\n        /* \"#utility.yul\":9424:9427   */\n      dup3\n        /* \"#utility.yul\":9335:9428   */\n      tag_113\n      jump\t// in\n    tag_214:\n        /* \"#utility.yul\":9453:9455   */\n      0x20\n        /* \"#utility.yul\":9448:9451   */\n      dup3\n        /* \"#utility.yul\":9444:9456   */\n      add\n        /* \"#utility.yul\":9437:9456   */\n      swap1\n      pop\n        /* \"#utility.yul\":9096:9462   */\n      swap2\n      swap1\n      pop\n      jump\t// out\n        /* \"#utility.yul\":9468:9887   */\n    tag_82:\n        /* \"#utility.yul\":9634:9638   */\n      0x00\n        /* \"#utility.yul\":9672:9674   */\n      0x20\n        /* \"#utility.yul\":9661:9670   */\n      dup3\n        /* \"#utility.yul\":9657:9675   */\n      add\n        /* \"#utility.yul\":9649:9675   */\n      swap1\n      pop\n        /* \"#utility.yul\":9721:9730   */\n      dup2\n        /* \"#utility.yul\":9715:9719   */\n      dup2\n        /* \"#utility.yul\":9711:9731   */\n      sub\n        /* \"#utility.yul\":9707:9708   */\n      0x00\n        /* \"#utility.yul\":9696:9705   */\n      dup4\n        /* \"#utility.yul\":9692:9709   */\n      add\n        /* \"#utility.yul\":9685:9732   */\n      mstore\n        /* \"#utility.yul\":9749:9880   */\n      tag_216\n        /* \"#utility.yul\":9875:9879   */\n      dup2\n        /* \"#utility.yul\":9749:9880   */\n      tag_114\n      jump\t// in\n    tag_216:\n        /* \"#utility.yul\":9741:9880   */\n      swap1\n      pop\n        /* \"#utility.yul\":9468:9887   */\n      swap2\n      swap1\n      pop\n      jump\t// out\n\n    auxdata: 0xa2646970667358221220128448aa546d5b078ae52851989997904cbc1f7dd29a1438347b3b17f4d9bc8964736f6c63430008120033\n}\n",
				"bytecode": {
					"linkReferences": {},
					"object": "60806040523480156200001157600080fd5b5060405162000e9438038062000e9483398181016040528101906200003791906200015b565b600073ffffffffffffffffffffffffffffffffffffffff168173ffffffffffffffffffffffffffffffffffffffff1603620000a9576040517f08c379a0000000000000000000000000000000000000000000000000000000008152600401620000a090620001ee565b60405180910390fd5b80600160006101000a81548173ffffffffffffffffffffffffffffffffffffffff021916908373ffffffffffffffffffffffffffffffffffffffff1602179055505062000210565b600080fd5b600073ffffffffffffffffffffffffffffffffffffffff82169050919050565b60006200012382620000f6565b9050919050565b620001358162000116565b81146200014157600080fd5b50565b60008151905062000155816200012a565b92915050565b600060208284031215620001745762000173620000f1565b5b6000620001848482850162000144565b91505092915050565b600082825260208201905092915050565b7f496e76616c696420616464726573730000000000000000000000000000000000600082015250565b6000620001d6600f836200018d565b9150620001e3826200019e565b602082019050919050565b600060208201905081810360008301526200020981620001c7565b9050919050565b610c7480620002206000396000f3fe60806040526004361061007b5760003560e01c80638da5cb5b1161004e5780638da5cb5b14610105578063a9bf563314610130578063b8bd717f1461016d578063d18a42e1146101965761007b565b80630ad19aeb1461008057806320987767146100a9578063246ce3f9146100d25780636d26ec18146100fb575b600080fd5b34801561008c57600080fd5b506100a760048036038101906100a291906107a4565b6101d3565b005b3480156100b557600080fd5b506100d060048036038101906100cb919061081a565b61042c565b005b3480156100de57600080fd5b506100f960048036038101906100f4919061081a565b61047b565b005b61010361048f565b005b34801561011157600080fd5b5061011a6105ec565b6040516101279190610868565b60405180910390f35b34801561013c57600080fd5b506101576004803603810190610152919061081a565b610612565b6040516101649190610913565b60405180910390f35b34801561017957600080fd5b50610194600480360381019061018f919061081a565b610694565b005b3480156101a257600080fd5b506101bd60048036038101906101b89190610961565b6106da565b6040516101ca919061099d565b60405180910390f35b8067ffffffffffffffff166000803373ffffffffffffffffffffffffffffffffffffffff1673ffffffffffffffffffffffffffffffffffffffff16815260200190815260200160002060009054906101000a900467ffffffffffffffff1667ffffffffffffffff16101561027c576040517f08c379a000000000000000000000000000000000000000000000000000000000815260040161027390610a04565b60405180910390fd5b806000803373ffffffffffffffffffffffffffffffffffffffff1673ffffffffffffffffffffffffffffffffffffffff16815260200190815260200160002060009054906101000a900467ffffffffffffffff166102da9190610a53565b67ffffffffffffffff166000803373ffffffffffffffffffffffffffffffffffffffff1673ffffffffffffffffffffffffffffffffffffffff16815260200190815260200160002060009054906101000a900467ffffffffffffffff1667ffffffffffffffff1610156103505761034f610a8f565b5b806000803373ffffffffffffffffffffffffffffffffffffffff1673ffffffffffffffffffffffffffffffffffffffff16815260200190815260200160002060008282829054906101000a900467ffffffffffffffff166103b19190610a53565b92506101000a81548167ffffffffffffffff021916908367ffffffffffffffff1602179055508173ffffffffffffffffffffffffffffffffffffffff166108fc8267ffffffffffffffff169081150290604051600060405180830381858888f19350505050158015610427573d6000803e3d6000fd5b505050565b600a811161047857600a8114610477576040517f08c379a000000000000000000000000000000000000000000000000000000000815260040161046e90610b0a565b60405180910390fd5b5b50565b6000811461048c5761048b610a8f565b5b50565b6000803373ffffffffffffffffffffffffffffffffffffffff1673ffffffffffffffffffffffffffffffffffffffff16815260200190815260200160002060009054906101000a900467ffffffffffffffff1667ffffffffffffffff16346000803373ffffffffffffffffffffffffffffffffffffffff1673ffffffffffffffffffffffffffffffffffffffff16815260200190815260200160002060009054906101000a900467ffffffffffffffff1661054a9190610b2a565b67ffffffffffffffff16101561056357610562610a8f565b5b346000803373ffffffffffffffffffffffffffffffffffffffff1673ffffffffffffffffffffffffffffffffffffffff16815260200190815260200160002060008282829054906101000a900467ffffffffffffffff166105c49190610b2a565b92506101000a81548167ffffffffffffffff021916908367ffffffffffffffff160217905550565b600160009054906101000a900473ffffffffffffffffffffffffffffffffffffffff1681565b606060008203610657576040517f08c379a000000000000000000000000000000000000000000000000000000000815260040161064e90610bb2565b60405180910390fd5b6040518060400160405280601381526020017f6d792066756e63207765732063616c6c65642e000000000000000000000000008152509050919050565b600a81116106d7576040517f08c379a00000000000000000000000000000000000000000000000000000000081526004016106ce90610c1e565b60405180910390fd5b50565b60006020528060005260406000206000915054906101000a900467ffffffffffffffff1681565b600080fd5b600073ffffffffffffffffffffffffffffffffffffffff82169050919050565b600061073182610706565b9050919050565b61074181610726565b811461074c57600080fd5b50565b60008135905061075e81610738565b92915050565b600067ffffffffffffffff82169050919050565b61078181610764565b811461078c57600080fd5b50565b60008135905061079e81610778565b92915050565b600080604083850312156107bb576107ba610701565b5b60006107c98582860161074f565b92505060206107da8582860161078f565b9150509250929050565b6000819050919050565b6107f7816107e4565b811461080257600080fd5b50565b600081359050610814816107ee565b92915050565b6000602082840312156108305761082f610701565b5b600061083e84828501610805565b91505092915050565b600061085282610706565b9050919050565b61086281610847565b82525050565b600060208201905061087d6000830184610859565b92915050565b600081519050919050565b600082825260208201905092915050565b60005b838110156108bd5780820151818401526020810190506108a2565b60008484015250505050565b6000601f19601f8301169050919050565b60006108e582610883565b6108ef818561088e565b93506108ff81856020860161089f565b610908816108c9565b840191505092915050565b6000602082019050818103600083015261092d81846108da565b905092915050565b61093e81610847565b811461094957600080fd5b50565b60008135905061095b81610935565b92915050565b60006020828403121561097757610976610701565b5b60006109858482850161094c565b91505092915050565b61099781610764565b82525050565b60006020820190506109b2600083018461098e565b92915050565b7f596f7520646f6e2774206861766520656e6f7567682065746865722e00000000600082015250565b60006109ee601c8361088e565b91506109f9826109b8565b602082019050919050565b60006020820190508181036000830152610a1d816109e1565b9050919050565b7f4e487b7100000000000000000000000000000000000000000000000000000000600052601160045260246000fd5b6000610a5e82610764565b9150610a6983610764565b9250828203905067ffffffffffffffff811115610a8957610a88610a24565b5b92915050565b7f4e487b7100000000000000000000000000000000000000000000000000000000600052600160045260246000fd5b7f496e707574206d75737420626520657175616c20313000000000000000000000600082015250565b6000610af460168361088e565b9150610aff82610abe565b602082019050919050565b60006020820190508181036000830152610b2381610ae7565b9050919050565b6000610b3582610764565b9150610b4083610764565b9250828201905067ffffffffffffffff811115610b6057610b5f610a24565b5b92915050565b7f72657175697265206661696c6564000000000000000000000000000000000000600082015250565b6000610b9c600e8361088e565b9150610ba782610b66565b602082019050919050565b60006020820190508181036000830152610bcb81610b8f565b9050919050565b7f496e707574206d7573742062652067726561746572207468616e203130000000600082015250565b6000610c08601d8361088e565b9150610c1382610bd2565b602082019050919050565b60006020820190508181036000830152610c3781610bfb565b905091905056fea2646970667358221220128448aa546d5b078ae52851989997904cbc1f7dd29a1438347b3b17f4d9bc8964736f6c63430008120033",
					"opcodes": "PUSH1 0x80 PUSH1 0x40 MSTORE CALLVALUE DUP1 ISZERO PUSH3 0x11 JUMPI PUSH1 0x0 DUP1 REVERT JUMPDEST POP PUSH1 0x40 MLOAD PUSH3 0xE94 CODESIZE SUB DUP1 PUSH3 0xE94 DUP4 CODECOPY DUP2 DUP2 ADD PUSH1 0x40 MSTORE DUP2 ADD SWAP1 PUSH3 0x37 SWAP2 SWAP1 PUSH3 0x15B JUMP JUMPDEST PUSH1 0x0 PUSH20 0xFFFFFFFFFFFFFFFFFFFFFFFFFFFFFFFFFFFFFFFF AND DUP2 PUSH20 0xFFFFFFFFFFFFFFFFFFFFFFFFFFFFFFFFFFFFFFFF AND SUB PUSH3 0xA9 JUMPI PUSH1 0x40 MLOAD PUSH32 0x8C379A000000000000000000000000000000000000000000000000000000000 DUP2 MSTORE PUSH1 0x4 ADD PUSH3 0xA0 SWAP1 PUSH3 0x1EE JUMP JUMPDEST PUSH1 0x40 MLOAD DUP1 SWAP2 SUB SWAP1 REVERT JUMPDEST DUP1 PUSH1 0x1 PUSH1 0x0 PUSH2 0x100 EXP DUP2 SLOAD DUP2 PUSH20 0xFFFFFFFFFFFFFFFFFFFFFFFFFFFFFFFFFFFFFFFF MUL NOT AND SWAP1 DUP4 PUSH20 0xFFFFFFFFFFFFFFFFFFFFFFFFFFFFFFFFFFFFFFFF AND MUL OR SWAP1 SSTORE POP POP PUSH3 0x210 JUMP JUMPDEST PUSH1 0x0 DUP1 REVERT JUMPDEST PUSH1 0x0 PUSH20 0xFFFFFFFFFFFFFFFFFFFFFFFFFFFFFFFFFFFFFFFF DUP3 AND SWAP1 POP SWAP2 SWAP1 POP JUMP JUMPDEST PUSH1 0x0 PUSH3 0x123 DUP3 PUSH3 0xF6 JUMP JUMPDEST SWAP1 POP SWAP2 SWAP1 POP JUMP JUMPDEST PUSH3 0x135 DUP2 PUSH3 0x116 JUMP JUMPDEST DUP2 EQ PUSH3 0x141 JUMPI PUSH1 0x0 DUP1 REVERT JUMPDEST POP JUMP JUMPDEST PUSH1 0x0 DUP2 MLOAD SWAP1 POP PUSH3 0x155 DUP2 PUSH3 0x12A JUMP JUMPDEST SWAP3 SWAP2 POP POP JUMP JUMPDEST PUSH1 0x0 PUSH1 0x20 DUP3 DUP5 SUB SLT ISZERO PUSH3 0x174 JUMPI PUSH3 0x173 PUSH3 0xF1 JUMP JUMPDEST JUMPDEST PUSH1 0x0 PUSH3 0x184 DUP5 DUP3 DUP6 ADD PUSH3 0x144 JUMP JUMPDEST SWAP2 POP POP SWAP3 SWAP2 POP POP JUMP JUMPDEST PUSH1 0x0 DUP3 DUP3 MSTORE PUSH1 0x20 DUP3 ADD SWAP1 POP SWAP3 SWAP2 POP POP JUMP JUMPDEST PUSH32 0x496E76616C696420616464726573730000000000000000000000000000000000 PUSH1 0x0 DUP3 ADD MSTORE POP JUMP JUMPDEST PUSH1 0x0 PUSH3 0x1D6 PUSH1 0xF DUP4 PUSH3 0x18D JUMP JUMPDEST SWAP2 POP PUSH3 0x1E3 DUP3 PUSH3 0x19E JUMP JUMPDEST PUSH1 0x20 DUP3 ADD SWAP1 POP SWAP2 SWAP1 POP JUMP JUMPDEST PUSH1 0x0 PUSH1 0x20 DUP3 ADD SWAP1 POP DUP2 DUP2 SUB PUSH1 0x0 DUP4 ADD MSTORE PUSH3 0x209 DUP2 PUSH3 0x1C7 JUMP JUMPDEST SWAP1 POP SWAP2 SWAP1 POP JUMP JUMPDEST PUSH2 0xC74 DUP1 PUSH3 0x220 PUSH1 0x0 CODECOPY PUSH1 0x0 RETURN INVALID PUSH1 0x80 PUSH1 0x40 MSTORE PUSH1 0x4 CALLDATASIZE LT PUSH2 0x7B JUMPI PUSH1 0x0 CALLDATALOAD PUSH1 0xE0 SHR DUP1 PUSH4 0x8DA5CB5B GT PUSH2 0x4E JUMPI DUP1 PUSH4 0x8DA5CB5B EQ PUSH2 0x105 JUMPI DUP1 PUSH4 0xA9BF5633 EQ PUSH2 0x130 JUMPI DUP1 PUSH4 0xB8BD717F EQ PUSH2 0x16D JUMPI DUP1 PUSH4 0xD18A42E1 EQ PUSH2 0x196 JUMPI PUSH2 0x7B JUMP JUMPDEST DUP1 PUSH4 0xAD19AEB EQ PUSH2 0x80 JUMPI DUP1 PUSH4 0x20987767 EQ PUSH2 0xA9 JUMPI DUP1 PUSH4 0x246CE3F9 EQ PUSH2 0xD2 JUMPI DUP1 PUSH4 0x6D26EC18 EQ PUSH2 0xFB JUMPI JUMPDEST PUSH1 0x0 DUP1 REVERT JUMPDEST CALLVALUE DUP1 ISZERO PUSH2 0x8C JUMPI PUSH1 0x0 DUP1 REVERT JUMPDEST POP PUSH2 0xA7 PUSH1 0x4 DUP1 CALLDATASIZE SUB DUP2 ADD SWAP1 PUSH2 0xA2 SWAP2 SWAP1 PUSH2 0x7A4 JUMP JUMPDEST PUSH2 0x1D3 JUMP JUMPDEST STOP JUMPDEST CALLVALUE DUP1 ISZERO PUSH2 0xB5 JUMPI PUSH1 0x0 DUP1 REVERT JUMPDEST POP PUSH2 0xD0 PUSH1 0x4 DUP1 CALLDATASIZE SUB DUP2 ADD SWAP1 PUSH2 0xCB SWAP2 SWAP1 PUSH2 0x81A JUMP JUMPDEST PUSH2 0x42C JUMP JUMPDEST STOP JUMPDEST CALLVALUE DUP1 ISZERO PUSH2 0xDE JUMPI PUSH1 0x0 DUP1 REVERT JUMPDEST POP PUSH2 0xF9 PUSH1 0x4 DUP1 CALLDATASIZE SUB DUP2 ADD SWAP1 PUSH2 0xF4 SWAP2 SWAP1 PUSH2 0x81A JUMP JUMPDEST PUSH2 0x47B JUMP JUMPDEST STOP JUMPDEST PUSH2 0x103 PUSH2 0x48F JUMP JUMPDEST STOP JUMPDEST CALLVALUE DUP1 ISZERO PUSH2 0x111 JUMPI PUSH1 0x0 DUP1 REVERT JUMPDEST POP PUSH2 0x11A PUSH2 0x5EC JUMP JUMPDEST PUSH1 0x40 MLOAD PUSH2 0x127 SWAP2 SWAP1 PUSH2 0x868 JUMP JUMPDEST PUSH1 0x40 MLOAD DUP1 SWAP2 SUB SWAP1 RETURN JUMPDEST CALLVALUE DUP1 ISZERO PUSH2 0x13C JUMPI PUSH1 0x0 DUP1 REVERT JUMPDEST POP PUSH2 0x157 PUSH1 0x4 DUP1 CALLDATASIZE SUB DUP2 ADD SWAP1 PUSH2 0x152 SWAP2 SWAP1 PUSH2 0x81A JUMP JUMPDEST PUSH2 0x612 JUMP JUMPDEST PUSH1 0x40 MLOAD PUSH2 0x164 SWAP2 SWAP1 PUSH2 0x913 JUMP JUMPDEST PUSH1 0x40 MLOAD DUP1 SWAP2 SUB SWAP1 RETURN JUMPDEST CALLVALUE DUP1 ISZERO PUSH2 0x179 JUMPI PUSH1 0x0 DUP1 REVERT JUMPDEST POP PUSH2 0x194 PUSH1 0x4 DUP1 CALLDATASIZE SUB DUP2 ADD SWAP1 PUSH2 0x18F SWAP2 SWAP1 PUSH2 0x81A JUMP JUMPDEST PUSH2 0x694 JUMP JUMPDEST STOP JUMPDEST CALLVALUE DUP1 ISZERO PUSH2 0x1A2 JUMPI PUSH1 0x0 DUP1 REVERT JUMPDEST POP PUSH2 0x1BD PUSH1 0x4 DUP1 CALLDATASIZE SUB DUP2 ADD SWAP1 PUSH2 0x1B8 SWAP2 SWAP1 PUSH2 0x961 JUMP JUMPDEST PUSH2 0x6DA JUMP JUMPDEST PUSH1 0x40 MLOAD PUSH2 0x1CA SWAP2 SWAP1 PUSH2 0x99D JUMP JUMPDEST PUSH1 0x40 MLOAD DUP1 SWAP2 SUB SWAP1 RETURN JUMPDEST DUP1 PUSH8 0xFFFFFFFFFFFFFFFF AND PUSH1 0x0 DUP1 CALLER PUSH20 0xFFFFFFFFFFFFFFFFFFFFFFFFFFFFFFFFFFFFFFFF AND PUSH20 0xFFFFFFFFFFFFFFFFFFFFFFFFFFFFFFFFFFFFFFFF AND DUP2 MSTORE PUSH1 0x20 ADD SWAP1 DUP2 MSTORE PUSH1 0x20 ADD PUSH1 0x0 KECCAK256 PUSH1 0x0 SWAP1 SLOAD SWAP1 PUSH2 0x100 EXP SWAP1 DIV PUSH8 0xFFFFFFFFFFFFFFFF AND PUSH8 0xFFFFFFFFFFFFFFFF AND LT ISZERO PUSH2 0x27C JUMPI PUSH1 0x40 MLOAD PUSH32 0x8C379A000000000000000000000000000000000000000000000000000000000 DUP2 MSTORE PUSH1 0x4 ADD PUSH2 0x273 SWAP1 PUSH2 0xA04 JUMP JUMPDEST PUSH1 0x40 MLOAD DUP1 SWAP2 SUB SWAP1 REVERT JUMPDEST DUP1 PUSH1 0x0 DUP1 CALLER PUSH20 0xFFFFFFFFFFFFFFFFFFFFFFFFFFFFFFFFFFFFFFFF AND PUSH20 0xFFFFFFFFFFFFFFFFFFFFFFFFFFFFFFFFFFFFFFFF AND DUP2 MSTORE PUSH1 0x20 ADD SWAP1 DUP2 MSTORE PUSH1 0x20 ADD PUSH1 0x0 KECCAK256 PUSH1 0x0 SWAP1 SLOAD SWAP1 PUSH2 0x100 EXP SWAP1 DIV PUSH8 0xFFFFFFFFFFFFFFFF AND PUSH2 0x2DA SWAP2 SWAP1 PUSH2 0xA53 JUMP JUMPDEST PUSH8 0xFFFFFFFFFFFFFFFF AND PUSH1 0x0 DUP1 CALLER PUSH20 0xFFFFFFFFFFFFFFFFFFFFFFFFFFFFFFFFFFFFFFFF AND PUSH20 0xFFFFFFFFFFFFFFFFFFFFFFFFFFFFFFFFFFFFFFFF AND DUP2 MSTORE PUSH1 0x20 ADD SWAP1 DUP2 MSTORE PUSH1 0x20 ADD PUSH1 0x0 KECCAK256 PUSH1 0x0 SWAP1 SLOAD SWAP1 PUSH2 0x100 EXP SWAP1 DIV PUSH8 0xFFFFFFFFFFFFFFFF AND PUSH8 0xFFFFFFFFFFFFFFFF AND LT ISZERO PUSH2 0x350 JUMPI PUSH2 0x34F PUSH2 0xA8F JUMP JUMPDEST JUMPDEST DUP1 PUSH1 0x0 DUP1 CALLER PUSH20 0xFFFFFFFFFFFFFFFFFFFFFFFFFFFFFFFFFFFFFFFF AND PUSH20 0xFFFFFFFFFFFFFFFFFFFFFFFFFFFFFFFFFFFFFFFF AND DUP2 MSTORE PUSH1 0x20 ADD SWAP1 DUP2 MSTORE PUSH1 0x20 ADD PUSH1 0x0 KECCAK256 PUSH1 0x0 DUP3 DUP3 DUP3 SWAP1 SLOAD SWAP1 PUSH2 0x100 EXP SWAP1 DIV PUSH8 0xFFFFFFFFFFFFFFFF AND PUSH2 0x3B1 SWAP2 SWAP1 PUSH2 0xA53 JUMP JUMPDEST SWAP3 POP PUSH2 0x100 EXP DUP2 SLOAD DUP2 PUSH8 0xFFFFFFFFFFFFFFFF MUL NOT AND SWAP1 DUP4 PUSH8 0xFFFFFFFFFFFFFFFF AND MUL OR SWAP1 SSTORE POP DUP2 PUSH20 0xFFFFFFFFFFFFFFFFFFFFFFFFFFFFFFFFFFFFFFFF AND PUSH2 0x8FC DUP3 PUSH8 0xFFFFFFFFFFFFFFFF AND SWAP1 DUP2 ISZERO MUL SWAP1 PUSH1 0x40 MLOAD PUSH1 0x0 PUSH1 0x40 MLOAD DUP1 DUP4 SUB DUP2 DUP6 DUP9 DUP9 CALL SWAP4 POP POP POP POP ISZERO DUP1 ISZERO PUSH2 0x427 JUMPI RETURNDATASIZE PUSH1 0x0 DUP1 RETURNDATACOPY RETURNDATASIZE PUSH1 0x0 REVERT JUMPDEST POP POP POP JUMP JUMPDEST PUSH1 0xA DUP2 GT PUSH2 0x478 JUMPI PUSH1 0xA DUP2 EQ PUSH2 0x477 JUMPI PUSH1 0x40 MLOAD PUSH32 0x8C379A000000000000000000000000000000000000000000000000000000000 DUP2 MSTORE PUSH1 0x4 ADD PUSH2 0x46E SWAP1 PUSH2 0xB0A JUMP JUMPDEST PUSH1 0x40 MLOAD DUP1 SWAP2 SUB SWAP1 REVERT JUMPDEST JUMPDEST POP JUMP JUMPDEST PUSH1 0x0 DUP2 EQ PUSH2 0x48C JUMPI PUSH2 0x48B PUSH2 0xA8F JUMP JUMPDEST JUMPDEST POP JUMP JUMPDEST PUSH1 0x0 DUP1 CALLER PUSH20 0xFFFFFFFFFFFFFFFFFFFFFFFFFFFFFFFFFFFFFFFF AND PUSH20 0xFFFFFFFFFFFFFFFFFFFFFFFFFFFFFFFFFFFFFFFF AND DUP2 MSTORE PUSH1 0x20 ADD SWAP1 DUP2 MSTORE PUSH1 0x20 ADD PUSH1 0x0 KECCAK256 PUSH1 0x0 SWAP1 SLOAD SWAP1 PUSH2 0x100 EXP SWAP1 DIV PUSH8 0xFFFFFFFFFFFFFFFF AND PUSH8 0xFFFFFFFFFFFFFFFF AND CALLVALUE PUSH1 0x0 DUP1 CALLER PUSH20 0xFFFFFFFFFFFFFFFFFFFFFFFFFFFFFFFFFFFFFFFF AND PUSH20 0xFFFFFFFFFFFFFFFFFFFFFFFFFFFFFFFFFFFFFFFF AND DUP2 MSTORE PUSH1 0x20 ADD SWAP1 DUP2 MSTORE PUSH1 0x20 ADD PUSH1 0x0 KECCAK256 PUSH1 0x0 SWAP1 SLOAD SWAP1 PUSH2 0x100 EXP SWAP1 DIV PUSH8 0xFFFFFFFFFFFFFFFF AND PUSH2 0x54A SWAP2 SWAP1 PUSH2 0xB2A JUMP JUMPDEST PUSH8 0xFFFFFFFFFFFFFFFF AND LT ISZERO PUSH2 0x563 JUMPI PUSH2 0x562 PUSH2 0xA8F JUMP JUMPDEST JUMPDEST CALLVALUE PUSH1 0x0 DUP1 CALLER PUSH20 0xFFFFFFFFFFFFFFFFFFFFFFFFFFFFFFFFFFFFFFFF AND PUSH20 0xFFFFFFFFFFFFFFFFFFFFFFFFFFFFFFFFFFFFFFFF AND DUP2 MSTORE PUSH1 0x20 ADD SWAP1 DUP2 MSTORE PUSH1 0x20 ADD PUSH1 0x0 KECCAK256 PUSH1 0x0 DUP3 DUP3 DUP3 SWAP1 SLOAD SWAP1 PUSH2 0x100 EXP SWAP1 DIV PUSH8 0xFFFFFFFFFFFFFFFF AND PUSH2 0x5C4 SWAP2 SWAP1 PUSH2 0xB2A JUMP JUMPDEST SWAP3 POP PUSH2 0x100 EXP DUP2 SLOAD DUP2 PUSH8 0xFFFFFFFFFFFFFFFF MUL NOT AND SWAP1 DUP4 PUSH8 0xFFFFFFFFFFFFFFFF AND MUL OR SWAP1 SSTORE POP JUMP JUMPDEST PUSH1 0x1 PUSH1 0x0 SWAP1 SLOAD SWAP1 PUSH2 0x100 EXP SWAP1 DIV PUSH20 0xFFFFFFFFFFFFFFFFFFFFFFFFFFFFFFFFFFFFFFFF AND DUP2 JUMP JUMPDEST PUSH1 0x60 PUSH1 0x0 DUP3 SUB PUSH2 0x657 JUMPI PUSH1 0x40 MLOAD PUSH32 0x8C379A000000000000000000000000000000000000000000000000000000000 DUP2 MSTORE PUSH1 0x4 ADD PUSH2 0x64E SWAP1 PUSH2 0xBB2 JUMP JUMPDEST PUSH1 0x40 MLOAD DUP1 SWAP2 SUB SWAP1 REVERT JUMPDEST PUSH1 0x40 MLOAD DUP1 PUSH1 0x40 ADD PUSH1 0x40 MSTORE DUP1 PUSH1 0x13 DUP2 MSTORE PUSH1 0x20 ADD PUSH32 0x6D792066756E63207765732063616C6C65642E00000000000000000000000000 DUP2 MSTORE POP SWAP1 POP SWAP2 SWAP1 POP JUMP JUMPDEST PUSH1 0xA DUP2 GT PUSH2 0x6D7 JUMPI PUSH1 0x40 MLOAD PUSH32 0x8C379A000000000000000000000000000000000000000000000000000000000 DUP2 MSTORE PUSH1 0x4 ADD PUSH2 0x6CE SWAP1 PUSH2 0xC1E JUMP JUMPDEST PUSH1 0x40 MLOAD DUP1 SWAP2 SUB SWAP1 REVERT JUMPDEST POP JUMP JUMPDEST PUSH1 0x0 PUSH1 0x20 MSTORE DUP1 PUSH1 0x0 MSTORE PUSH1 0x40 PUSH1 0x0 KECCAK256 PUSH1 0x0 SWAP2 POP SLOAD SWAP1 PUSH2 0x100 EXP SWAP1 DIV PUSH8 0xFFFFFFFFFFFFFFFF AND DUP2 JUMP JUMPDEST PUSH1 0x0 DUP1 REVERT JUMPDEST PUSH1 0x0 PUSH20 0xFFFFFFFFFFFFFFFFFFFFFFFFFFFFFFFFFFFFFFFF DUP3 AND SWAP1 POP SWAP2 SWAP1 POP JUMP JUMPDEST PUSH1 0x0 PUSH2 0x731 DUP3 PUSH2 0x706 JUMP JUMPDEST SWAP1 POP SWAP2 SWAP1 POP JUMP JUMPDEST PUSH2 0x741 DUP2 PUSH2 0x726 JUMP JUMPDEST DUP2 EQ PUSH2 0x74C JUMPI PUSH1 0x0 DUP1 REVERT JUMPDEST POP JUMP JUMPDEST PUSH1 0x0 DUP2 CALLDATALOAD SWAP1 POP PUSH2 0x75E DUP2 PUSH2 0x738 JUMP JUMPDEST SWAP3 SWAP2 POP POP JUMP JUMPDEST PUSH1 0x0 PUSH8 0xFFFFFFFFFFFFFFFF DUP3 AND SWAP1 POP SWAP2 SWAP1 POP JUMP JUMPDEST PUSH2 0x781 DUP2 PUSH2 0x764 JUMP JUMPDEST DUP2 EQ PUSH2 0x78C JUMPI PUSH1 0x0 DUP1 REVERT JUMPDEST POP JUMP JUMPDEST PUSH1 0x0 DUP2 CALLDATALOAD SWAP1 POP PUSH2 0x79E DUP2 PUSH2 0x778 JUMP JUMPDEST SWAP3 SWAP2 POP POP JUMP JUMPDEST PUSH1 0x0 DUP1 PUSH1 0x40 DUP4 DUP6 SUB SLT ISZERO PUSH2 0x7BB JUMPI PUSH2 0x7BA PUSH2 0x701 JUMP JUMPDEST JUMPDEST PUSH1 0x0 PUSH2 0x7C9 DUP6 DUP3 DUP7 ADD PUSH2 0x74F JUMP JUMPDEST SWAP3 POP POP PUSH1 0x20 PUSH2 0x7DA DUP6 DUP3 DUP7 ADD PUSH2 0x78F JUMP JUMPDEST SWAP2 POP POP SWAP3 POP SWAP3 SWAP1 POP JUMP JUMPDEST PUSH1 0x0 DUP2 SWAP1 POP SWAP2 SWAP1 POP JUMP JUMPDEST PUSH2 0x7F7 DUP2 PUSH2 0x7E4 JUMP JUMPDEST DUP2 EQ PUSH2 0x802 JUMPI PUSH1 0x0 DUP1 REVERT JUMPDEST POP JUMP JUMPDEST PUSH1 0x0 DUP2 CALLDATALOAD SWAP1 POP PUSH2 0x814 DUP2 PUSH2 0x7EE JUMP JUMPDEST SWAP3 SWAP2 POP POP JUMP JUMPDEST PUSH1 0x0 PUSH1 0x20 DUP3 DUP5 SUB SLT ISZERO PUSH2 0x830 JUMPI PUSH2 0x82F PUSH2 0x701 JUMP JUMPDEST JUMPDEST PUSH1 0x0 PUSH2 0x83E DUP5 DUP3 DUP6 ADD PUSH2 0x805 JUMP JUMPDEST SWAP2 POP POP SWAP3 SWAP2 POP POP JUMP JUMPDEST PUSH1 0x0 PUSH2 0x852 DUP3 PUSH2 0x706 JUMP JUMPDEST SWAP1 POP SWAP2 SWAP1 POP JUMP JUMPDEST PUSH2 0x862 DUP2 PUSH2 0x847 JUMP JUMPDEST DUP3 MSTORE POP POP JUMP JUMPDEST PUSH1 0x0 PUSH1 0x20 DUP3 ADD SWAP1 POP PUSH2 0x87D PUSH1 0x0 DUP4 ADD DUP5 PUSH2 0x859 JUMP JUMPDEST SWAP3 SWAP2 POP POP JUMP JUMPDEST PUSH1 0x0 DUP2 MLOAD SWAP1 POP SWAP2 SWAP1 POP JUMP JUMPDEST PUSH1 0x0 DUP3 DUP3 MSTORE PUSH1 0x20 DUP3 ADD SWAP1 POP SWAP3 SWAP2 POP POP JUMP JUMPDEST PUSH1 0x0 JUMPDEST DUP4 DUP2 LT ISZERO PUSH2 0x8BD JUMPI DUP1 DUP3 ADD MLOAD DUP2 DUP5 ADD MSTORE PUSH1 0x20 DUP2 ADD SWAP1 POP PUSH2 0x8A2 JUMP JUMPDEST PUSH1 0x0 DUP5 DUP5 ADD MSTORE POP POP POP POP JUMP JUMPDEST PUSH1 0x0 PUSH1 0x1F NOT PUSH1 0x1F DUP4 ADD AND SWAP1 POP SWAP2 SWAP1 POP JUMP JUMPDEST PUSH1 0x0 PUSH2 0x8E5 DUP3 PUSH2 0x883 JUMP JUMPDEST PUSH2 0x8EF DUP2 DUP6 PUSH2 0x88E JUMP JUMPDEST SWAP4 POP PUSH2 0x8FF DUP2 DUP6 PUSH1 0x20 DUP7 ADD PUSH2 0x89F JUMP JUMPDEST PUSH2 0x908 DUP2 PUSH2 0x8C9 JUMP JUMPDEST DUP5 ADD SWAP2 POP POP SWAP3 SWAP2 POP POP JUMP JUMPDEST PUSH1 0x0 PUSH1 0x20 DUP3 ADD SWAP1 POP DUP2 DUP2 SUB PUSH1 0x0 DUP4 ADD MSTORE PUSH2 0x92D DUP2 DUP5 PUSH2 0x8DA JUMP JUMPDEST SWAP1 POP SWAP3 SWAP2 POP POP JUMP JUMPDEST PUSH2 0x93E DUP2 PUSH2 0x847 JUMP JUMPDEST DUP2 EQ PUSH2 0x949 JUMPI PUSH1 0x0 DUP1 REVERT JUMPDEST POP JUMP JUMPDEST PUSH1 0x0 DUP2 CALLDATALOAD SWAP1 POP PUSH2 0x95B DUP2 PUSH2 0x935 JUMP JUMPDEST SWAP3 SWAP2 POP POP JUMP JUMPDEST PUSH1 0x0 PUSH1 0x20 DUP3 DUP5 SUB SLT ISZERO PUSH2 0x977 JUMPI PUSH2 0x976 PUSH2 0x701 JUMP JUMPDEST JUMPDEST PUSH1 0x0 PUSH2 0x985 DUP5 DUP3 DUP6 ADD PUSH2 0x94C JUMP JUMPDEST SWAP2 POP POP SWAP3 SWAP2 POP POP JUMP JUMPDEST PUSH2 0x997 DUP2 PUSH2 0x764 JUMP JUMPDEST DUP3 MSTORE POP POP JUMP JUMPDEST PUSH1 0x0 PUSH1 0x20 DUP3 ADD SWAP1 POP PUSH2 0x9B2 PUSH1 0x0 DUP4 ADD DUP5 PUSH2 0x98E JUMP JUMPDEST SWAP3 SWAP2 POP POP JUMP JUMPDEST PUSH32 0x596F7520646F6E2774206861766520656E6F7567682065746865722E00000000 PUSH1 0x0 DUP3 ADD MSTORE POP JUMP JUMPDEST PUSH1 0x0 PUSH2 0x9EE PUSH1 0x1C DUP4 PUSH2 0x88E JUMP JUMPDEST SWAP2 POP PUSH2 0x9F9 DUP3 PUSH2 0x9B8 JUMP JUMPDEST PUSH1 0x20 DUP3 ADD SWAP1 POP SWAP2 SWAP1 POP JUMP JUMPDEST PUSH1 0x0 PUSH1 0x20 DUP3 ADD SWAP1 POP DUP2 DUP2 SUB PUSH1 0x0 DUP4 ADD MSTORE PUSH2 0xA1D DUP2 PUSH2 0x9E1 JUMP JUMPDEST SWAP1 POP SWAP2 SWAP1 POP JUMP JUMPDEST PUSH32 0x4E487B7100000000000000000000000000000000000000000000000000000000 PUSH1 0x0 MSTORE PUSH1 0x11 PUSH1 0x4 MSTORE PUSH1 0x24 PUSH1 0x0 REVERT JUMPDEST PUSH1 0x0 PUSH2 0xA5E DUP3 PUSH2 0x764 JUMP JUMPDEST SWAP2 POP PUSH2 0xA69 DUP4 PUSH2 0x764 JUMP JUMPDEST SWAP3 POP DUP3 DUP3 SUB SWAP1 POP PUSH8 0xFFFFFFFFFFFFFFFF DUP2 GT ISZERO PUSH2 0xA89 JUMPI PUSH2 0xA88 PUSH2 0xA24 JUMP JUMPDEST JUMPDEST SWAP3 SWAP2 POP POP JUMP JUMPDEST PUSH32 0x4E487B7100000000000000000000000000000000000000000000000000000000 PUSH1 0x0 MSTORE PUSH1 0x1 PUSH1 0x4 MSTORE PUSH1 0x24 PUSH1 0x0 REVERT JUMPDEST PUSH32 0x496E707574206D75737420626520657175616C20313000000000000000000000 PUSH1 0x0 DUP3 ADD MSTORE POP JUMP JUMPDEST PUSH1 0x0 PUSH2 0xAF4 PUSH1 0x16 DUP4 PUSH2 0x88E JUMP JUMPDEST SWAP2 POP PUSH2 0xAFF DUP3 PUSH2 0xABE JUMP JUMPDEST PUSH1 0x20 DUP3 ADD SWAP1 POP SWAP2 SWAP1 POP JUMP JUMPDEST PUSH1 0x0 PUSH1 0x20 DUP3 ADD SWAP1 POP DUP2 DUP2 SUB PUSH1 0x0 DUP4 ADD MSTORE PUSH2 0xB23 DUP2 PUSH2 0xAE7 JUMP JUMPDEST SWAP1 POP SWAP2 SWAP1 POP JUMP JUMPDEST PUSH1 0x0 PUSH2 0xB35 DUP3 PUSH2 0x764 JUMP JUMPDEST SWAP2 POP PUSH2 0xB40 DUP4 PUSH2 0x764 JUMP JUMPDEST SWAP3 POP DUP3 DUP3 ADD SWAP1 POP PUSH8 0xFFFFFFFFFFFFFFFF DUP2 GT ISZERO PUSH2 0xB60 JUMPI PUSH2 0xB5F PUSH2 0xA24 JUMP JUMPDEST JUMPDEST SWAP3 SWAP2 POP POP JUMP JUMPDEST PUSH32 0x72657175697265206661696C6564000000000000000000000000000000000000 PUSH1 0x0 DUP3 ADD MSTORE POP JUMP JUMPDEST PUSH1 0x0 PUSH2 0xB9C PUSH1 0xE DUP4 PUSH2 0x88E JUMP JUMPDEST SWAP2 POP PUSH2 0xBA7 DUP3 PUSH2 0xB66 JUMP JUMPDEST PUSH1 0x20 DUP3 ADD SWAP1 POP SWAP2 SWAP1 POP JUMP JUMPDEST PUSH1 0x0 PUSH1 0x20 DUP3 ADD SWAP1 POP DUP2 DUP2 SUB PUSH1 0x0 DUP4 ADD MSTORE PUSH2 0xBCB DUP2 PUSH2 0xB8F JUMP JUMPDEST SWAP1 POP SWAP2 SWAP1 POP JUMP JUMPDEST PUSH32 0x496E707574206D7573742062652067726561746572207468616E203130000000 PUSH1 0x0 DUP3 ADD MSTORE POP JUMP JUMPDEST PUSH1 0x0 PUSH2 0xC08 PUSH1 0x1D DUP4 PUSH2 0x88E JUMP JUMPDEST SWAP2 POP PUSH2 0xC13 DUP3 PUSH2 0xBD2 JUMP JUMPDEST PUSH1 0x20 DUP3 ADD SWAP1 POP SWAP2 SWAP1 POP JUMP JUMPDEST PUSH1 0x0 PUSH1 0x20 DUP3 ADD SWAP1 POP DUP2 DUP2 SUB PUSH1 0x0 DUP4 ADD MSTORE PUSH2 0xC37 DUP2 PUSH2 0xBFB JUMP JUMPDEST SWAP1 POP SWAP2 SWAP1 POP JUMP INVALID LOG2 PUSH5 0x6970667358 0x22 SLT KECCAK256 SLT DUP5 BASEFEE 0xAA SLOAD PUSH14 0x5B078AE52851989997904CBC1F7D 0xD2 SWAP11 EQ CODESIZE CALLVALUE PUSH28 0x3B17F4D9BC8964736F6C634300081200330000000000000000000000 "
				},
				"gasEstimates": {
					"creation": {
						"codeDepositCost": "637600",
						"executionCost": "infinite",
						"totalCost": "infinite"
					},
					"external": {
						"balanceReceived(address)": "2911",
						"myFunc(uint256)": "infinite",
						"owner()": "2514",
						"receiveMoney()": "infinite",
						"testAssert(uint256)": "501",
						"testRequire(uint256)": "760",
						"testRevert(uint256)": "761",
						"withdrawMoney(address,uint64)": "infinite"
					}
				},
				"methodIdentifiers": {
					"balanceReceived(address)": "d18a42e1",
					"myFunc(uint256)": "a9bf5633",
					"owner()": "8da5cb5b",
					"receiveMoney()": "6d26ec18",
					"testAssert(uint256)": "246ce3f9",
					"testRequire(uint256)": "b8bd717f",
					"testRevert(uint256)": "20987767",
					"withdrawMoney(address,uint64)": "0ad19aeb"
				}
			},
			"storageLayout": {
				"storage": [
					{
						"astId": 6,
						"contract": "contracts/Chapter9.sol:Chapter9",
						"label": "balanceReceived",
						"offset": 0,
						"slot": "0",
						"type": "t_mapping(t_address,t_uint64)"
					},
					{
						"astId": 8,
						"contract": "contracts/Chapter9.sol:Chapter9",
						"label": "owner",
						"offset": 0,
						"slot": "1",
						"type": "t_address"
					}
				],
				"types": {
					"t_address": {
						"encoding": "inplace",
						"label": "address",
						"numberOfBytes": "20"
					},
					"t_mapping(t_address,t_uint64)": {
						"encoding": "mapping",
						"key": "t_address",
						"label": "mapping(address => uint64)",
						"numberOfBytes": "32",
						"value": "t_uint64"
					},
					"t_uint64": {
						"encoding": "inplace",
						"label": "uint64",
						"numberOfBytes": "8"
					}
				}
			},
			"userdoc": {
				"kind": "user",
				"methods": {},
				"notice": "Handling Exception - Require 用於檢測使用者的輸入等錯誤情況 - Assert 用於檢測完全不該在合約裡出現的情況 - Revert 用於確認複雜的狀態 - Try/Catch   - catch Error   - catch Panic   - catch",
				"version": 1
			}
		}
	}
}