{
	"contracts/Chapter3.sol": {
		"BlockTime": {
			"abi": [
				{
					"inputs": [],
					"name": "day",
					"outputs": [
						{
							"internalType": "uint256",
							"name": "",
							"type": "uint256"
						}
					],
					"stateMutability": "view",
					"type": "function"
				},
				{
					"inputs": [],
					"name": "getBlockTime",
					"outputs": [
						{
							"internalType": "uint256",
							"name": "",
							"type": "uint256"
						}
					],
					"stateMutability": "view",
					"type": "function"
				},
				{
					"inputs": [],
					"name": "hour",
					"outputs": [
						{
							"internalType": "uint256",
							"name": "",
							"type": "uint256"
						}
					],
					"stateMutability": "view",
					"type": "function"
				},
				{
					"inputs": [],
					"name": "minute",
					"outputs": [
						{
							"internalType": "uint256",
							"name": "",
							"type": "uint256"
						}
					],
					"stateMutability": "view",
					"type": "function"
				},
				{
					"inputs": [],
					"name": "second",
					"outputs": [
						{
							"internalType": "uint256",
							"name": "",
							"type": "uint256"
						}
					],
					"stateMutability": "view",
					"type": "function"
				}
			],
			"devdoc": {
				"kind": "dev",
				"methods": {},
				"version": 1
			},
			"evm": {
				"assembly": "    /* \"contracts/Chapter3.sol\":205:534  contract BlockTime {... */\n  mstore(0x40, 0x80)\n    /* \"contracts/Chapter3.sol\":259:268  1 seconds */\n  0x01\n    /* \"contracts/Chapter3.sol\":235:268  uint256 public second = 1 seconds */\n  0x00\n  sstore\n    /* \"contracts/Chapter3.sol\":298:307  1 minutes */\n  0x3c\n    /* \"contracts/Chapter3.sol\":274:307  uint256 public minute = 1 minutes */\n  0x01\n  sstore\n    /* \"contracts/Chapter3.sol\":335:342  1 hours */\n  0x0e10\n    /* \"contracts/Chapter3.sol\":313:342  uint256 public hour = 1 hours */\n  0x02\n  sstore\n    /* \"contracts/Chapter3.sol\":369:375  1 days */\n  0x015180\n    /* \"contracts/Chapter3.sol\":348:375  uint256 public day = 1 days */\n  0x03\n  sstore\n    /* \"contracts/Chapter3.sol\":205:534  contract BlockTime {... */\n  callvalue\n  dup1\n  iszero\n  tag_1\n  jumpi\n  0x00\n  dup1\n  revert\ntag_1:\n  pop\n  dataSize(sub_0)\n  dup1\n  dataOffset(sub_0)\n  0x00\n  codecopy\n  0x00\n  return\nstop\n\nsub_0: assembly {\n        /* \"contracts/Chapter3.sol\":205:534  contract BlockTime {... */\n      mstore(0x40, 0x80)\n      callvalue\n      dup1\n      iszero\n      tag_1\n      jumpi\n      0x00\n      dup1\n      revert\n    tag_1:\n      pop\n      jumpi(tag_2, lt(calldatasize, 0x04))\n      shr(0xe0, calldataload(0x00))\n      dup1\n      0x23e5f1c5\n      eq\n      tag_3\n      jumpi\n      dup1\n      0x5a8ac02d\n      eq\n      tag_4\n      jumpi\n      dup1\n      0x7b76ac91\n      eq\n      tag_5\n      jumpi\n      dup1\n      0x87ceff09\n      eq\n      tag_6\n      jumpi\n      dup1\n      0xe89b7222\n      eq\n      tag_7\n      jumpi\n    tag_2:\n      0x00\n      dup1\n      revert\n        /* \"contracts/Chapter3.sol\":313:342  uint256 public hour = 1 hours */\n    tag_3:\n      tag_8\n      tag_9\n      jump\t// in\n    tag_8:\n      mload(0x40)\n      tag_10\n      swap2\n      swap1\n      tag_11\n      jump\t// in\n    tag_10:\n      mload(0x40)\n      dup1\n      swap2\n      sub\n      swap1\n      return\n        /* \"contracts/Chapter3.sol\":235:268  uint256 public second = 1 seconds */\n    tag_4:\n      tag_12\n      tag_13\n      jump\t// in\n    tag_12:\n      mload(0x40)\n      tag_14\n      swap2\n      swap1\n      tag_11\n      jump\t// in\n    tag_14:\n      mload(0x40)\n      dup1\n      swap2\n      sub\n      swap1\n      return\n        /* \"contracts/Chapter3.sol\":348:375  uint256 public day = 1 days */\n    tag_5:\n      tag_15\n      tag_16\n      jump\t// in\n    tag_15:\n      mload(0x40)\n      tag_17\n      swap2\n      swap1\n      tag_11\n      jump\t// in\n    tag_17:\n      mload(0x40)\n      dup1\n      swap2\n      sub\n      swap1\n      return\n        /* \"contracts/Chapter3.sol\":439:532  function getBlockTime() public view returns (uint256) {... */\n    tag_6:\n      tag_18\n      tag_19\n      jump\t// in\n    tag_18:\n      mload(0x40)\n      tag_20\n      swap2\n      swap1\n      tag_11\n      jump\t// in\n    tag_20:\n      mload(0x40)\n      dup1\n      swap2\n      sub\n      swap1\n      return\n        /* \"contracts/Chapter3.sol\":274:307  uint256 public minute = 1 minutes */\n    tag_7:\n      tag_21\n      tag_22\n      jump\t// in\n    tag_21:\n      mload(0x40)\n      tag_23\n      swap2\n      swap1\n      tag_11\n      jump\t// in\n    tag_23:\n      mload(0x40)\n      dup1\n      swap2\n      sub\n      swap1\n      return\n        /* \"contracts/Chapter3.sol\":313:342  uint256 public hour = 1 hours */\n    tag_9:\n      sload(0x02)\n      dup2\n      jump\t// out\n        /* \"contracts/Chapter3.sol\":235:268  uint256 public second = 1 seconds */\n    tag_13:\n      sload(0x00)\n      dup2\n      jump\t// out\n        /* \"contracts/Chapter3.sol\":348:375  uint256 public day = 1 days */\n    tag_16:\n      sload(0x03)\n      dup2\n      jump\t// out\n        /* \"contracts/Chapter3.sol\":439:532  function getBlockTime() public view returns (uint256) {... */\n    tag_19:\n        /* \"contracts/Chapter3.sol\":484:491  uint256 */\n      0x00\n        /* \"contracts/Chapter3.sol\":510:525  block.timestamp */\n      timestamp\n        /* \"contracts/Chapter3.sol\":503:525  return block.timestamp */\n      swap1\n      pop\n        /* \"contracts/Chapter3.sol\":439:532  function getBlockTime() public view returns (uint256) {... */\n      swap1\n      jump\t// out\n        /* \"contracts/Chapter3.sol\":274:307  uint256 public minute = 1 minutes */\n    tag_22:\n      sload(0x01)\n      dup2\n      jump\t// out\n        /* \"#utility.yul\":7:84   */\n    tag_25:\n        /* \"#utility.yul\":44:51   */\n      0x00\n        /* \"#utility.yul\":73:78   */\n      dup2\n        /* \"#utility.yul\":62:78   */\n      swap1\n      pop\n        /* \"#utility.yul\":7:84   */\n      swap2\n      swap1\n      pop\n      jump\t// out\n        /* \"#utility.yul\":90:208   */\n    tag_26:\n        /* \"#utility.yul\":177:201   */\n      tag_30\n        /* \"#utility.yul\":195:200   */\n      dup2\n        /* \"#utility.yul\":177:201   */\n      tag_25\n      jump\t// in\n    tag_30:\n        /* \"#utility.yul\":172:175   */\n      dup3\n        /* \"#utility.yul\":165:202   */\n      mstore\n        /* \"#utility.yul\":90:208   */\n      pop\n      pop\n      jump\t// out\n        /* \"#utility.yul\":214:436   */\n    tag_11:\n        /* \"#utility.yul\":307:311   */\n      0x00\n        /* \"#utility.yul\":345:347   */\n      0x20\n        /* \"#utility.yul\":334:343   */\n      dup3\n        /* \"#utility.yul\":330:348   */\n      add\n        /* \"#utility.yul\":322:348   */\n      swap1\n      pop\n        /* \"#utility.yul\":358:429   */\n      tag_32\n        /* \"#utility.yul\":426:427   */\n      0x00\n        /* \"#utility.yul\":415:424   */\n      dup4\n        /* \"#utility.yul\":411:428   */\n      add\n        /* \"#utility.yul\":402:408   */\n      dup5\n        /* \"#utility.yul\":358:429   */\n      tag_26\n      jump\t// in\n    tag_32:\n        /* \"#utility.yul\":214:436   */\n      swap3\n      swap2\n      pop\n      pop\n      jump\t// out\n\n    auxdata: 0xa26469706673582212202e41c759ad1d701d3048f5051a3b6586597a9c23752fbfe8a67152e84511b03264736f6c63430008120033\n}\n",
				"bytecode": {
					"linkReferences": {},
					"object": "60806040526001600055603c600155610e106002556201518060035534801561002757600080fd5b5061017c806100376000396000f3fe608060405234801561001057600080fd5b50600436106100575760003560e01c806323e5f1c51461005c5780635a8ac02d1461007a5780637b76ac911461009857806387ceff09146100b6578063e89b7222146100d4575b600080fd5b6100646100f2565b604051610071919061012b565b60405180910390f35b6100826100f8565b60405161008f919061012b565b60405180910390f35b6100a06100fe565b6040516100ad919061012b565b60405180910390f35b6100be610104565b6040516100cb919061012b565b60405180910390f35b6100dc61010c565b6040516100e9919061012b565b60405180910390f35b60025481565b60005481565b60035481565b600042905090565b60015481565b6000819050919050565b61012581610112565b82525050565b6000602082019050610140600083018461011c565b9291505056fea26469706673582212202e41c759ad1d701d3048f5051a3b6586597a9c23752fbfe8a67152e84511b03264736f6c63430008120033",
					"opcodes": "PUSH1 0x80 PUSH1 0x40 MSTORE PUSH1 0x1 PUSH1 0x0 SSTORE PUSH1 0x3C PUSH1 0x1 SSTORE PUSH2 0xE10 PUSH1 0x2 SSTORE PUSH3 0x15180 PUSH1 0x3 SSTORE CALLVALUE DUP1 ISZERO PUSH2 0x27 JUMPI PUSH1 0x0 DUP1 REVERT JUMPDEST POP PUSH2 0x17C DUP1 PUSH2 0x37 PUSH1 0x0 CODECOPY PUSH1 0x0 RETURN INVALID PUSH1 0x80 PUSH1 0x40 MSTORE CALLVALUE DUP1 ISZERO PUSH2 0x10 JUMPI PUSH1 0x0 DUP1 REVERT JUMPDEST POP PUSH1 0x4 CALLDATASIZE LT PUSH2 0x57 JUMPI PUSH1 0x0 CALLDATALOAD PUSH1 0xE0 SHR DUP1 PUSH4 0x23E5F1C5 EQ PUSH2 0x5C JUMPI DUP1 PUSH4 0x5A8AC02D EQ PUSH2 0x7A JUMPI DUP1 PUSH4 0x7B76AC91 EQ PUSH2 0x98 JUMPI DUP1 PUSH4 0x87CEFF09 EQ PUSH2 0xB6 JUMPI DUP1 PUSH4 0xE89B7222 EQ PUSH2 0xD4 JUMPI JUMPDEST PUSH1 0x0 DUP1 REVERT JUMPDEST PUSH2 0x64 PUSH2 0xF2 JUMP JUMPDEST PUSH1 0x40 MLOAD PUSH2 0x71 SWAP2 SWAP1 PUSH2 0x12B JUMP JUMPDEST PUSH1 0x40 MLOAD DUP1 SWAP2 SUB SWAP1 RETURN JUMPDEST PUSH2 0x82 PUSH2 0xF8 JUMP JUMPDEST PUSH1 0x40 MLOAD PUSH2 0x8F SWAP2 SWAP1 PUSH2 0x12B JUMP JUMPDEST PUSH1 0x40 MLOAD DUP1 SWAP2 SUB SWAP1 RETURN JUMPDEST PUSH2 0xA0 PUSH2 0xFE JUMP JUMPDEST PUSH1 0x40 MLOAD PUSH2 0xAD SWAP2 SWAP1 PUSH2 0x12B JUMP JUMPDEST PUSH1 0x40 MLOAD DUP1 SWAP2 SUB SWAP1 RETURN JUMPDEST PUSH2 0xBE PUSH2 0x104 JUMP JUMPDEST PUSH1 0x40 MLOAD PUSH2 0xCB SWAP2 SWAP1 PUSH2 0x12B JUMP JUMPDEST PUSH1 0x40 MLOAD DUP1 SWAP2 SUB SWAP1 RETURN JUMPDEST PUSH2 0xDC PUSH2 0x10C JUMP JUMPDEST PUSH1 0x40 MLOAD PUSH2 0xE9 SWAP2 SWAP1 PUSH2 0x12B JUMP JUMPDEST PUSH1 0x40 MLOAD DUP1 SWAP2 SUB SWAP1 RETURN JUMPDEST PUSH1 0x2 SLOAD DUP2 JUMP JUMPDEST PUSH1 0x0 SLOAD DUP2 JUMP JUMPDEST PUSH1 0x3 SLOAD DUP2 JUMP JUMPDEST PUSH1 0x0 TIMESTAMP SWAP1 POP SWAP1 JUMP JUMPDEST PUSH1 0x1 SLOAD DUP2 JUMP JUMPDEST PUSH1 0x0 DUP2 SWAP1 POP SWAP2 SWAP1 POP JUMP JUMPDEST PUSH2 0x125 DUP2 PUSH2 0x112 JUMP JUMPDEST DUP3 MSTORE POP POP JUMP JUMPDEST PUSH1 0x0 PUSH1 0x20 DUP3 ADD SWAP1 POP PUSH2 0x140 PUSH1 0x0 DUP4 ADD DUP5 PUSH2 0x11C JUMP JUMPDEST SWAP3 SWAP2 POP POP JUMP INVALID LOG2 PUSH5 0x6970667358 0x22 SLT KECCAK256 0x2E COINBASE 0xC7 MSIZE 0xAD SAR PUSH17 0x1D3048F5051A3B6586597A9C23752FBFE8 0xA6 PUSH18 0x52E84511B03264736F6C6343000812003300 "
				},
				"gasEstimates": {
					"creation": {
						"codeDepositCost": "76000",
						"executionCost": "88547",
						"totalCost": "164547"
					},
					"external": {
						"day()": "2451",
						"getBlockTime()": "380",
						"hour()": "2407",
						"minute()": "2495",
						"second()": "2429"
					}
				},
				"methodIdentifiers": {
					"day()": "7b76ac91",
					"getBlockTime()": "87ceff09",
					"hour()": "23e5f1c5",
					"minute()": "e89b7222",
					"second()": "5a8ac02d"
				}
			},
			"storageLayout": {
				"storage": [
					{
						"astId": 9,
						"contract": "contracts/Chapter3.sol:BlockTime",
						"label": "second",
						"offset": 0,
						"slot": "0",
						"type": "t_uint256"
					},
					{
						"astId": 12,
						"contract": "contracts/Chapter3.sol:BlockTime",
						"label": "minute",
						"offset": 0,
						"slot": "1",
						"type": "t_uint256"
					},
					{
						"astId": 15,
						"contract": "contracts/Chapter3.sol:BlockTime",
						"label": "hour",
						"offset": 0,
						"slot": "2",
						"type": "t_uint256"
					},
					{
						"astId": 18,
						"contract": "contracts/Chapter3.sol:BlockTime",
						"label": "day",
						"offset": 0,
						"slot": "3",
						"type": "t_uint256"
					}
				],
				"types": {
					"t_uint256": {
						"encoding": "inplace",
						"label": "uint256",
						"numberOfBytes": "32"
					}
				}
			},
			"userdoc": {
				"kind": "user",
				"methods": {
					"getBlockTime()": {
						"notice": "Solidity 使用使用 UNIX 時間"
					}
				},
				"version": 1
			}
		}
	}
}