{
	"contracts/Chapter11-1.sol": {
		"F": {
			"abi": [
				{
					"inputs": [],
					"name": "f",
					"outputs": [],
					"stateMutability": "nonpayable",
					"type": "function"
				},
				{
					"inputs": [],
					"name": "f1",
					"outputs": [],
					"stateMutability": "nonpayable",
					"type": "function"
				},
				{
					"inputs": [],
					"name": "f2",
					"outputs": [],
					"stateMutability": "nonpayable",
					"type": "function"
				},
				{
					"inputs": [],
					"name": "f3",
					"outputs": [],
					"stateMutability": "nonpayable",
					"type": "function"
				},
				{
					"inputs": [],
					"name": "u",
					"outputs": [
						{
							"internalType": "uint256",
							"name": "",
							"type": "uint256"
						}
					],
					"stateMutability": "view",
					"type": "function"
				}
			],
			"devdoc": {
				"kind": "dev",
				"methods": {},
				"version": 1
			},
			"evm": {
				"assembly": "    /* \"contracts/Chapter11-1.sol\":1375:1634  contract F is E {... */\n  mstore(0x40, 0x80)\n  callvalue\n  dup1\n  iszero\n  tag_1\n  jumpi\n  0x00\n  dup1\n  revert\ntag_1:\n  pop\n  dataSize(sub_0)\n  dup1\n  dataOffset(sub_0)\n  0x00\n  codecopy\n  0x00\n  return\nstop\n\nsub_0: assembly {\n        /* \"contracts/Chapter11-1.sol\":1375:1634  contract F is E {... */\n      mstore(0x40, 0x80)\n      callvalue\n      dup1\n      iszero\n      tag_1\n      jumpi\n      0x00\n      dup1\n      revert\n    tag_1:\n      pop\n      jumpi(tag_2, lt(calldatasize, 0x04))\n      shr(0xe0, calldataload(0x00))\n      dup1\n      0x26121ff0\n      eq\n      tag_3\n      jumpi\n      dup1\n      0x9942ec6f\n      eq\n      tag_4\n      jumpi\n      dup1\n      0xaaf05f3d\n      eq\n      tag_5\n      jumpi\n      dup1\n      0xc27fc305\n      eq\n      tag_6\n      jumpi\n      dup1\n      0xc6a898c5\n      eq\n      tag_7\n      jumpi\n    tag_2:\n      0x00\n      dup1\n      revert\n        /* \"contracts/Chapter11-1.sol\":1398:1457  function f() public override { // u: 3... */\n    tag_3:\n      tag_8\n      tag_9\n      jump\t// in\n    tag_8:\n      stop\n        /* \"contracts/Chapter11-1.sol\":1524:1575  function f2() public { // u: 2... */\n    tag_4:\n      tag_10\n      tag_11\n      jump\t// in\n    tag_10:\n      stop\n        /* \"contracts/Chapter11-1.sol\":1581:1632  function f3() public { // u: 1... */\n    tag_5:\n      tag_12\n      tag_13\n      jump\t// in\n    tag_12:\n      stop\n        /* \"contracts/Chapter11-1.sol\":1463:1518  function f1() public { // u: 2... */\n    tag_6:\n      tag_14\n      tag_15\n      jump\t// in\n    tag_14:\n      stop\n        /* \"contracts/Chapter11-1.sol\":1215:1228  uint public u */\n    tag_7:\n      tag_16\n      tag_17\n      jump\t// in\n    tag_16:\n      mload(0x40)\n      tag_18\n      swap2\n      swap1\n      tag_19\n      jump\t// in\n    tag_18:\n      mload(0x40)\n      dup1\n      swap2\n      sub\n      swap1\n      return\n        /* \"contracts/Chapter11-1.sol\":1398:1457  function f() public override { // u: 3... */\n    tag_9:\n        /* \"contracts/Chapter11-1.sol\":1449:1450  3 */\n      0x03\n        /* \"contracts/Chapter11-1.sol\":1445:1446  u */\n      0x00\n        /* \"contracts/Chapter11-1.sol\":1445:1450  u = 3 */\n      dup2\n      swap1\n      sstore\n      pop\n        /* \"contracts/Chapter11-1.sol\":1398:1457  function f() public override { // u: 3... */\n      jump\t// out\n        /* \"contracts/Chapter11-1.sol\":1524:1575  function f2() public { // u: 2... */\n    tag_11:\n        /* \"contracts/Chapter11-1.sol\":1563:1568  E.f() */\n      tag_22\n        /* \"contracts/Chapter11-1.sol\":1563:1566  E.f */\n      tag_23\n        /* \"contracts/Chapter11-1.sol\":1563:1568  E.f() */\n      jump\t// in\n    tag_22:\n        /* \"contracts/Chapter11-1.sol\":1524:1575  function f2() public { // u: 2... */\n      jump\t// out\n        /* \"contracts/Chapter11-1.sol\":1581:1632  function f3() public { // u: 1... */\n    tag_13:\n        /* \"contracts/Chapter11-1.sol\":1620:1625  D.f() */\n      tag_25\n        /* \"contracts/Chapter11-1.sol\":1620:1623  D.f */\n      tag_26\n        /* \"contracts/Chapter11-1.sol\":1620:1625  D.f() */\n      jump\t// in\n    tag_25:\n        /* \"contracts/Chapter11-1.sol\":1581:1632  function f3() public { // u: 1... */\n      jump\t// out\n        /* \"contracts/Chapter11-1.sol\":1463:1518  function f1() public { // u: 2... */\n    tag_15:\n        /* \"contracts/Chapter11-1.sol\":1502:1511  super.f() */\n      tag_28\n        /* \"contracts/Chapter11-1.sol\":1502:1509  super.f */\n      tag_23\n        /* \"contracts/Chapter11-1.sol\":1502:1511  super.f() */\n      jump\t// in\n    tag_28:\n        /* \"contracts/Chapter11-1.sol\":1463:1518  function f1() public { // u: 2... */\n      jump\t// out\n        /* \"contracts/Chapter11-1.sol\":1215:1228  uint public u */\n    tag_17:\n      sload(0x00)\n      dup2\n      jump\t// out\n        /* \"contracts/Chapter11-1.sol\":1312:1371  function f() public virtual override {... */\n    tag_23:\n        /* \"contracts/Chapter11-1.sol\":1363:1364  2 */\n      0x02\n        /* \"contracts/Chapter11-1.sol\":1359:1360  u */\n      0x00\n        /* \"contracts/Chapter11-1.sol\":1359:1364  u = 2 */\n      dup2\n      swap1\n      sstore\n      pop\n        /* \"contracts/Chapter11-1.sol\":1312:1371  function f() public virtual override {... */\n      jump\t// out\n        /* \"contracts/Chapter11-1.sol\":1235:1285  function f() public virtual {... */\n    tag_26:\n        /* \"contracts/Chapter11-1.sol\":1277:1278  1 */\n      0x01\n        /* \"contracts/Chapter11-1.sol\":1273:1274  u */\n      0x00\n        /* \"contracts/Chapter11-1.sol\":1273:1278  u = 1 */\n      dup2\n      swap1\n      sstore\n      pop\n        /* \"contracts/Chapter11-1.sol\":1235:1285  function f() public virtual {... */\n      jump\t// out\n        /* \"#utility.yul\":7:84   */\n    tag_31:\n        /* \"#utility.yul\":44:51   */\n      0x00\n        /* \"#utility.yul\":73:78   */\n      dup2\n        /* \"#utility.yul\":62:78   */\n      swap1\n      pop\n        /* \"#utility.yul\":7:84   */\n      swap2\n      swap1\n      pop\n      jump\t// out\n        /* \"#utility.yul\":90:208   */\n    tag_32:\n        /* \"#utility.yul\":177:201   */\n      tag_36\n        /* \"#utility.yul\":195:200   */\n      dup2\n        /* \"#utility.yul\":177:201   */\n      tag_31\n      jump\t// in\n    tag_36:\n        /* \"#utility.yul\":172:175   */\n      dup3\n        /* \"#utility.yul\":165:202   */\n      mstore\n        /* \"#utility.yul\":90:208   */\n      pop\n      pop\n      jump\t// out\n        /* \"#utility.yul\":214:436   */\n    tag_19:\n        /* \"#utility.yul\":307:311   */\n      0x00\n        /* \"#utility.yul\":345:347   */\n      0x20\n        /* \"#utility.yul\":334:343   */\n      dup3\n        /* \"#utility.yul\":330:348   */\n      add\n        /* \"#utility.yul\":322:348   */\n      swap1\n      pop\n        /* \"#utility.yul\":358:429   */\n      tag_38\n        /* \"#utility.yul\":426:427   */\n      0x00\n        /* \"#utility.yul\":415:424   */\n      dup4\n        /* \"#utility.yul\":411:428   */\n      add\n        /* \"#utility.yul\":402:408   */\n      dup5\n        /* \"#utility.yul\":358:429   */\n      tag_32\n      jump\t// in\n    tag_38:\n        /* \"#utility.yul\":214:436   */\n      swap3\n      swap2\n      pop\n      pop\n      jump\t// out\n\n    auxdata: 0xa2646970667358221220c99235c0834e4e37d30b10dff6a3707f29610b147fc2bee833f8598875f5edec64736f6c63430008120033\n}\n",
				"bytecode": {
					"linkReferences": {},
					"object": "608060405234801561001057600080fd5b50610131806100206000396000f3fe6080604052348015600f57600080fd5b506004361060505760003560e01c806326121ff01460555780639942ec6f14605d578063aaf05f3d146065578063c27fc30514606d578063c6a898c5146075575b600080fd5b605b608f565b005b60636099565b005b606b60a1565b005b607360a9565b005b607b60b1565b6040516086919060e2565b60405180910390f35b6003600081905550565b609f60b7565b565b60a760c1565b565b60af60b7565b565b60005481565b6002600081905550565b6001600081905550565b6000819050919050565b60dc8160cb565b82525050565b600060208201905060f5600083018460d5565b9291505056fea2646970667358221220c99235c0834e4e37d30b10dff6a3707f29610b147fc2bee833f8598875f5edec64736f6c63430008120033",
					"opcodes": "PUSH1 0x80 PUSH1 0x40 MSTORE CALLVALUE DUP1 ISZERO PUSH2 0x10 JUMPI PUSH1 0x0 DUP1 REVERT JUMPDEST POP PUSH2 0x131 DUP1 PUSH2 0x20 PUSH1 0x0 CODECOPY PUSH1 0x0 RETURN INVALID PUSH1 0x80 PUSH1 0x40 MSTORE CALLVALUE DUP1 ISZERO PUSH1 0xF JUMPI PUSH1 0x0 DUP1 REVERT JUMPDEST POP PUSH1 0x4 CALLDATASIZE LT PUSH1 0x50 JUMPI PUSH1 0x0 CALLDATALOAD PUSH1 0xE0 SHR DUP1 PUSH4 0x26121FF0 EQ PUSH1 0x55 JUMPI DUP1 PUSH4 0x9942EC6F EQ PUSH1 0x5D JUMPI DUP1 PUSH4 0xAAF05F3D EQ PUSH1 0x65 JUMPI DUP1 PUSH4 0xC27FC305 EQ PUSH1 0x6D JUMPI DUP1 PUSH4 0xC6A898C5 EQ PUSH1 0x75 JUMPI JUMPDEST PUSH1 0x0 DUP1 REVERT JUMPDEST PUSH1 0x5B PUSH1 0x8F JUMP JUMPDEST STOP JUMPDEST PUSH1 0x63 PUSH1 0x99 JUMP JUMPDEST STOP JUMPDEST PUSH1 0x6B PUSH1 0xA1 JUMP JUMPDEST STOP JUMPDEST PUSH1 0x73 PUSH1 0xA9 JUMP JUMPDEST STOP JUMPDEST PUSH1 0x7B PUSH1 0xB1 JUMP JUMPDEST PUSH1 0x40 MLOAD PUSH1 0x86 SWAP2 SWAP1 PUSH1 0xE2 JUMP JUMPDEST PUSH1 0x40 MLOAD DUP1 SWAP2 SUB SWAP1 RETURN JUMPDEST PUSH1 0x3 PUSH1 0x0 DUP2 SWAP1 SSTORE POP JUMP JUMPDEST PUSH1 0x9F PUSH1 0xB7 JUMP JUMPDEST JUMP JUMPDEST PUSH1 0xA7 PUSH1 0xC1 JUMP JUMPDEST JUMP JUMPDEST PUSH1 0xAF PUSH1 0xB7 JUMP JUMPDEST JUMP JUMPDEST PUSH1 0x0 SLOAD DUP2 JUMP JUMPDEST PUSH1 0x2 PUSH1 0x0 DUP2 SWAP1 SSTORE POP JUMP JUMPDEST PUSH1 0x1 PUSH1 0x0 DUP2 SWAP1 SSTORE POP JUMP JUMPDEST PUSH1 0x0 DUP2 SWAP1 POP SWAP2 SWAP1 POP JUMP JUMPDEST PUSH1 0xDC DUP2 PUSH1 0xCB JUMP JUMPDEST DUP3 MSTORE POP POP JUMP JUMPDEST PUSH1 0x0 PUSH1 0x20 DUP3 ADD SWAP1 POP PUSH1 0xF5 PUSH1 0x0 DUP4 ADD DUP5 PUSH1 0xD5 JUMP JUMPDEST SWAP3 SWAP2 POP POP JUMP INVALID LOG2 PUSH5 0x6970667358 0x22 SLT KECCAK256 0xC9 SWAP3 CALLDATALOAD 0xC0 DUP4 0x4E 0x4E CALLDATACOPY 0xD3 SIGNEXTEND LT 0xDF 0xF6 LOG3 PUSH17 0x7F29610B147FC2BEE833F8598875F5EDEC PUSH5 0x736F6C6343 STOP ADDMOD SLT STOP CALLER "
				},
				"gasEstimates": {
					"creation": {
						"codeDepositCost": "61000",
						"executionCost": "111",
						"totalCost": "61111"
					},
					"external": {
						"f()": "22236",
						"f1()": "22326",
						"f2()": "22282",
						"f3()": "22304",
						"u()": "2495"
					}
				},
				"methodIdentifiers": {
					"f()": "26121ff0",
					"f1()": "c27fc305",
					"f2()": "9942ec6f",
					"f3()": "aaf05f3d",
					"u()": "c6a898c5"
				}
			},
			"storageLayout": {
				"storage": [
					{
						"astId": 85,
						"contract": "contracts/Chapter11-1.sol:F",
						"label": "u",
						"offset": 0,
						"slot": "0",
						"type": "t_uint256"
					}
				],
				"types": {
					"t_uint256": {
						"encoding": "inplace",
						"label": "uint256",
						"numberOfBytes": "32"
					}
				}
			},
			"userdoc": {
				"kind": "user",
				"methods": {},
				"version": 1
			}
		}
	}
}