{
	"contracts/Chapter8.sol": {
		"Chapter8": {
			"abi": [
				{
					"inputs": [],
					"name": "a",
					"outputs": [
						{
							"internalType": "uint256",
							"name": "",
							"type": "uint256"
						}
					],
					"stateMutability": "view",
					"type": "function"
				},
				{
					"inputs": [],
					"name": "b",
					"outputs": [
						{
							"internalType": "uint256",
							"name": "",
							"type": "uint256"
						}
					],
					"stateMutability": "view",
					"type": "function"
				},
				{
					"inputs": [
						{
							"internalType": "string",
							"name": "_exampleString",
							"type": "string"
						}
					],
					"name": "calldataTest",
					"outputs": [
						{
							"internalType": "string",
							"name": "",
							"type": "string"
						}
					],
					"stateMutability": "pure",
					"type": "function"
				},
				{
					"inputs": [],
					"name": "decrement",
					"outputs": [],
					"stateMutability": "nonpayable",
					"type": "function"
				},
				{
					"inputs": [],
					"name": "increment",
					"outputs": [],
					"stateMutability": "nonpayable",
					"type": "function"
				},
				{
					"inputs": [
						{
							"internalType": "string",
							"name": "_exampleString",
							"type": "string"
						}
					],
					"name": "memoryTest",
					"outputs": [
						{
							"internalType": "string",
							"name": "",
							"type": "string"
						}
					],
					"stateMutability": "pure",
					"type": "function"
				},
				{
					"inputs": [],
					"name": "myUint8",
					"outputs": [
						{
							"internalType": "uint8",
							"name": "",
							"type": "uint8"
						}
					],
					"stateMutability": "view",
					"type": "function"
				},
				{
					"inputs": [],
					"name": "swap",
					"outputs": [],
					"stateMutability": "nonpayable",
					"type": "function"
				}
			],
			"devdoc": {
				"kind": "dev",
				"methods": {},
				"version": 1
			},
			"evm": {
				"assembly": "    /* \"contracts/Chapter8.sol\":187:1231  contract Chapter8 {... */\n  mstore(0x40, 0x80)\n    /* \"contracts/Chapter8.sol\":228:229  1 */\n  0x01\n    /* \"contracts/Chapter8.sol\":212:229  uint public a = 1 */\n  0x00\n  sstore\n    /* \"contracts/Chapter8.sol\":251:252  0 */\n  0x00\n    /* \"contracts/Chapter8.sol\":235:252  uint public b = 0 */\n  0x01\n  sstore\n    /* \"contracts/Chapter8.sol\":187:1231  contract Chapter8 {... */\n  callvalue\n  dup1\n  iszero\n  tag_1\n  jumpi\n  0x00\n  dup1\n  revert\ntag_1:\n  pop\n  dataSize(sub_0)\n  dup1\n  dataOffset(sub_0)\n  0x00\n  codecopy\n  0x00\n  return\nstop\n\nsub_0: assembly {\n        /* \"contracts/Chapter8.sol\":187:1231  contract Chapter8 {... */\n      mstore(0x40, 0x80)\n      callvalue\n      dup1\n      iszero\n      tag_1\n      jumpi\n      0x00\n      dup1\n      revert\n    tag_1:\n      pop\n      jumpi(tag_2, lt(calldatasize, 0x04))\n      shr(0xe0, calldataload(0x00))\n      dup1\n      0x8c5c5255\n      gt\n      tag_11\n      jumpi\n      dup1\n      0x8c5c5255\n      eq\n      tag_7\n      jumpi\n      dup1\n      0xa25206d4\n      eq\n      tag_8\n      jumpi\n      dup1\n      0xd09de08a\n      eq\n      tag_9\n      jumpi\n      dup1\n      0xe2a4b2af\n      eq\n      tag_10\n      jumpi\n      jump(tag_2)\n    tag_11:\n      dup1\n      0x0dbe671f\n      eq\n      tag_3\n      jumpi\n      dup1\n      0x2baeceb7\n      eq\n      tag_4\n      jumpi\n      dup1\n      0x4df7e3d0\n      eq\n      tag_5\n      jumpi\n      dup1\n      0x8119c065\n      eq\n      tag_6\n      jumpi\n    tag_2:\n      0x00\n      dup1\n      revert\n        /* \"contracts/Chapter8.sol\":212:229  uint public a = 1 */\n    tag_3:\n      tag_12\n      tag_13\n      jump\t// in\n    tag_12:\n      mload(0x40)\n      tag_14\n      swap2\n      swap1\n      tag_15\n      jump\t// in\n    tag_14:\n      mload(0x40)\n      dup1\n      swap2\n      sub\n      swap1\n      return\n        /* \"contracts/Chapter8.sol\":1109:1166  function decrement() public {... */\n    tag_4:\n      tag_16\n      tag_17\n      jump\t// in\n    tag_16:\n      stop\n        /* \"contracts/Chapter8.sol\":235:252  uint public b = 0 */\n    tag_5:\n      tag_18\n      tag_19\n      jump\t// in\n    tag_18:\n      mload(0x40)\n      tag_20\n      swap2\n      swap1\n      tag_15\n      jump\t// in\n    tag_20:\n      mload(0x40)\n      dup1\n      swap2\n      sub\n      swap1\n      return\n        /* \"contracts/Chapter8.sol\":259:314  function swap() public {... */\n    tag_6:\n      tag_21\n      tag_22\n      jump\t// in\n    tag_21:\n      stop\n        /* \"contracts/Chapter8.sol\":946:1076  function calldataTest(string calldata _exampleString) external pure returns (string memory) {... */\n    tag_7:\n      tag_23\n      0x04\n      dup1\n      calldatasize\n      sub\n      dup2\n      add\n      swap1\n      tag_24\n      swap2\n      swap1\n      tag_25\n      jump\t// in\n    tag_24:\n      tag_26\n      jump\t// in\n    tag_23:\n      mload(0x40)\n      tag_27\n      swap2\n      swap1\n      tag_28\n      jump\t// in\n    tag_27:\n      mload(0x40)\n      dup1\n      swap2\n      sub\n      swap1\n      return\n        /* \"contracts/Chapter8.sol\":735:940  function memoryTest(string memory _exampleString) public pure returns (string memory) {... */\n    tag_8:\n      tag_29\n      0x04\n      dup1\n      calldatasize\n      sub\n      dup2\n      add\n      swap1\n      tag_30\n      swap2\n      swap1\n      tag_31\n      jump\t// in\n    tag_30:\n      tag_32\n      jump\t// in\n    tag_29:\n      mload(0x40)\n      tag_33\n      swap2\n      swap1\n      tag_28\n      jump\t// in\n    tag_33:\n      mload(0x40)\n      dup1\n      swap2\n      sub\n      swap1\n      return\n        /* \"contracts/Chapter8.sol\":1172:1229  function increment() public {... */\n    tag_9:\n      tag_34\n      tag_35\n      jump\t// in\n    tag_34:\n      stop\n        /* \"contracts/Chapter8.sol\":1082:1102  uint8 public myUint8 */\n    tag_10:\n      tag_36\n      tag_37\n      jump\t// in\n    tag_36:\n      mload(0x40)\n      tag_38\n      swap2\n      swap1\n      tag_39\n      jump\t// in\n    tag_38:\n      mload(0x40)\n      dup1\n      swap2\n      sub\n      swap1\n      return\n        /* \"contracts/Chapter8.sol\":212:229  uint public a = 1 */\n    tag_13:\n      sload(0x00)\n      dup2\n      jump\t// out\n        /* \"contracts/Chapter8.sol\":1109:1166  function decrement() public {... */\n    tag_17:\n        /* \"contracts/Chapter8.sol\":1158:1159  1 */\n      0x01\n        /* \"contracts/Chapter8.sol\":1147:1154  myUint8 */\n      0x02\n      0x00\n        /* \"contracts/Chapter8.sol\":1147:1159  myUint8 -= 1 */\n      dup3\n      dup3\n      dup3\n      swap1\n      sload\n      swap1\n      0x0100\n      exp\n      swap1\n      div\n      0xff\n      and\n      tag_41\n      swap2\n      swap1\n      tag_42\n      jump\t// in\n    tag_41:\n      swap3\n      pop\n      0x0100\n      exp\n      dup2\n      sload\n      dup2\n      0xff\n      mul\n      not\n      and\n      swap1\n      dup4\n      0xff\n      and\n      mul\n      or\n      swap1\n      sstore\n      pop\n        /* \"contracts/Chapter8.sol\":1109:1166  function decrement() public {... */\n      jump\t// out\n        /* \"contracts/Chapter8.sol\":235:252  uint public b = 0 */\n    tag_19:\n      sload(0x01)\n      dup2\n      jump\t// out\n        /* \"contracts/Chapter8.sol\":259:314  function swap() public {... */\n    tag_22:\n        /* \"contracts/Chapter8.sol\":302:303  b */\n      sload(0x01)\n        /* \"contracts/Chapter8.sol\":305:306  a */\n      sload(0x00)\n        /* \"contracts/Chapter8.sol\":293:294  a */\n      0x00\n      dup1\n        /* \"contracts/Chapter8.sol\":296:297  b */\n      0x01\n      0x00\n        /* \"contracts/Chapter8.sol\":292:307  (a, b) = (b, a) */\n      dup5\n      swap2\n      swap1\n      pop\n      sstore\n      dup4\n      swap2\n      swap1\n      pop\n      sstore\n      pop\n      pop\n        /* \"contracts/Chapter8.sol\":259:314  function swap() public {... */\n      jump\t// out\n        /* \"contracts/Chapter8.sol\":946:1076  function calldataTest(string calldata _exampleString) external pure returns (string memory) {... */\n    tag_26:\n        /* \"contracts/Chapter8.sol\":1023:1036  string memory */\n      0x60\n        /* \"contracts/Chapter8.sol\":1055:1069  _exampleString */\n      dup3\n      dup3\n        /* \"contracts/Chapter8.sol\":1048:1069  return _exampleString */\n      dup1\n      dup1\n      0x1f\n      add\n      0x20\n      dup1\n      swap2\n      div\n      mul\n      0x20\n      add\n      mload(0x40)\n      swap1\n      dup2\n      add\n      0x40\n      mstore\n      dup1\n      swap4\n      swap3\n      swap2\n      swap1\n      dup2\n      dup2\n      mstore\n      0x20\n      add\n      dup4\n      dup4\n      dup1\n      dup3\n      dup5\n      calldatacopy\n      0x00\n      dup2\n      dup5\n      add\n      mstore\n      not(0x1f)\n      0x1f\n      dup3\n      add\n      and\n      swap1\n      pop\n      dup1\n      dup4\n      add\n      swap3\n      pop\n      pop\n      pop\n      pop\n      pop\n      pop\n      pop\n      swap1\n      pop\n        /* \"contracts/Chapter8.sol\":946:1076  function calldataTest(string calldata _exampleString) external pure returns (string memory) {... */\n      swap3\n      swap2\n      pop\n      pop\n      jump\t// out\n        /* \"contracts/Chapter8.sol\":735:940  function memoryTest(string memory _exampleString) public pure returns (string memory) {... */\n    tag_32:\n        /* \"contracts/Chapter8.sol\":806:819  string memory */\n      0x60\n        /* \"contracts/Chapter8.sol\":831:857  _exampleString = \"example\" */\n      mload(0x40)\n      dup1\n      0x40\n      add\n      0x40\n      mstore\n      dup1\n      0x07\n      dup2\n      mstore\n      0x20\n      add\n      0x6578616d706c6500000000000000000000000000000000000000000000000000\n      dup2\n      mstore\n      pop\n      swap2\n      pop\n        /* \"contracts/Chapter8.sol\":867:890  string memory newString */\n      0x00\n        /* \"contracts/Chapter8.sol\":893:907  _exampleString */\n      dup3\n        /* \"contracts/Chapter8.sol\":867:907  string memory newString = _exampleString */\n      swap1\n      pop\n        /* \"contracts/Chapter8.sol\":924:933  newString */\n      dup1\n        /* \"contracts/Chapter8.sol\":917:933  return newString */\n      swap2\n      pop\n      pop\n        /* \"contracts/Chapter8.sol\":735:940  function memoryTest(string memory _exampleString) public pure returns (string memory) {... */\n      swap2\n      swap1\n      pop\n      jump\t// out\n        /* \"contracts/Chapter8.sol\":1172:1229  function increment() public {... */\n    tag_35:\n        /* \"contracts/Chapter8.sol\":1221:1222  1 */\n      0x01\n        /* \"contracts/Chapter8.sol\":1210:1217  myUint8 */\n      0x02\n      0x00\n        /* \"contracts/Chapter8.sol\":1210:1222  myUint8 += 1 */\n      dup3\n      dup3\n      dup3\n      swap1\n      sload\n      swap1\n      0x0100\n      exp\n      swap1\n      div\n      0xff\n      and\n      tag_47\n      swap2\n      swap1\n      tag_48\n      jump\t// in\n    tag_47:\n      swap3\n      pop\n      0x0100\n      exp\n      dup2\n      sload\n      dup2\n      0xff\n      mul\n      not\n      and\n      swap1\n      dup4\n      0xff\n      and\n      mul\n      or\n      swap1\n      sstore\n      pop\n        /* \"contracts/Chapter8.sol\":1172:1229  function increment() public {... */\n      jump\t// out\n        /* \"contracts/Chapter8.sol\":1082:1102  uint8 public myUint8 */\n    tag_37:\n      0x02\n      0x00\n      swap1\n      sload\n      swap1\n      0x0100\n      exp\n      swap1\n      div\n      0xff\n      and\n      dup2\n      jump\t// out\n        /* \"#utility.yul\":7:84   */\n    tag_49:\n        /* \"#utility.yul\":44:51   */\n      0x00\n        /* \"#utility.yul\":73:78   */\n      dup2\n        /* \"#utility.yul\":62:78   */\n      swap1\n      pop\n        /* \"#utility.yul\":7:84   */\n      swap2\n      swap1\n      pop\n      jump\t// out\n        /* \"#utility.yul\":90:208   */\n    tag_50:\n        /* \"#utility.yul\":177:201   */\n      tag_77\n        /* \"#utility.yul\":195:200   */\n      dup2\n        /* \"#utility.yul\":177:201   */\n      tag_49\n      jump\t// in\n    tag_77:\n        /* \"#utility.yul\":172:175   */\n      dup3\n        /* \"#utility.yul\":165:202   */\n      mstore\n        /* \"#utility.yul\":90:208   */\n      pop\n      pop\n      jump\t// out\n        /* \"#utility.yul\":214:436   */\n    tag_15:\n        /* \"#utility.yul\":307:311   */\n      0x00\n        /* \"#utility.yul\":345:347   */\n      0x20\n        /* \"#utility.yul\":334:343   */\n      dup3\n        /* \"#utility.yul\":330:348   */\n      add\n        /* \"#utility.yul\":322:348   */\n      swap1\n      pop\n        /* \"#utility.yul\":358:429   */\n      tag_79\n        /* \"#utility.yul\":426:427   */\n      0x00\n        /* \"#utility.yul\":415:424   */\n      dup4\n        /* \"#utility.yul\":411:428   */\n      add\n        /* \"#utility.yul\":402:408   */\n      dup5\n        /* \"#utility.yul\":358:429   */\n      tag_50\n      jump\t// in\n    tag_79:\n        /* \"#utility.yul\":214:436   */\n      swap3\n      swap2\n      pop\n      pop\n      jump\t// out\n        /* \"#utility.yul\":442:517   */\n    tag_51:\n        /* \"#utility.yul\":475:481   */\n      0x00\n        /* \"#utility.yul\":508:510   */\n      0x40\n        /* \"#utility.yul\":502:511   */\n      mload\n        /* \"#utility.yul\":492:511   */\n      swap1\n      pop\n        /* \"#utility.yul\":442:517   */\n      swap1\n      jump\t// out\n        /* \"#utility.yul\":523:640   */\n    tag_52:\n        /* \"#utility.yul\":632:633   */\n      0x00\n        /* \"#utility.yul\":629:630   */\n      dup1\n        /* \"#utility.yul\":622:634   */\n      revert\n        /* \"#utility.yul\":646:763   */\n    tag_53:\n        /* \"#utility.yul\":755:756   */\n      0x00\n        /* \"#utility.yul\":752:753   */\n      dup1\n        /* \"#utility.yul\":745:757   */\n      revert\n        /* \"#utility.yul\":769:886   */\n    tag_54:\n        /* \"#utility.yul\":878:879   */\n      0x00\n        /* \"#utility.yul\":875:876   */\n      dup1\n        /* \"#utility.yul\":868:880   */\n      revert\n        /* \"#utility.yul\":892:1009   */\n    tag_55:\n        /* \"#utility.yul\":1001:1002   */\n      0x00\n        /* \"#utility.yul\":998:999   */\n      dup1\n        /* \"#utility.yul\":991:1003   */\n      revert\n        /* \"#utility.yul\":1015:1132   */\n    tag_56:\n        /* \"#utility.yul\":1124:1125   */\n      0x00\n        /* \"#utility.yul\":1121:1122   */\n      dup1\n        /* \"#utility.yul\":1114:1126   */\n      revert\n        /* \"#utility.yul\":1152:1705   */\n    tag_57:\n        /* \"#utility.yul\":1210:1218   */\n      0x00\n        /* \"#utility.yul\":1220:1226   */\n      dup1\n        /* \"#utility.yul\":1270:1273   */\n      dup4\n        /* \"#utility.yul\":1263:1267   */\n      0x1f\n        /* \"#utility.yul\":1255:1261   */\n      dup5\n        /* \"#utility.yul\":1251:1268   */\n      add\n        /* \"#utility.yul\":1247:1274   */\n      slt\n        /* \"#utility.yul\":1237:1359   */\n      tag_87\n      jumpi\n        /* \"#utility.yul\":1278:1357   */\n      tag_88\n      tag_54\n      jump\t// in\n    tag_88:\n        /* \"#utility.yul\":1237:1359   */\n    tag_87:\n        /* \"#utility.yul\":1391:1397   */\n      dup3\n        /* \"#utility.yul\":1378:1398   */\n      calldataload\n        /* \"#utility.yul\":1368:1398   */\n      swap1\n      pop\n        /* \"#utility.yul\":1421:1439   */\n      0xffffffffffffffff\n        /* \"#utility.yul\":1413:1419   */\n      dup2\n        /* \"#utility.yul\":1410:1440   */\n      gt\n        /* \"#utility.yul\":1407:1524   */\n      iszero\n      tag_89\n      jumpi\n        /* \"#utility.yul\":1443:1522   */\n      tag_90\n      tag_55\n      jump\t// in\n    tag_90:\n        /* \"#utility.yul\":1407:1524   */\n    tag_89:\n        /* \"#utility.yul\":1557:1561   */\n      0x20\n        /* \"#utility.yul\":1549:1555   */\n      dup4\n        /* \"#utility.yul\":1545:1562   */\n      add\n        /* \"#utility.yul\":1533:1562   */\n      swap2\n      pop\n        /* \"#utility.yul\":1611:1614   */\n      dup4\n        /* \"#utility.yul\":1603:1607   */\n      0x01\n        /* \"#utility.yul\":1595:1601   */\n      dup3\n        /* \"#utility.yul\":1591:1608   */\n      mul\n        /* \"#utility.yul\":1581:1589   */\n      dup4\n        /* \"#utility.yul\":1577:1609   */\n      add\n        /* \"#utility.yul\":1574:1615   */\n      gt\n        /* \"#utility.yul\":1571:1699   */\n      iszero\n      tag_91\n      jumpi\n        /* \"#utility.yul\":1618:1697   */\n      tag_92\n      tag_56\n      jump\t// in\n    tag_92:\n        /* \"#utility.yul\":1571:1699   */\n    tag_91:\n        /* \"#utility.yul\":1152:1705   */\n      swap3\n      pop\n      swap3\n      swap1\n      pop\n      jump\t// out\n        /* \"#utility.yul\":1711:2240   */\n    tag_25:\n        /* \"#utility.yul\":1782:1788   */\n      0x00\n        /* \"#utility.yul\":1790:1796   */\n      dup1\n        /* \"#utility.yul\":1839:1841   */\n      0x20\n        /* \"#utility.yul\":1827:1836   */\n      dup4\n        /* \"#utility.yul\":1818:1825   */\n      dup6\n        /* \"#utility.yul\":1814:1837   */\n      sub\n        /* \"#utility.yul\":1810:1842   */\n      slt\n        /* \"#utility.yul\":1807:1926   */\n      iszero\n      tag_94\n      jumpi\n        /* \"#utility.yul\":1845:1924   */\n      tag_95\n      tag_52\n      jump\t// in\n    tag_95:\n        /* \"#utility.yul\":1807:1926   */\n    tag_94:\n        /* \"#utility.yul\":1993:1994   */\n      0x00\n        /* \"#utility.yul\":1982:1991   */\n      dup4\n        /* \"#utility.yul\":1978:1995   */\n      add\n        /* \"#utility.yul\":1965:1996   */\n      calldataload\n        /* \"#utility.yul\":2023:2041   */\n      0xffffffffffffffff\n        /* \"#utility.yul\":2015:2021   */\n      dup2\n        /* \"#utility.yul\":2012:2042   */\n      gt\n        /* \"#utility.yul\":2009:2126   */\n      iszero\n      tag_96\n      jumpi\n        /* \"#utility.yul\":2045:2124   */\n      tag_97\n      tag_53\n      jump\t// in\n    tag_97:\n        /* \"#utility.yul\":2009:2126   */\n    tag_96:\n        /* \"#utility.yul\":2158:2223   */\n      tag_98\n        /* \"#utility.yul\":2215:2222   */\n      dup6\n        /* \"#utility.yul\":2206:2212   */\n      dup3\n        /* \"#utility.yul\":2195:2204   */\n      dup7\n        /* \"#utility.yul\":2191:2213   */\n      add\n        /* \"#utility.yul\":2158:2223   */\n      tag_57\n      jump\t// in\n    tag_98:\n        /* \"#utility.yul\":2140:2223   */\n      swap3\n      pop\n      swap3\n      pop\n        /* \"#utility.yul\":1936:2233   */\n      pop\n        /* \"#utility.yul\":1711:2240   */\n      swap3\n      pop\n      swap3\n      swap1\n      pop\n      jump\t// out\n        /* \"#utility.yul\":2246:2345   */\n    tag_58:\n        /* \"#utility.yul\":2298:2304   */\n      0x00\n        /* \"#utility.yul\":2332:2337   */\n      dup2\n        /* \"#utility.yul\":2326:2338   */\n      mload\n        /* \"#utility.yul\":2316:2338   */\n      swap1\n      pop\n        /* \"#utility.yul\":2246:2345   */\n      swap2\n      swap1\n      pop\n      jump\t// out\n        /* \"#utility.yul\":2351:2520   */\n    tag_59:\n        /* \"#utility.yul\":2435:2446   */\n      0x00\n        /* \"#utility.yul\":2469:2475   */\n      dup3\n        /* \"#utility.yul\":2464:2467   */\n      dup3\n        /* \"#utility.yul\":2457:2476   */\n      mstore\n        /* \"#utility.yul\":2509:2513   */\n      0x20\n        /* \"#utility.yul\":2504:2507   */\n      dup3\n        /* \"#utility.yul\":2500:2514   */\n      add\n        /* \"#utility.yul\":2485:2514   */\n      swap1\n      pop\n        /* \"#utility.yul\":2351:2520   */\n      swap3\n      swap2\n      pop\n      pop\n      jump\t// out\n        /* \"#utility.yul\":2526:2772   */\n    tag_60:\n        /* \"#utility.yul\":2607:2608   */\n      0x00\n        /* \"#utility.yul\":2617:2730   */\n    tag_102:\n        /* \"#utility.yul\":2631:2637   */\n      dup4\n        /* \"#utility.yul\":2628:2629   */\n      dup2\n        /* \"#utility.yul\":2625:2638   */\n      lt\n        /* \"#utility.yul\":2617:2730   */\n      iszero\n      tag_104\n      jumpi\n        /* \"#utility.yul\":2716:2717   */\n      dup1\n        /* \"#utility.yul\":2711:2714   */\n      dup3\n        /* \"#utility.yul\":2707:2718   */\n      add\n        /* \"#utility.yul\":2701:2719   */\n      mload\n        /* \"#utility.yul\":2697:2698   */\n      dup2\n        /* \"#utility.yul\":2692:2695   */\n      dup5\n        /* \"#utility.yul\":2688:2699   */\n      add\n        /* \"#utility.yul\":2681:2720   */\n      mstore\n        /* \"#utility.yul\":2653:2655   */\n      0x20\n        /* \"#utility.yul\":2650:2651   */\n      dup2\n        /* \"#utility.yul\":2646:2656   */\n      add\n        /* \"#utility.yul\":2641:2656   */\n      swap1\n      pop\n        /* \"#utility.yul\":2617:2730   */\n      jump(tag_102)\n    tag_104:\n        /* \"#utility.yul\":2764:2765   */\n      0x00\n        /* \"#utility.yul\":2755:2761   */\n      dup5\n        /* \"#utility.yul\":2750:2753   */\n      dup5\n        /* \"#utility.yul\":2746:2762   */\n      add\n        /* \"#utility.yul\":2739:2766   */\n      mstore\n        /* \"#utility.yul\":2588:2772   */\n      pop\n        /* \"#utility.yul\":2526:2772   */\n      pop\n      pop\n      pop\n      jump\t// out\n        /* \"#utility.yul\":2778:2880   */\n    tag_61:\n        /* \"#utility.yul\":2819:2825   */\n      0x00\n        /* \"#utility.yul\":2870:2872   */\n      0x1f\n        /* \"#utility.yul\":2866:2873   */\n      not\n        /* \"#utility.yul\":2861:2863   */\n      0x1f\n        /* \"#utility.yul\":2854:2859   */\n      dup4\n        /* \"#utility.yul\":2850:2864   */\n      add\n        /* \"#utility.yul\":2846:2874   */\n      and\n        /* \"#utility.yul\":2836:2874   */\n      swap1\n      pop\n        /* \"#utility.yul\":2778:2880   */\n      swap2\n      swap1\n      pop\n      jump\t// out\n        /* \"#utility.yul\":2886:3263   */\n    tag_62:\n        /* \"#utility.yul\":2974:2977   */\n      0x00\n        /* \"#utility.yul\":3002:3041   */\n      tag_107\n        /* \"#utility.yul\":3035:3040   */\n      dup3\n        /* \"#utility.yul\":3002:3041   */\n      tag_58\n      jump\t// in\n    tag_107:\n        /* \"#utility.yul\":3057:3128   */\n      tag_108\n        /* \"#utility.yul\":3121:3127   */\n      dup2\n        /* \"#utility.yul\":3116:3119   */\n      dup6\n        /* \"#utility.yul\":3057:3128   */\n      tag_59\n      jump\t// in\n    tag_108:\n        /* \"#utility.yul\":3050:3128   */\n      swap4\n      pop\n        /* \"#utility.yul\":3137:3202   */\n      tag_109\n        /* \"#utility.yul\":3195:3201   */\n      dup2\n        /* \"#utility.yul\":3190:3193   */\n      dup6\n        /* \"#utility.yul\":3183:3187   */\n      0x20\n        /* \"#utility.yul\":3176:3181   */\n      dup7\n        /* \"#utility.yul\":3172:3188   */\n      add\n        /* \"#utility.yul\":3137:3202   */\n      tag_60\n      jump\t// in\n    tag_109:\n        /* \"#utility.yul\":3227:3256   */\n      tag_110\n        /* \"#utility.yul\":3249:3255   */\n      dup2\n        /* \"#utility.yul\":3227:3256   */\n      tag_61\n      jump\t// in\n    tag_110:\n        /* \"#utility.yul\":3222:3225   */\n      dup5\n        /* \"#utility.yul\":3218:3257   */\n      add\n        /* \"#utility.yul\":3211:3257   */\n      swap2\n      pop\n        /* \"#utility.yul\":2978:3263   */\n      pop\n        /* \"#utility.yul\":2886:3263   */\n      swap3\n      swap2\n      pop\n      pop\n      jump\t// out\n        /* \"#utility.yul\":3269:3582   */\n    tag_28:\n        /* \"#utility.yul\":3382:3386   */\n      0x00\n        /* \"#utility.yul\":3420:3422   */\n      0x20\n        /* \"#utility.yul\":3409:3418   */\n      dup3\n        /* \"#utility.yul\":3405:3423   */\n      add\n        /* \"#utility.yul\":3397:3423   */\n      swap1\n      pop\n        /* \"#utility.yul\":3469:3478   */\n      dup2\n        /* \"#utility.yul\":3463:3467   */\n      dup2\n        /* \"#utility.yul\":3459:3479   */\n      sub\n        /* \"#utility.yul\":3455:3456   */\n      0x00\n        /* \"#utility.yul\":3444:3453   */\n      dup4\n        /* \"#utility.yul\":3440:3457   */\n      add\n        /* \"#utility.yul\":3433:3480   */\n      mstore\n        /* \"#utility.yul\":3497:3575   */\n      tag_112\n        /* \"#utility.yul\":3570:3574   */\n      dup2\n        /* \"#utility.yul\":3561:3567   */\n      dup5\n        /* \"#utility.yul\":3497:3575   */\n      tag_62\n      jump\t// in\n    tag_112:\n        /* \"#utility.yul\":3489:3575   */\n      swap1\n      pop\n        /* \"#utility.yul\":3269:3582   */\n      swap3\n      swap2\n      pop\n      pop\n      jump\t// out\n        /* \"#utility.yul\":3588:3705   */\n    tag_63:\n        /* \"#utility.yul\":3697:3698   */\n      0x00\n        /* \"#utility.yul\":3694:3695   */\n      dup1\n        /* \"#utility.yul\":3687:3699   */\n      revert\n        /* \"#utility.yul\":3711:3891   */\n    tag_64:\n        /* \"#utility.yul\":3759:3836   */\n      0x4e487b7100000000000000000000000000000000000000000000000000000000\n        /* \"#utility.yul\":3756:3757   */\n      0x00\n        /* \"#utility.yul\":3749:3837   */\n      mstore\n        /* \"#utility.yul\":3856:3860   */\n      0x41\n        /* \"#utility.yul\":3853:3854   */\n      0x04\n        /* \"#utility.yul\":3846:3861   */\n      mstore\n        /* \"#utility.yul\":3880:3884   */\n      0x24\n        /* \"#utility.yul\":3877:3878   */\n      0x00\n        /* \"#utility.yul\":3870:3885   */\n      revert\n        /* \"#utility.yul\":3897:4178   */\n    tag_65:\n        /* \"#utility.yul\":3980:4007   */\n      tag_116\n        /* \"#utility.yul\":4002:4006   */\n      dup3\n        /* \"#utility.yul\":3980:4007   */\n      tag_61\n      jump\t// in\n    tag_116:\n        /* \"#utility.yul\":3972:3978   */\n      dup2\n        /* \"#utility.yul\":3968:4008   */\n      add\n        /* \"#utility.yul\":4110:4116   */\n      dup2\n        /* \"#utility.yul\":4098:4108   */\n      dup2\n        /* \"#utility.yul\":4095:4117   */\n      lt\n        /* \"#utility.yul\":4074:4092   */\n      0xffffffffffffffff\n        /* \"#utility.yul\":4062:4072   */\n      dup3\n        /* \"#utility.yul\":4059:4093   */\n      gt\n        /* \"#utility.yul\":4056:4118   */\n      or\n        /* \"#utility.yul\":4053:4141   */\n      iszero\n      tag_117\n      jumpi\n        /* \"#utility.yul\":4121:4139   */\n      tag_118\n      tag_64\n      jump\t// in\n    tag_118:\n        /* \"#utility.yul\":4053:4141   */\n    tag_117:\n        /* \"#utility.yul\":4161:4171   */\n      dup1\n        /* \"#utility.yul\":4157:4159   */\n      0x40\n        /* \"#utility.yul\":4150:4172   */\n      mstore\n        /* \"#utility.yul\":3940:4178   */\n      pop\n        /* \"#utility.yul\":3897:4178   */\n      pop\n      pop\n      jump\t// out\n        /* \"#utility.yul\":4184:4313   */\n    tag_66:\n        /* \"#utility.yul\":4218:4224   */\n      0x00\n        /* \"#utility.yul\":4245:4265   */\n      tag_120\n      tag_51\n      jump\t// in\n    tag_120:\n        /* \"#utility.yul\":4235:4265   */\n      swap1\n      pop\n        /* \"#utility.yul\":4274:4307   */\n      tag_121\n        /* \"#utility.yul\":4302:4306   */\n      dup3\n        /* \"#utility.yul\":4294:4300   */\n      dup3\n        /* \"#utility.yul\":4274:4307   */\n      tag_65\n      jump\t// in\n    tag_121:\n        /* \"#utility.yul\":4184:4313   */\n      swap2\n      swap1\n      pop\n      jump\t// out\n        /* \"#utility.yul\":4319:4627   */\n    tag_67:\n        /* \"#utility.yul\":4381:4385   */\n      0x00\n        /* \"#utility.yul\":4471:4489   */\n      0xffffffffffffffff\n        /* \"#utility.yul\":4463:4469   */\n      dup3\n        /* \"#utility.yul\":4460:4490   */\n      gt\n        /* \"#utility.yul\":4457:4513   */\n      iszero\n      tag_123\n      jumpi\n        /* \"#utility.yul\":4493:4511   */\n      tag_124\n      tag_64\n      jump\t// in\n    tag_124:\n        /* \"#utility.yul\":4457:4513   */\n    tag_123:\n        /* \"#utility.yul\":4531:4560   */\n      tag_125\n        /* \"#utility.yul\":4553:4559   */\n      dup3\n        /* \"#utility.yul\":4531:4560   */\n      tag_61\n      jump\t// in\n    tag_125:\n        /* \"#utility.yul\":4523:4560   */\n      swap1\n      pop\n        /* \"#utility.yul\":4615:4619   */\n      0x20\n        /* \"#utility.yul\":4609:4613   */\n      dup2\n        /* \"#utility.yul\":4605:4620   */\n      add\n        /* \"#utility.yul\":4597:4620   */\n      swap1\n      pop\n        /* \"#utility.yul\":4319:4627   */\n      swap2\n      swap1\n      pop\n      jump\t// out\n        /* \"#utility.yul\":4633:4779   */\n    tag_68:\n        /* \"#utility.yul\":4730:4736   */\n      dup3\n        /* \"#utility.yul\":4725:4728   */\n      dup2\n        /* \"#utility.yul\":4720:4723   */\n      dup4\n        /* \"#utility.yul\":4707:4737   */\n      calldatacopy\n        /* \"#utility.yul\":4771:4772   */\n      0x00\n        /* \"#utility.yul\":4762:4768   */\n      dup4\n        /* \"#utility.yul\":4757:4760   */\n      dup4\n        /* \"#utility.yul\":4753:4769   */\n      add\n        /* \"#utility.yul\":4746:4773   */\n      mstore\n        /* \"#utility.yul\":4633:4779   */\n      pop\n      pop\n      pop\n      jump\t// out\n        /* \"#utility.yul\":4785:5210   */\n    tag_69:\n        /* \"#utility.yul\":4863:4868   */\n      0x00\n        /* \"#utility.yul\":4888:4954   */\n      tag_128\n        /* \"#utility.yul\":4904:4953   */\n      tag_129\n        /* \"#utility.yul\":4946:4952   */\n      dup5\n        /* \"#utility.yul\":4904:4953   */\n      tag_67\n      jump\t// in\n    tag_129:\n        /* \"#utility.yul\":4888:4954   */\n      tag_66\n      jump\t// in\n    tag_128:\n        /* \"#utility.yul\":4879:4954   */\n      swap1\n      pop\n        /* \"#utility.yul\":4977:4983   */\n      dup3\n        /* \"#utility.yul\":4970:4975   */\n      dup2\n        /* \"#utility.yul\":4963:4984   */\n      mstore\n        /* \"#utility.yul\":5015:5019   */\n      0x20\n        /* \"#utility.yul\":5008:5013   */\n      dup2\n        /* \"#utility.yul\":5004:5020   */\n      add\n        /* \"#utility.yul\":5053:5056   */\n      dup5\n        /* \"#utility.yul\":5044:5050   */\n      dup5\n        /* \"#utility.yul\":5039:5042   */\n      dup5\n        /* \"#utility.yul\":5035:5051   */\n      add\n        /* \"#utility.yul\":5032:5057   */\n      gt\n        /* \"#utility.yul\":5029:5141   */\n      iszero\n      tag_130\n      jumpi\n        /* \"#utility.yul\":5060:5139   */\n      tag_131\n      tag_63\n      jump\t// in\n    tag_131:\n        /* \"#utility.yul\":5029:5141   */\n    tag_130:\n        /* \"#utility.yul\":5150:5204   */\n      tag_132\n        /* \"#utility.yul\":5197:5203   */\n      dup5\n        /* \"#utility.yul\":5192:5195   */\n      dup3\n        /* \"#utility.yul\":5187:5190   */\n      dup6\n        /* \"#utility.yul\":5150:5204   */\n      tag_68\n      jump\t// in\n    tag_132:\n        /* \"#utility.yul\":4869:5210   */\n      pop\n        /* \"#utility.yul\":4785:5210   */\n      swap4\n      swap3\n      pop\n      pop\n      pop\n      jump\t// out\n        /* \"#utility.yul\":5230:5570   */\n    tag_70:\n        /* \"#utility.yul\":5286:5291   */\n      0x00\n        /* \"#utility.yul\":5335:5338   */\n      dup3\n        /* \"#utility.yul\":5328:5332   */\n      0x1f\n        /* \"#utility.yul\":5320:5326   */\n      dup4\n        /* \"#utility.yul\":5316:5333   */\n      add\n        /* \"#utility.yul\":5312:5339   */\n      slt\n        /* \"#utility.yul\":5302:5424   */\n      tag_134\n      jumpi\n        /* \"#utility.yul\":5343:5422   */\n      tag_135\n      tag_54\n      jump\t// in\n    tag_135:\n        /* \"#utility.yul\":5302:5424   */\n    tag_134:\n        /* \"#utility.yul\":5460:5466   */\n      dup2\n        /* \"#utility.yul\":5447:5467   */\n      calldataload\n        /* \"#utility.yul\":5485:5564   */\n      tag_136\n        /* \"#utility.yul\":5560:5563   */\n      dup5\n        /* \"#utility.yul\":5552:5558   */\n      dup3\n        /* \"#utility.yul\":5545:5549   */\n      0x20\n        /* \"#utility.yul\":5537:5543   */\n      dup7\n        /* \"#utility.yul\":5533:5550   */\n      add\n        /* \"#utility.yul\":5485:5564   */\n      tag_69\n      jump\t// in\n    tag_136:\n        /* \"#utility.yul\":5476:5564   */\n      swap2\n      pop\n        /* \"#utility.yul\":5292:5570   */\n      pop\n        /* \"#utility.yul\":5230:5570   */\n      swap3\n      swap2\n      pop\n      pop\n      jump\t// out\n        /* \"#utility.yul\":5576:6085   */\n    tag_31:\n        /* \"#utility.yul\":5645:5651   */\n      0x00\n        /* \"#utility.yul\":5694:5696   */\n      0x20\n        /* \"#utility.yul\":5682:5691   */\n      dup3\n        /* \"#utility.yul\":5673:5680   */\n      dup5\n        /* \"#utility.yul\":5669:5692   */\n      sub\n        /* \"#utility.yul\":5665:5697   */\n      slt\n        /* \"#utility.yul\":5662:5781   */\n      iszero\n      tag_138\n      jumpi\n        /* \"#utility.yul\":5700:5779   */\n      tag_139\n      tag_52\n      jump\t// in\n    tag_139:\n        /* \"#utility.yul\":5662:5781   */\n    tag_138:\n        /* \"#utility.yul\":5848:5849   */\n      0x00\n        /* \"#utility.yul\":5837:5846   */\n      dup3\n        /* \"#utility.yul\":5833:5850   */\n      add\n        /* \"#utility.yul\":5820:5851   */\n      calldataload\n        /* \"#utility.yul\":5878:5896   */\n      0xffffffffffffffff\n        /* \"#utility.yul\":5870:5876   */\n      dup2\n        /* \"#utility.yul\":5867:5897   */\n      gt\n        /* \"#utility.yul\":5864:5981   */\n      iszero\n      tag_140\n      jumpi\n        /* \"#utility.yul\":5900:5979   */\n      tag_141\n      tag_53\n      jump\t// in\n    tag_141:\n        /* \"#utility.yul\":5864:5981   */\n    tag_140:\n        /* \"#utility.yul\":6005:6068   */\n      tag_142\n        /* \"#utility.yul\":6060:6067   */\n      dup5\n        /* \"#utility.yul\":6051:6057   */\n      dup3\n        /* \"#utility.yul\":6040:6049   */\n      dup6\n        /* \"#utility.yul\":6036:6058   */\n      add\n        /* \"#utility.yul\":6005:6068   */\n      tag_70\n      jump\t// in\n    tag_142:\n        /* \"#utility.yul\":5995:6068   */\n      swap2\n      pop\n        /* \"#utility.yul\":5791:6078   */\n      pop\n        /* \"#utility.yul\":5576:6085   */\n      swap3\n      swap2\n      pop\n      pop\n      jump\t// out\n        /* \"#utility.yul\":6091:6177   */\n    tag_71:\n        /* \"#utility.yul\":6126:6133   */\n      0x00\n        /* \"#utility.yul\":6166:6170   */\n      0xff\n        /* \"#utility.yul\":6159:6164   */\n      dup3\n        /* \"#utility.yul\":6155:6171   */\n      and\n        /* \"#utility.yul\":6144:6171   */\n      swap1\n      pop\n        /* \"#utility.yul\":6091:6177   */\n      swap2\n      swap1\n      pop\n      jump\t// out\n        /* \"#utility.yul\":6183:6295   */\n    tag_72:\n        /* \"#utility.yul\":6266:6288   */\n      tag_145\n        /* \"#utility.yul\":6282:6287   */\n      dup2\n        /* \"#utility.yul\":6266:6288   */\n      tag_71\n      jump\t// in\n    tag_145:\n        /* \"#utility.yul\":6261:6264   */\n      dup3\n        /* \"#utility.yul\":6254:6289   */\n      mstore\n        /* \"#utility.yul\":6183:6295   */\n      pop\n      pop\n      jump\t// out\n        /* \"#utility.yul\":6301:6515   */\n    tag_39:\n        /* \"#utility.yul\":6390:6394   */\n      0x00\n        /* \"#utility.yul\":6428:6430   */\n      0x20\n        /* \"#utility.yul\":6417:6426   */\n      dup3\n        /* \"#utility.yul\":6413:6431   */\n      add\n        /* \"#utility.yul\":6405:6431   */\n      swap1\n      pop\n        /* \"#utility.yul\":6441:6508   */\n      tag_147\n        /* \"#utility.yul\":6505:6506   */\n      0x00\n        /* \"#utility.yul\":6494:6503   */\n      dup4\n        /* \"#utility.yul\":6490:6507   */\n      add\n        /* \"#utility.yul\":6481:6487   */\n      dup5\n        /* \"#utility.yul\":6441:6508   */\n      tag_72\n      jump\t// in\n    tag_147:\n        /* \"#utility.yul\":6301:6515   */\n      swap3\n      swap2\n      pop\n      pop\n      jump\t// out\n        /* \"#utility.yul\":6521:6701   */\n    tag_73:\n        /* \"#utility.yul\":6569:6646   */\n      0x4e487b7100000000000000000000000000000000000000000000000000000000\n        /* \"#utility.yul\":6566:6567   */\n      0x00\n        /* \"#utility.yul\":6559:6647   */\n      mstore\n        /* \"#utility.yul\":6666:6670   */\n      0x11\n        /* \"#utility.yul\":6663:6664   */\n      0x04\n        /* \"#utility.yul\":6656:6671   */\n      mstore\n        /* \"#utility.yul\":6690:6694   */\n      0x24\n        /* \"#utility.yul\":6687:6688   */\n      0x00\n        /* \"#utility.yul\":6680:6695   */\n      revert\n        /* \"#utility.yul\":6707:6898   */\n    tag_42:\n        /* \"#utility.yul\":6745:6749   */\n      0x00\n        /* \"#utility.yul\":6765:6783   */\n      tag_150\n        /* \"#utility.yul\":6781:6782   */\n      dup3\n        /* \"#utility.yul\":6765:6783   */\n      tag_71\n      jump\t// in\n    tag_150:\n        /* \"#utility.yul\":6760:6783   */\n      swap2\n      pop\n        /* \"#utility.yul\":6797:6815   */\n      tag_151\n        /* \"#utility.yul\":6813:6814   */\n      dup4\n        /* \"#utility.yul\":6797:6815   */\n      tag_71\n      jump\t// in\n    tag_151:\n        /* \"#utility.yul\":6792:6815   */\n      swap3\n      pop\n        /* \"#utility.yul\":6839:6840   */\n      dup3\n        /* \"#utility.yul\":6836:6837   */\n      dup3\n        /* \"#utility.yul\":6832:6841   */\n      sub\n        /* \"#utility.yul\":6824:6841   */\n      swap1\n      pop\n        /* \"#utility.yul\":6863:6867   */\n      0xff\n        /* \"#utility.yul\":6857:6861   */\n      dup2\n        /* \"#utility.yul\":6854:6868   */\n      gt\n        /* \"#utility.yul\":6851:6891   */\n      iszero\n      tag_152\n      jumpi\n        /* \"#utility.yul\":6871:6889   */\n      tag_153\n      tag_73\n      jump\t// in\n    tag_153:\n        /* \"#utility.yul\":6851:6891   */\n    tag_152:\n        /* \"#utility.yul\":6707:6898   */\n      swap3\n      swap2\n      pop\n      pop\n      jump\t// out\n        /* \"#utility.yul\":6904:7092   */\n    tag_48:\n        /* \"#utility.yul\":6942:6945   */\n      0x00\n        /* \"#utility.yul\":6961:6979   */\n      tag_155\n        /* \"#utility.yul\":6977:6978   */\n      dup3\n        /* \"#utility.yul\":6961:6979   */\n      tag_71\n      jump\t// in\n    tag_155:\n        /* \"#utility.yul\":6956:6979   */\n      swap2\n      pop\n        /* \"#utility.yul\":6993:7011   */\n      tag_156\n        /* \"#utility.yul\":7009:7010   */\n      dup4\n        /* \"#utility.yul\":6993:7011   */\n      tag_71\n      jump\t// in\n    tag_156:\n        /* \"#utility.yul\":6988:7011   */\n      swap3\n      pop\n        /* \"#utility.yul\":7034:7035   */\n      dup3\n        /* \"#utility.yul\":7031:7032   */\n      dup3\n        /* \"#utility.yul\":7027:7036   */\n      add\n        /* \"#utility.yul\":7020:7036   */\n      swap1\n      pop\n        /* \"#utility.yul\":7057:7061   */\n      0xff\n        /* \"#utility.yul\":7052:7055   */\n      dup2\n        /* \"#utility.yul\":7049:7062   */\n      gt\n        /* \"#utility.yul\":7046:7085   */\n      iszero\n      tag_157\n      jumpi\n        /* \"#utility.yul\":7065:7083   */\n      tag_158\n      tag_73\n      jump\t// in\n    tag_158:\n        /* \"#utility.yul\":7046:7085   */\n    tag_157:\n        /* \"#utility.yul\":6904:7092   */\n      swap3\n      swap2\n      pop\n      pop\n      jump\t// out\n\n    auxdata: 0xa26469706673582212204e6f0b0dcb4b4c63c3cc6f8f0625f435259a70124f570c39a92f7f56accb6ed564736f6c63430008120033\n}\n",
				"bytecode": {
					"linkReferences": {},
					"object": "60806040526001600055600060015534801561001a57600080fd5b506106d38061002a6000396000f3fe608060405234801561001057600080fd5b50600436106100885760003560e01c80638c5c52551161005b5780638c5c5255146100dd578063a25206d41461010d578063d09de08a1461013d578063e2a4b2af1461014757610088565b80630dbe671f1461008d5780632baeceb7146100ab5780634df7e3d0146100b55780638119c065146100d3575b600080fd5b610095610165565b6040516100a291906102c1565b60405180910390f35b6100b361016b565b005b6100bd6101a4565b6040516100ca91906102c1565b60405180910390f35b6100db6101aa565b005b6100f760048036038101906100f29190610355565b6101c5565b6040516101049190610432565b60405180910390f35b61012760048036038101906101229190610584565b610214565b6040516101349190610432565b60405180910390f35b61014561025c565b005b61014f610295565b60405161015c91906105e9565b60405180910390f35b60005481565b6001600260008282829054906101000a900460ff1661018a9190610633565b92506101000a81548160ff021916908360ff160217905550565b60015481565b60015460005460008060016000849190505583919050555050565b606082828080601f016020809104026020016040519081016040528093929190818152602001838380828437600081840152601f19601f82011690508083019250505050505050905092915050565b60606040518060400160405280600781526020017f6578616d706c65000000000000000000000000000000000000000000000000008152509150600082905080915050919050565b6001600260008282829054906101000a900460ff1661027b9190610668565b92506101000a81548160ff021916908360ff160217905550565b600260009054906101000a900460ff1681565b6000819050919050565b6102bb816102a8565b82525050565b60006020820190506102d660008301846102b2565b92915050565b6000604051905090565b600080fd5b600080fd5b600080fd5b600080fd5b600080fd5b60008083601f840112610315576103146102f0565b5b8235905067ffffffffffffffff811115610332576103316102f5565b5b60208301915083600182028301111561034e5761034d6102fa565b5b9250929050565b6000806020838503121561036c5761036b6102e6565b5b600083013567ffffffffffffffff81111561038a576103896102eb565b5b610396858286016102ff565b92509250509250929050565b600081519050919050565b600082825260208201905092915050565b60005b838110156103dc5780820151818401526020810190506103c1565b60008484015250505050565b6000601f19601f8301169050919050565b6000610404826103a2565b61040e81856103ad565b935061041e8185602086016103be565b610427816103e8565b840191505092915050565b6000602082019050818103600083015261044c81846103f9565b905092915050565b600080fd5b7f4e487b7100000000000000000000000000000000000000000000000000000000600052604160045260246000fd5b610491826103e8565b810181811067ffffffffffffffff821117156104b0576104af610459565b5b80604052505050565b60006104c36102dc565b90506104cf8282610488565b919050565b600067ffffffffffffffff8211156104ef576104ee610459565b5b6104f8826103e8565b9050602081019050919050565b82818337600083830152505050565b6000610527610522846104d4565b6104b9565b90508281526020810184848401111561054357610542610454565b5b61054e848285610505565b509392505050565b600082601f83011261056b5761056a6102f0565b5b813561057b848260208601610514565b91505092915050565b60006020828403121561059a576105996102e6565b5b600082013567ffffffffffffffff8111156105b8576105b76102eb565b5b6105c484828501610556565b91505092915050565b600060ff82169050919050565b6105e3816105cd565b82525050565b60006020820190506105fe60008301846105da565b92915050565b7f4e487b7100000000000000000000000000000000000000000000000000000000600052601160045260246000fd5b600061063e826105cd565b9150610649836105cd565b9250828203905060ff81111561066257610661610604565b5b92915050565b6000610673826105cd565b915061067e836105cd565b9250828201905060ff81111561069757610696610604565b5b9291505056fea26469706673582212204e6f0b0dcb4b4c63c3cc6f8f0625f435259a70124f570c39a92f7f56accb6ed564736f6c63430008120033",
					"opcodes": "PUSH1 0x80 PUSH1 0x40 MSTORE PUSH1 0x1 PUSH1 0x0 SSTORE PUSH1 0x0 PUSH1 0x1 SSTORE CALLVALUE DUP1 ISZERO PUSH2 0x1A JUMPI PUSH1 0x0 DUP1 REVERT JUMPDEST POP PUSH2 0x6D3 DUP1 PUSH2 0x2A PUSH1 0x0 CODECOPY PUSH1 0x0 RETURN INVALID PUSH1 0x80 PUSH1 0x40 MSTORE CALLVALUE DUP1 ISZERO PUSH2 0x10 JUMPI PUSH1 0x0 DUP1 REVERT JUMPDEST POP PUSH1 0x4 CALLDATASIZE LT PUSH2 0x88 JUMPI PUSH1 0x0 CALLDATALOAD PUSH1 0xE0 SHR DUP1 PUSH4 0x8C5C5255 GT PUSH2 0x5B JUMPI DUP1 PUSH4 0x8C5C5255 EQ PUSH2 0xDD JUMPI DUP1 PUSH4 0xA25206D4 EQ PUSH2 0x10D JUMPI DUP1 PUSH4 0xD09DE08A EQ PUSH2 0x13D JUMPI DUP1 PUSH4 0xE2A4B2AF EQ PUSH2 0x147 JUMPI PUSH2 0x88 JUMP JUMPDEST DUP1 PUSH4 0xDBE671F EQ PUSH2 0x8D JUMPI DUP1 PUSH4 0x2BAECEB7 EQ PUSH2 0xAB JUMPI DUP1 PUSH4 0x4DF7E3D0 EQ PUSH2 0xB5 JUMPI DUP1 PUSH4 0x8119C065 EQ PUSH2 0xD3 JUMPI JUMPDEST PUSH1 0x0 DUP1 REVERT JUMPDEST PUSH2 0x95 PUSH2 0x165 JUMP JUMPDEST PUSH1 0x40 MLOAD PUSH2 0xA2 SWAP2 SWAP1 PUSH2 0x2C1 JUMP JUMPDEST PUSH1 0x40 MLOAD DUP1 SWAP2 SUB SWAP1 RETURN JUMPDEST PUSH2 0xB3 PUSH2 0x16B JUMP JUMPDEST STOP JUMPDEST PUSH2 0xBD PUSH2 0x1A4 JUMP JUMPDEST PUSH1 0x40 MLOAD PUSH2 0xCA SWAP2 SWAP1 PUSH2 0x2C1 JUMP JUMPDEST PUSH1 0x40 MLOAD DUP1 SWAP2 SUB SWAP1 RETURN JUMPDEST PUSH2 0xDB PUSH2 0x1AA JUMP JUMPDEST STOP JUMPDEST PUSH2 0xF7 PUSH1 0x4 DUP1 CALLDATASIZE SUB DUP2 ADD SWAP1 PUSH2 0xF2 SWAP2 SWAP1 PUSH2 0x355 JUMP JUMPDEST PUSH2 0x1C5 JUMP JUMPDEST PUSH1 0x40 MLOAD PUSH2 0x104 SWAP2 SWAP1 PUSH2 0x432 JUMP JUMPDEST PUSH1 0x40 MLOAD DUP1 SWAP2 SUB SWAP1 RETURN JUMPDEST PUSH2 0x127 PUSH1 0x4 DUP1 CALLDATASIZE SUB DUP2 ADD SWAP1 PUSH2 0x122 SWAP2 SWAP1 PUSH2 0x584 JUMP JUMPDEST PUSH2 0x214 JUMP JUMPDEST PUSH1 0x40 MLOAD PUSH2 0x134 SWAP2 SWAP1 PUSH2 0x432 JUMP JUMPDEST PUSH1 0x40 MLOAD DUP1 SWAP2 SUB SWAP1 RETURN JUMPDEST PUSH2 0x145 PUSH2 0x25C JUMP JUMPDEST STOP JUMPDEST PUSH2 0x14F PUSH2 0x295 JUMP JUMPDEST PUSH1 0x40 MLOAD PUSH2 0x15C SWAP2 SWAP1 PUSH2 0x5E9 JUMP JUMPDEST PUSH1 0x40 MLOAD DUP1 SWAP2 SUB SWAP1 RETURN JUMPDEST PUSH1 0x0 SLOAD DUP2 JUMP JUMPDEST PUSH1 0x1 PUSH1 0x2 PUSH1 0x0 DUP3 DUP3 DUP3 SWAP1 SLOAD SWAP1 PUSH2 0x100 EXP SWAP1 DIV PUSH1 0xFF AND PUSH2 0x18A SWAP2 SWAP1 PUSH2 0x633 JUMP JUMPDEST SWAP3 POP PUSH2 0x100 EXP DUP2 SLOAD DUP2 PUSH1 0xFF MUL NOT AND SWAP1 DUP4 PUSH1 0xFF AND MUL OR SWAP1 SSTORE POP JUMP JUMPDEST PUSH1 0x1 SLOAD DUP2 JUMP JUMPDEST PUSH1 0x1 SLOAD PUSH1 0x0 SLOAD PUSH1 0x0 DUP1 PUSH1 0x1 PUSH1 0x0 DUP5 SWAP2 SWAP1 POP SSTORE DUP4 SWAP2 SWAP1 POP SSTORE POP POP JUMP JUMPDEST PUSH1 0x60 DUP3 DUP3 DUP1 DUP1 PUSH1 0x1F ADD PUSH1 0x20 DUP1 SWAP2 DIV MUL PUSH1 0x20 ADD PUSH1 0x40 MLOAD SWAP1 DUP2 ADD PUSH1 0x40 MSTORE DUP1 SWAP4 SWAP3 SWAP2 SWAP1 DUP2 DUP2 MSTORE PUSH1 0x20 ADD DUP4 DUP4 DUP1 DUP3 DUP5 CALLDATACOPY PUSH1 0x0 DUP2 DUP5 ADD MSTORE PUSH1 0x1F NOT PUSH1 0x1F DUP3 ADD AND SWAP1 POP DUP1 DUP4 ADD SWAP3 POP POP POP POP POP POP POP SWAP1 POP SWAP3 SWAP2 POP POP JUMP JUMPDEST PUSH1 0x60 PUSH1 0x40 MLOAD DUP1 PUSH1 0x40 ADD PUSH1 0x40 MSTORE DUP1 PUSH1 0x7 DUP2 MSTORE PUSH1 0x20 ADD PUSH32 0x6578616D706C6500000000000000000000000000000000000000000000000000 DUP2 MSTORE POP SWAP2 POP PUSH1 0x0 DUP3 SWAP1 POP DUP1 SWAP2 POP POP SWAP2 SWAP1 POP JUMP JUMPDEST PUSH1 0x1 PUSH1 0x2 PUSH1 0x0 DUP3 DUP3 DUP3 SWAP1 SLOAD SWAP1 PUSH2 0x100 EXP SWAP1 DIV PUSH1 0xFF AND PUSH2 0x27B SWAP2 SWAP1 PUSH2 0x668 JUMP JUMPDEST SWAP3 POP PUSH2 0x100 EXP DUP2 SLOAD DUP2 PUSH1 0xFF MUL NOT AND SWAP1 DUP4 PUSH1 0xFF AND MUL OR SWAP1 SSTORE POP JUMP JUMPDEST PUSH1 0x2 PUSH1 0x0 SWAP1 SLOAD SWAP1 PUSH2 0x100 EXP SWAP1 DIV PUSH1 0xFF AND DUP2 JUMP JUMPDEST PUSH1 0x0 DUP2 SWAP1 POP SWAP2 SWAP1 POP JUMP JUMPDEST PUSH2 0x2BB DUP2 PUSH2 0x2A8 JUMP JUMPDEST DUP3 MSTORE POP POP JUMP JUMPDEST PUSH1 0x0 PUSH1 0x20 DUP3 ADD SWAP1 POP PUSH2 0x2D6 PUSH1 0x0 DUP4 ADD DUP5 PUSH2 0x2B2 JUMP JUMPDEST SWAP3 SWAP2 POP POP JUMP JUMPDEST PUSH1 0x0 PUSH1 0x40 MLOAD SWAP1 POP SWAP1 JUMP JUMPDEST PUSH1 0x0 DUP1 REVERT JUMPDEST PUSH1 0x0 DUP1 REVERT JUMPDEST PUSH1 0x0 DUP1 REVERT JUMPDEST PUSH1 0x0 DUP1 REVERT JUMPDEST PUSH1 0x0 DUP1 REVERT JUMPDEST PUSH1 0x0 DUP1 DUP4 PUSH1 0x1F DUP5 ADD SLT PUSH2 0x315 JUMPI PUSH2 0x314 PUSH2 0x2F0 JUMP JUMPDEST JUMPDEST DUP3 CALLDATALOAD SWAP1 POP PUSH8 0xFFFFFFFFFFFFFFFF DUP2 GT ISZERO PUSH2 0x332 JUMPI PUSH2 0x331 PUSH2 0x2F5 JUMP JUMPDEST JUMPDEST PUSH1 0x20 DUP4 ADD SWAP2 POP DUP4 PUSH1 0x1 DUP3 MUL DUP4 ADD GT ISZERO PUSH2 0x34E JUMPI PUSH2 0x34D PUSH2 0x2FA JUMP JUMPDEST JUMPDEST SWAP3 POP SWAP3 SWAP1 POP JUMP JUMPDEST PUSH1 0x0 DUP1 PUSH1 0x20 DUP4 DUP6 SUB SLT ISZERO PUSH2 0x36C JUMPI PUSH2 0x36B PUSH2 0x2E6 JUMP JUMPDEST JUMPDEST PUSH1 0x0 DUP4 ADD CALLDATALOAD PUSH8 0xFFFFFFFFFFFFFFFF DUP2 GT ISZERO PUSH2 0x38A JUMPI PUSH2 0x389 PUSH2 0x2EB JUMP JUMPDEST JUMPDEST PUSH2 0x396 DUP6 DUP3 DUP7 ADD PUSH2 0x2FF JUMP JUMPDEST SWAP3 POP SWAP3 POP POP SWAP3 POP SWAP3 SWAP1 POP JUMP JUMPDEST PUSH1 0x0 DUP2 MLOAD SWAP1 POP SWAP2 SWAP1 POP JUMP JUMPDEST PUSH1 0x0 DUP3 DUP3 MSTORE PUSH1 0x20 DUP3 ADD SWAP1 POP SWAP3 SWAP2 POP POP JUMP JUMPDEST PUSH1 0x0 JUMPDEST DUP4 DUP2 LT ISZERO PUSH2 0x3DC JUMPI DUP1 DUP3 ADD MLOAD DUP2 DUP5 ADD MSTORE PUSH1 0x20 DUP2 ADD SWAP1 POP PUSH2 0x3C1 JUMP JUMPDEST PUSH1 0x0 DUP5 DUP5 ADD MSTORE POP POP POP POP JUMP JUMPDEST PUSH1 0x0 PUSH1 0x1F NOT PUSH1 0x1F DUP4 ADD AND SWAP1 POP SWAP2 SWAP1 POP JUMP JUMPDEST PUSH1 0x0 PUSH2 0x404 DUP3 PUSH2 0x3A2 JUMP JUMPDEST PUSH2 0x40E DUP2 DUP6 PUSH2 0x3AD JUMP JUMPDEST SWAP4 POP PUSH2 0x41E DUP2 DUP6 PUSH1 0x20 DUP7 ADD PUSH2 0x3BE JUMP JUMPDEST PUSH2 0x427 DUP2 PUSH2 0x3E8 JUMP JUMPDEST DUP5 ADD SWAP2 POP POP SWAP3 SWAP2 POP POP JUMP JUMPDEST PUSH1 0x0 PUSH1 0x20 DUP3 ADD SWAP1 POP DUP2 DUP2 SUB PUSH1 0x0 DUP4 ADD MSTORE PUSH2 0x44C DUP2 DUP5 PUSH2 0x3F9 JUMP JUMPDEST SWAP1 POP SWAP3 SWAP2 POP POP JUMP JUMPDEST PUSH1 0x0 DUP1 REVERT JUMPDEST PUSH32 0x4E487B7100000000000000000000000000000000000000000000000000000000 PUSH1 0x0 MSTORE PUSH1 0x41 PUSH1 0x4 MSTORE PUSH1 0x24 PUSH1 0x0 REVERT JUMPDEST PUSH2 0x491 DUP3 PUSH2 0x3E8 JUMP JUMPDEST DUP2 ADD DUP2 DUP2 LT PUSH8 0xFFFFFFFFFFFFFFFF DUP3 GT OR ISZERO PUSH2 0x4B0 JUMPI PUSH2 0x4AF PUSH2 0x459 JUMP JUMPDEST JUMPDEST DUP1 PUSH1 0x40 MSTORE POP POP POP JUMP JUMPDEST PUSH1 0x0 PUSH2 0x4C3 PUSH2 0x2DC JUMP JUMPDEST SWAP1 POP PUSH2 0x4CF DUP3 DUP3 PUSH2 0x488 JUMP JUMPDEST SWAP2 SWAP1 POP JUMP JUMPDEST PUSH1 0x0 PUSH8 0xFFFFFFFFFFFFFFFF DUP3 GT ISZERO PUSH2 0x4EF JUMPI PUSH2 0x4EE PUSH2 0x459 JUMP JUMPDEST JUMPDEST PUSH2 0x4F8 DUP3 PUSH2 0x3E8 JUMP JUMPDEST SWAP1 POP PUSH1 0x20 DUP2 ADD SWAP1 POP SWAP2 SWAP1 POP JUMP JUMPDEST DUP3 DUP2 DUP4 CALLDATACOPY PUSH1 0x0 DUP4 DUP4 ADD MSTORE POP POP POP JUMP JUMPDEST PUSH1 0x0 PUSH2 0x527 PUSH2 0x522 DUP5 PUSH2 0x4D4 JUMP JUMPDEST PUSH2 0x4B9 JUMP JUMPDEST SWAP1 POP DUP3 DUP2 MSTORE PUSH1 0x20 DUP2 ADD DUP5 DUP5 DUP5 ADD GT ISZERO PUSH2 0x543 JUMPI PUSH2 0x542 PUSH2 0x454 JUMP JUMPDEST JUMPDEST PUSH2 0x54E DUP5 DUP3 DUP6 PUSH2 0x505 JUMP JUMPDEST POP SWAP4 SWAP3 POP POP POP JUMP JUMPDEST PUSH1 0x0 DUP3 PUSH1 0x1F DUP4 ADD SLT PUSH2 0x56B JUMPI PUSH2 0x56A PUSH2 0x2F0 JUMP JUMPDEST JUMPDEST DUP2 CALLDATALOAD PUSH2 0x57B DUP5 DUP3 PUSH1 0x20 DUP7 ADD PUSH2 0x514 JUMP JUMPDEST SWAP2 POP POP SWAP3 SWAP2 POP POP JUMP JUMPDEST PUSH1 0x0 PUSH1 0x20 DUP3 DUP5 SUB SLT ISZERO PUSH2 0x59A JUMPI PUSH2 0x599 PUSH2 0x2E6 JUMP JUMPDEST JUMPDEST PUSH1 0x0 DUP3 ADD CALLDATALOAD PUSH8 0xFFFFFFFFFFFFFFFF DUP2 GT ISZERO PUSH2 0x5B8 JUMPI PUSH2 0x5B7 PUSH2 0x2EB JUMP JUMPDEST JUMPDEST PUSH2 0x5C4 DUP5 DUP3 DUP6 ADD PUSH2 0x556 JUMP JUMPDEST SWAP2 POP POP SWAP3 SWAP2 POP POP JUMP JUMPDEST PUSH1 0x0 PUSH1 0xFF DUP3 AND SWAP1 POP SWAP2 SWAP1 POP JUMP JUMPDEST PUSH2 0x5E3 DUP2 PUSH2 0x5CD JUMP JUMPDEST DUP3 MSTORE POP POP JUMP JUMPDEST PUSH1 0x0 PUSH1 0x20 DUP3 ADD SWAP1 POP PUSH2 0x5FE PUSH1 0x0 DUP4 ADD DUP5 PUSH2 0x5DA JUMP JUMPDEST SWAP3 SWAP2 POP POP JUMP JUMPDEST PUSH32 0x4E487B7100000000000000000000000000000000000000000000000000000000 PUSH1 0x0 MSTORE PUSH1 0x11 PUSH1 0x4 MSTORE PUSH1 0x24 PUSH1 0x0 REVERT JUMPDEST PUSH1 0x0 PUSH2 0x63E DUP3 PUSH2 0x5CD JUMP JUMPDEST SWAP2 POP PUSH2 0x649 DUP4 PUSH2 0x5CD JUMP JUMPDEST SWAP3 POP DUP3 DUP3 SUB SWAP1 POP PUSH1 0xFF DUP2 GT ISZERO PUSH2 0x662 JUMPI PUSH2 0x661 PUSH2 0x604 JUMP JUMPDEST JUMPDEST SWAP3 SWAP2 POP POP JUMP JUMPDEST PUSH1 0x0 PUSH2 0x673 DUP3 PUSH2 0x5CD JUMP JUMPDEST SWAP2 POP PUSH2 0x67E DUP4 PUSH2 0x5CD JUMP JUMPDEST SWAP3 POP DUP3 DUP3 ADD SWAP1 POP PUSH1 0xFF DUP2 GT ISZERO PUSH2 0x697 JUMPI PUSH2 0x696 PUSH2 0x604 JUMP JUMPDEST JUMPDEST SWAP3 SWAP2 POP POP JUMP INVALID LOG2 PUSH5 0x6970667358 0x22 SLT KECCAK256 0x4E PUSH16 0xB0DCB4B4C63C3CC6F8F0625F435259A PUSH17 0x124F570C39A92F7F56ACCB6ED564736F6C PUSH4 0x43000812 STOP CALLER "
				},
				"gasEstimates": {
					"creation": {
						"codeDepositCost": "349400",
						"executionCost": "27498",
						"totalCost": "376898"
					},
					"external": {
						"a()": "2430",
						"b()": "2474",
						"calldataTest(string)": "infinite",
						"decrement()": "infinite",
						"increment()": "infinite",
						"memoryTest(string)": "infinite",
						"myUint8()": "2537",
						"swap()": "48655"
					}
				},
				"methodIdentifiers": {
					"a()": "0dbe671f",
					"b()": "4df7e3d0",
					"calldataTest(string)": "8c5c5255",
					"decrement()": "2baeceb7",
					"increment()": "d09de08a",
					"memoryTest(string)": "a25206d4",
					"myUint8()": "e2a4b2af",
					"swap()": "8119c065"
				}
			},
			"storageLayout": {
				"storage": [
					{
						"astId": 5,
						"contract": "contracts/Chapter8.sol:Chapter8",
						"label": "a",
						"offset": 0,
						"slot": "0",
						"type": "t_uint256"
					},
					{
						"astId": 8,
						"contract": "contracts/Chapter8.sol:Chapter8",
						"label": "b",
						"offset": 0,
						"slot": "1",
						"type": "t_uint256"
					},
					{
						"astId": 50,
						"contract": "contracts/Chapter8.sol:Chapter8",
						"label": "myUint8",
						"offset": 0,
						"slot": "2",
						"type": "t_uint8"
					}
				],
				"types": {
					"t_uint256": {
						"encoding": "inplace",
						"label": "uint256",
						"numberOfBytes": "32"
					},
					"t_uint8": {
						"encoding": "inplace",
						"label": "uint8",
						"numberOfBytes": "1"
					}
				}
			},
			"userdoc": {
				"kind": "user",
				"methods": {},
				"notice": "Memory Allocation  - Call by Reference vs. Call by Value - Data Locations: Storage, Memory and Calldata",
				"version": 1
			}
		}
	}
}