{
	"contracts/Chapter6.sol": {
		"Enum": {
			"abi": [
				{
					"inputs": [],
					"stateMutability": "nonpayable",
					"type": "constructor"
				},
				{
					"inputs": [],
					"name": "makeSuperRare",
					"outputs": [],
					"stateMutability": "nonpayable",
					"type": "function"
				},
				{
					"inputs": [],
					"name": "rarity",
					"outputs": [
						{
							"internalType": "enum Enum.Rarity",
							"name": "",
							"type": "uint8"
						}
					],
					"stateMutability": "view",
					"type": "function"
				},
				{
					"inputs": [],
					"name": "reset",
					"outputs": [],
					"stateMutability": "nonpayable",
					"type": "function"
				}
			],
			"devdoc": {
				"kind": "dev",
				"methods": {},
				"version": 1
			},
			"evm": {
				"assembly": "    /* \"contracts/Chapter6.sol\":1592:1933  contract Enum {... */\n  mstore(0x40, 0x80)\n    /* \"contracts/Chapter6.sol\":1735:1790  constructor() {... */\n  callvalue\n  dup1\n  iszero\n  tag_1\n  jumpi\n  0x00\n  dup1\n  revert\ntag_1:\n  pop\n    /* \"contracts/Chapter6.sol\":1768:1783  Rarity.original */\n  0x00\n    /* \"contracts/Chapter6.sol\":1759:1765  rarity */\n  dup1\n  0x00\n    /* \"contracts/Chapter6.sol\":1759:1783  rarity = Rarity.original */\n  0x0100\n  exp\n  dup2\n  sload\n  dup2\n  0xff\n  mul\n  not\n  and\n  swap1\n  dup4\n  0x02\n  dup2\n  gt\n  iszero\n  tag_4\n  jumpi\n  tag_5\n  tag_6\n  jump\t// in\ntag_5:\ntag_4:\n  mul\n  or\n  swap1\n  sstore\n  pop\n    /* \"contracts/Chapter6.sol\":1592:1933  contract Enum {... */\n  jump(tag_7)\n    /* \"#utility.yul\":7:187   */\ntag_6:\n    /* \"#utility.yul\":55:132   */\n  0x4e487b7100000000000000000000000000000000000000000000000000000000\n    /* \"#utility.yul\":52:53   */\n  0x00\n    /* \"#utility.yul\":45:133   */\n  mstore\n    /* \"#utility.yul\":152:156   */\n  0x21\n    /* \"#utility.yul\":149:150   */\n  0x04\n    /* \"#utility.yul\":142:157   */\n  mstore\n    /* \"#utility.yul\":176:180   */\n  0x24\n    /* \"#utility.yul\":173:174   */\n  0x00\n    /* \"#utility.yul\":166:181   */\n  revert\n    /* \"contracts/Chapter6.sol\":1592:1933  contract Enum {... */\ntag_7:\n  dataSize(sub_0)\n  dup1\n  dataOffset(sub_0)\n  0x00\n  codecopy\n  0x00\n  return\nstop\n\nsub_0: assembly {\n        /* \"contracts/Chapter6.sol\":1592:1933  contract Enum {... */\n      mstore(0x40, 0x80)\n      callvalue\n      dup1\n      iszero\n      tag_1\n      jumpi\n      0x00\n      dup1\n      revert\n    tag_1:\n      pop\n      jumpi(tag_2, lt(calldatasize, 0x04))\n      shr(0xe0, calldataload(0x00))\n      dup1\n      0x697594b4\n      eq\n      tag_3\n      jumpi\n      dup1\n      0xd826f88f\n      eq\n      tag_4\n      jumpi\n      dup1\n      0xfef21f0f\n      eq\n      tag_5\n      jumpi\n    tag_2:\n      0x00\n      dup1\n      revert\n        /* \"contracts/Chapter6.sol\":1796:1871  function makeSuperRare() public {... */\n    tag_3:\n      tag_6\n      tag_7\n      jump\t// in\n    tag_6:\n      stop\n        /* \"contracts/Chapter6.sol\":1877:1931  function reset() public {... */\n    tag_4:\n      tag_8\n      tag_9\n      jump\t// in\n    tag_8:\n      stop\n        /* \"contracts/Chapter6.sol\":1708:1728  Rarity public rarity */\n    tag_5:\n      tag_10\n      tag_11\n      jump\t// in\n    tag_10:\n      mload(0x40)\n      tag_12\n      swap2\n      swap1\n      tag_13\n      jump\t// in\n    tag_12:\n      mload(0x40)\n      dup1\n      swap2\n      sub\n      swap1\n      return\n        /* \"contracts/Chapter6.sol\":1796:1871  function makeSuperRare() public {... */\n    tag_7:\n        /* \"contracts/Chapter6.sol\":1847:1864  Rarity.super_rare */\n      0x02\n        /* \"contracts/Chapter6.sol\":1838:1844  rarity */\n      0x00\n      dup1\n        /* \"contracts/Chapter6.sol\":1838:1864  rarity = Rarity.super_rare */\n      0x0100\n      exp\n      dup2\n      sload\n      dup2\n      0xff\n      mul\n      not\n      and\n      swap1\n      dup4\n      0x02\n      dup2\n      gt\n      iszero\n      tag_15\n      jumpi\n      tag_16\n      tag_17\n      jump\t// in\n    tag_16:\n    tag_15:\n      mul\n      or\n      swap1\n      sstore\n      pop\n        /* \"contracts/Chapter6.sol\":1796:1871  function makeSuperRare() public {... */\n      jump\t// out\n        /* \"contracts/Chapter6.sol\":1877:1931  function reset() public {... */\n    tag_9:\n        /* \"contracts/Chapter6.sol\":1918:1924  rarity */\n      0x00\n      dup1\n        /* \"contracts/Chapter6.sol\":1911:1924  delete rarity */\n      0x0100\n      exp\n      dup2\n      sload\n      swap1\n      0xff\n      mul\n      not\n      and\n      swap1\n      sstore\n        /* \"contracts/Chapter6.sol\":1877:1931  function reset() public {... */\n      jump\t// out\n        /* \"contracts/Chapter6.sol\":1708:1728  Rarity public rarity */\n    tag_11:\n      0x00\n      dup1\n      sload\n      swap1\n      0x0100\n      exp\n      swap1\n      div\n      0xff\n      and\n      dup2\n      jump\t// out\n        /* \"#utility.yul\":7:187   */\n    tag_17:\n        /* \"#utility.yul\":55:132   */\n      0x4e487b7100000000000000000000000000000000000000000000000000000000\n        /* \"#utility.yul\":52:53   */\n      0x00\n        /* \"#utility.yul\":45:133   */\n      mstore\n        /* \"#utility.yul\":152:156   */\n      0x21\n        /* \"#utility.yul\":149:150   */\n      0x04\n        /* \"#utility.yul\":142:157   */\n      mstore\n        /* \"#utility.yul\":176:180   */\n      0x24\n        /* \"#utility.yul\":173:174   */\n      0x00\n        /* \"#utility.yul\":166:181   */\n      revert\n        /* \"#utility.yul\":193:308   */\n    tag_19:\n        /* \"#utility.yul\":276:277   */\n      0x03\n        /* \"#utility.yul\":269:274   */\n      dup2\n        /* \"#utility.yul\":266:278   */\n      lt\n        /* \"#utility.yul\":256:302   */\n      tag_26\n      jumpi\n        /* \"#utility.yul\":282:300   */\n      tag_27\n      tag_17\n      jump\t// in\n    tag_27:\n        /* \"#utility.yul\":256:302   */\n    tag_26:\n        /* \"#utility.yul\":193:308   */\n      pop\n      jump\t// out\n        /* \"#utility.yul\":314:445   */\n    tag_20:\n        /* \"#utility.yul\":361:368   */\n      0x00\n        /* \"#utility.yul\":390:395   */\n      dup2\n        /* \"#utility.yul\":379:395   */\n      swap1\n      pop\n        /* \"#utility.yul\":396:439   */\n      tag_29\n        /* \"#utility.yul\":433:438   */\n      dup3\n        /* \"#utility.yul\":396:439   */\n      tag_19\n      jump\t// in\n    tag_29:\n        /* \"#utility.yul\":314:445   */\n      swap2\n      swap1\n      pop\n      jump\t// out\n        /* \"#utility.yul\":451:582   */\n    tag_21:\n        /* \"#utility.yul\":509:518   */\n      0x00\n        /* \"#utility.yul\":542:576   */\n      tag_31\n        /* \"#utility.yul\":570:575   */\n      dup3\n        /* \"#utility.yul\":542:576   */\n      tag_20\n      jump\t// in\n    tag_31:\n        /* \"#utility.yul\":529:576   */\n      swap1\n      pop\n        /* \"#utility.yul\":451:582   */\n      swap2\n      swap1\n      pop\n      jump\t// out\n        /* \"#utility.yul\":588:735   */\n    tag_22:\n        /* \"#utility.yul\":683:728   */\n      tag_33\n        /* \"#utility.yul\":722:727   */\n      dup2\n        /* \"#utility.yul\":683:728   */\n      tag_21\n      jump\t// in\n    tag_33:\n        /* \"#utility.yul\":678:681   */\n      dup3\n        /* \"#utility.yul\":671:729   */\n      mstore\n        /* \"#utility.yul\":588:735   */\n      pop\n      pop\n      jump\t// out\n        /* \"#utility.yul\":741:979   */\n    tag_13:\n        /* \"#utility.yul\":842:846   */\n      0x00\n        /* \"#utility.yul\":880:882   */\n      0x20\n        /* \"#utility.yul\":869:878   */\n      dup3\n        /* \"#utility.yul\":865:883   */\n      add\n        /* \"#utility.yul\":857:883   */\n      swap1\n      pop\n        /* \"#utility.yul\":893:972   */\n      tag_35\n        /* \"#utility.yul\":969:970   */\n      0x00\n        /* \"#utility.yul\":958:967   */\n      dup4\n        /* \"#utility.yul\":954:971   */\n      add\n        /* \"#utility.yul\":945:951   */\n      dup5\n        /* \"#utility.yul\":893:972   */\n      tag_22\n      jump\t// in\n    tag_35:\n        /* \"#utility.yul\":741:979   */\n      swap3\n      swap2\n      pop\n      pop\n      jump\t// out\n\n    auxdata: 0xa2646970667358221220c8e29c8a5833ecbaae81d18c86cc6f64f47de61a8dc1020a683edb9dd30a2dca64736f6c63430008120033\n}\n",
				"bytecode": {
					"linkReferences": {},
					"object": "608060405234801561001057600080fd5b5060008060006101000a81548160ff0219169083600281111561003657610035610040565b5b021790555061006f565b7f4e487b7100000000000000000000000000000000000000000000000000000000600052602160045260246000fd5b6101908061007e6000396000f3fe608060405234801561001057600080fd5b50600436106100415760003560e01c8063697594b414610046578063d826f88f14610050578063fef21f0f1461005a575b600080fd5b61004e610078565b005b6100586100a4565b005b6100626100b7565b60405161006f919061013f565b60405180910390f35b60026000806101000a81548160ff0219169083600281111561009d5761009c6100c8565b5b0217905550565b6000806101000a81549060ff0219169055565b60008054906101000a900460ff1681565b7f4e487b7100000000000000000000000000000000000000000000000000000000600052602160045260246000fd5b60038110610108576101076100c8565b5b50565b6000819050610119826100f7565b919050565b60006101298261010b565b9050919050565b6101398161011e565b82525050565b60006020820190506101546000830184610130565b9291505056fea2646970667358221220c8e29c8a5833ecbaae81d18c86cc6f64f47de61a8dc1020a683edb9dd30a2dca64736f6c63430008120033",
					"opcodes": "PUSH1 0x80 PUSH1 0x40 MSTORE CALLVALUE DUP1 ISZERO PUSH2 0x10 JUMPI PUSH1 0x0 DUP1 REVERT JUMPDEST POP PUSH1 0x0 DUP1 PUSH1 0x0 PUSH2 0x100 EXP DUP2 SLOAD DUP2 PUSH1 0xFF MUL NOT AND SWAP1 DUP4 PUSH1 0x2 DUP2 GT ISZERO PUSH2 0x36 JUMPI PUSH2 0x35 PUSH2 0x40 JUMP JUMPDEST JUMPDEST MUL OR SWAP1 SSTORE POP PUSH2 0x6F JUMP JUMPDEST PUSH32 0x4E487B7100000000000000000000000000000000000000000000000000000000 PUSH1 0x0 MSTORE PUSH1 0x21 PUSH1 0x4 MSTORE PUSH1 0x24 PUSH1 0x0 REVERT JUMPDEST PUSH2 0x190 DUP1 PUSH2 0x7E PUSH1 0x0 CODECOPY PUSH1 0x0 RETURN INVALID PUSH1 0x80 PUSH1 0x40 MSTORE CALLVALUE DUP1 ISZERO PUSH2 0x10 JUMPI PUSH1 0x0 DUP1 REVERT JUMPDEST POP PUSH1 0x4 CALLDATASIZE LT PUSH2 0x41 JUMPI PUSH1 0x0 CALLDATALOAD PUSH1 0xE0 SHR DUP1 PUSH4 0x697594B4 EQ PUSH2 0x46 JUMPI DUP1 PUSH4 0xD826F88F EQ PUSH2 0x50 JUMPI DUP1 PUSH4 0xFEF21F0F EQ PUSH2 0x5A JUMPI JUMPDEST PUSH1 0x0 DUP1 REVERT JUMPDEST PUSH2 0x4E PUSH2 0x78 JUMP JUMPDEST STOP JUMPDEST PUSH2 0x58 PUSH2 0xA4 JUMP JUMPDEST STOP JUMPDEST PUSH2 0x62 PUSH2 0xB7 JUMP JUMPDEST PUSH1 0x40 MLOAD PUSH2 0x6F SWAP2 SWAP1 PUSH2 0x13F JUMP JUMPDEST PUSH1 0x40 MLOAD DUP1 SWAP2 SUB SWAP1 RETURN JUMPDEST PUSH1 0x2 PUSH1 0x0 DUP1 PUSH2 0x100 EXP DUP2 SLOAD DUP2 PUSH1 0xFF MUL NOT AND SWAP1 DUP4 PUSH1 0x2 DUP2 GT ISZERO PUSH2 0x9D JUMPI PUSH2 0x9C PUSH2 0xC8 JUMP JUMPDEST JUMPDEST MUL OR SWAP1 SSTORE POP JUMP JUMPDEST PUSH1 0x0 DUP1 PUSH2 0x100 EXP DUP2 SLOAD SWAP1 PUSH1 0xFF MUL NOT AND SWAP1 SSTORE JUMP JUMPDEST PUSH1 0x0 DUP1 SLOAD SWAP1 PUSH2 0x100 EXP SWAP1 DIV PUSH1 0xFF AND DUP2 JUMP JUMPDEST PUSH32 0x4E487B7100000000000000000000000000000000000000000000000000000000 PUSH1 0x0 MSTORE PUSH1 0x21 PUSH1 0x4 MSTORE PUSH1 0x24 PUSH1 0x0 REVERT JUMPDEST PUSH1 0x3 DUP2 LT PUSH2 0x108 JUMPI PUSH2 0x107 PUSH2 0xC8 JUMP JUMPDEST JUMPDEST POP JUMP JUMPDEST PUSH1 0x0 DUP2 SWAP1 POP PUSH2 0x119 DUP3 PUSH2 0xF7 JUMP JUMPDEST SWAP2 SWAP1 POP JUMP JUMPDEST PUSH1 0x0 PUSH2 0x129 DUP3 PUSH2 0x10B JUMP JUMPDEST SWAP1 POP SWAP2 SWAP1 POP JUMP JUMPDEST PUSH2 0x139 DUP2 PUSH2 0x11E JUMP JUMPDEST DUP3 MSTORE POP POP JUMP JUMPDEST PUSH1 0x0 PUSH1 0x20 DUP3 ADD SWAP1 POP PUSH2 0x154 PUSH1 0x0 DUP4 ADD DUP5 PUSH2 0x130 JUMP JUMPDEST SWAP3 SWAP2 POP POP JUMP INVALID LOG2 PUSH5 0x6970667358 0x22 SLT KECCAK256 0xC8 0xE2 SWAP13 DUP11 PC CALLER 0xEC 0xBA 0xAE DUP2 0xD1 DUP13 DUP7 0xCC PUSH16 0x64F47DE61A8DC1020A683EDB9DD30A2D 0xCA PUSH5 0x736F6C6343 STOP ADDMOD SLT STOP CALLER "
				},
				"gasEstimates": {
					"creation": {
						"codeDepositCost": "80000",
						"executionCost": "24428",
						"totalCost": "104428"
					},
					"external": {
						"makeSuperRare()": "24409",
						"rarity()": "2579",
						"reset()": "24386"
					}
				},
				"methodIdentifiers": {
					"makeSuperRare()": "697594b4",
					"rarity()": "fef21f0f",
					"reset()": "d826f88f"
				}
			},
			"storageLayout": {
				"storage": [
					{
						"astId": 174,
						"contract": "contracts/Chapter6.sol:Enum",
						"label": "rarity",
						"offset": 0,
						"slot": "0",
						"type": "t_enum(Rarity)171"
					}
				],
				"types": {
					"t_enum(Rarity)171": {
						"encoding": "inplace",
						"label": "enum Enum.Rarity",
						"numberOfBytes": "1"
					}
				}
			},
			"userdoc": {
				"kind": "user",
				"methods": {},
				"version": 1
			}
		}
	}
}