{
	"contracts/Chapter5.sol": {
		"Chapter5": {
			"abi": [
				{
					"inputs": [],
					"stateMutability": "nonpayable",
					"type": "constructor"
				},
				{
					"inputs": [],
					"name": "getLastReturnValue",
					"outputs": [],
					"stateMutability": "nonpayable",
					"type": "function"
				},
				{
					"inputs": [
						{
							"internalType": "uint256",
							"name": "a",
							"type": "uint256"
						},
						{
							"internalType": "uint256",
							"name": "b",
							"type": "uint256"
						}
					],
					"name": "getSum",
					"outputs": [
						{
							"internalType": "uint256",
							"name": "",
							"type": "uint256"
						}
					],
					"stateMutability": "pure",
					"type": "function"
				},
				{
					"inputs": [
						{
							"internalType": "uint256",
							"name": "a",
							"type": "uint256"
						},
						{
							"internalType": "uint256",
							"name": "b",
							"type": "uint256"
						},
						{
							"internalType": "uint256",
							"name": "c",
							"type": "uint256"
						}
					],
					"name": "getSum",
					"outputs": [
						{
							"internalType": "uint256",
							"name": "",
							"type": "uint256"
						}
					],
					"stateMutability": "pure",
					"type": "function"
				},
				{
					"inputs": [],
					"name": "getSumWithThreeArguments",
					"outputs": [
						{
							"internalType": "uint256",
							"name": "",
							"type": "uint256"
						}
					],
					"stateMutability": "pure",
					"type": "function"
				},
				{
					"inputs": [],
					"name": "getSumWithTwoArguments",
					"outputs": [
						{
							"internalType": "uint256",
							"name": "",
							"type": "uint256"
						}
					],
					"stateMutability": "pure",
					"type": "function"
				},
				{
					"inputs": [],
					"name": "multipleReturns",
					"outputs": [
						{
							"internalType": "uint256",
							"name": "a",
							"type": "uint256"
						},
						{
							"internalType": "uint256",
							"name": "b",
							"type": "uint256"
						},
						{
							"internalType": "uint256",
							"name": "c",
							"type": "uint256"
						}
					],
					"stateMutability": "pure",
					"type": "function"
				},
				{
					"inputs": [],
					"name": "myFunction",
					"outputs": [
						{
							"internalType": "bool",
							"name": "",
							"type": "bool"
						}
					],
					"stateMutability": "pure",
					"type": "function"
				},
				{
					"inputs": [],
					"name": "proccessMultipleReturns",
					"outputs": [],
					"stateMutability": "nonpayable",
					"type": "function"
				},
				{
					"inputs": [],
					"name": "x",
					"outputs": [
						{
							"internalType": "uint256",
							"name": "",
							"type": "uint256"
						}
					],
					"stateMutability": "view",
					"type": "function"
				},
				{
					"inputs": [],
					"name": "y",
					"outputs": [
						{
							"internalType": "uint256",
							"name": "",
							"type": "uint256"
						}
					],
					"stateMutability": "view",
					"type": "function"
				},
				{
					"inputs": [],
					"name": "z",
					"outputs": [
						{
							"internalType": "uint256",
							"name": "",
							"type": "uint256"
						}
					],
					"stateMutability": "view",
					"type": "function"
				}
			],
			"devdoc": {
				"kind": "dev",
				"methods": {},
				"version": 1
			},
			"evm": {
				"assembly": "    /* \"contracts/Chapter5.sol\":921:2130  contract Chapter5 {... */\n  mstore(0x40, 0x80)\n    /* \"contracts/Chapter5.sol\":1193:1229  constructor() {... */\n  callvalue\n  dup1\n  iszero\n  tag_1\n  jumpi\n  0x00\n  dup1\n  revert\ntag_1:\n  pop\n    /* \"contracts/Chapter5.sol\":1221:1222  0 */\n  0x00\n    /* \"contracts/Chapter5.sol\":1217:1218  x */\n  dup1\n    /* \"contracts/Chapter5.sol\":1217:1222  x = 0 */\n  dup2\n  swap1\n  sstore\n  pop\n    /* \"contracts/Chapter5.sol\":921:2130  contract Chapter5 {... */\n  dataSize(sub_0)\n  dup1\n  dataOffset(sub_0)\n  0x00\n  codecopy\n  0x00\n  return\nstop\n\nsub_0: assembly {\n        /* \"contracts/Chapter5.sol\":921:2130  contract Chapter5 {... */\n      mstore(0x40, 0x80)\n      callvalue\n      dup1\n      iszero\n      tag_1\n      jumpi\n      0x00\n      dup1\n      revert\n    tag_1:\n      pop\n      jumpi(tag_2, lt(calldatasize, 0x04))\n      shr(0xe0, calldataload(0x00))\n      dup1\n      0xc3780a3a\n      gt\n      tag_14\n      jumpi\n      dup1\n      0xc3780a3a\n      eq\n      tag_8\n      jumpi\n      dup1\n      0xc5d7802e\n      eq\n      tag_9\n      jumpi\n      dup1\n      0xcb2b0819\n      eq\n      tag_10\n      jumpi\n      dup1\n      0xd40a8f12\n      eq\n      tag_11\n      jumpi\n      dup1\n      0xde0aeea2\n      eq\n      tag_12\n      jumpi\n      dup1\n      0xef49ba37\n      eq\n      tag_13\n      jumpi\n      jump(tag_2)\n    tag_14:\n      dup1\n      0xeba1dc\n      eq\n      tag_3\n      jumpi\n      dup1\n      0x0c55699c\n      eq\n      tag_4\n      jumpi\n      dup1\n      0x323940a5\n      eq\n      tag_5\n      jumpi\n      dup1\n      0x8e86b125\n      eq\n      tag_6\n      jumpi\n      dup1\n      0xa56dfe4a\n      eq\n      tag_7\n      jumpi\n    tag_2:\n      0x00\n      dup1\n      revert\n        /* \"contracts/Chapter5.sol\":1599:1719  function getLastReturnValue() external {... */\n    tag_3:\n      tag_15\n      tag_16\n      jump\t// in\n    tag_15:\n      stop\n        /* \"contracts/Chapter5.sol\":946:959  uint public x */\n    tag_4:\n      tag_17\n      tag_18\n      jump\t// in\n    tag_17:\n      mload(0x40)\n      tag_19\n      swap2\n      swap1\n      tag_20\n      jump\t// in\n    tag_19:\n      mload(0x40)\n      dup1\n      swap2\n      sub\n      swap1\n      return\n        /* \"contracts/Chapter5.sol\":2026:2128  function getSumWithThreeArguments() public pure returns (uint) {... */\n    tag_5:\n      tag_21\n      tag_22\n      jump\t// in\n    tag_21:\n      mload(0x40)\n      tag_23\n      swap2\n      swap1\n      tag_20\n      jump\t// in\n    tag_23:\n      mload(0x40)\n      dup1\n      swap2\n      sub\n      swap1\n      return\n        /* \"contracts/Chapter5.sol\":1725:1812  function getSum(uint a, uint b) public pure returns(uint) {... */\n    tag_6:\n      tag_24\n      0x04\n      dup1\n      calldatasize\n      sub\n      dup2\n      add\n      swap1\n      tag_25\n      swap2\n      swap1\n      tag_26\n      jump\t// in\n    tag_25:\n      tag_27\n      jump\t// in\n    tag_24:\n      mload(0x40)\n      tag_28\n      swap2\n      swap1\n      tag_20\n      jump\t// in\n    tag_28:\n      mload(0x40)\n      dup1\n      swap2\n      sub\n      swap1\n      return\n        /* \"contracts/Chapter5.sol\":965:978  uint public y */\n    tag_7:\n      tag_29\n      tag_30\n      jump\t// in\n    tag_29:\n      mload(0x40)\n      tag_31\n      swap2\n      swap1\n      tag_20\n      jump\t// in\n    tag_31:\n      mload(0x40)\n      dup1\n      swap2\n      sub\n      swap1\n      return\n        /* \"contracts/Chapter5.sol\":1235:1312  function myFunction() public pure returns (bool) {... */\n    tag_8:\n      tag_32\n      tag_33\n      jump\t// in\n    tag_32:\n      mload(0x40)\n      tag_34\n      swap2\n      swap1\n      tag_35\n      jump\t// in\n    tag_34:\n      mload(0x40)\n      dup1\n      swap2\n      sub\n      swap1\n      return\n        /* \"contracts/Chapter5.sol\":984:997  uint public z */\n    tag_9:\n      tag_36\n      tag_37\n      jump\t// in\n    tag_36:\n      mload(0x40)\n      tag_38\n      swap2\n      swap1\n      tag_20\n      jump\t// in\n    tag_38:\n      mload(0x40)\n      dup1\n      swap2\n      sub\n      swap1\n      return\n        /* \"contracts/Chapter5.sol\":1818:1917  function getSum(uint a, uint b, uint c) public pure returns(uint) {... */\n    tag_10:\n      tag_39\n      0x04\n      dup1\n      calldatasize\n      sub\n      dup2\n      add\n      swap1\n      tag_40\n      swap2\n      swap1\n      tag_41\n      jump\t// in\n    tag_40:\n      tag_42\n      jump\t// in\n    tag_39:\n      mload(0x40)\n      tag_43\n      swap2\n      swap1\n      tag_20\n      jump\t// in\n    tag_43:\n      mload(0x40)\n      dup1\n      swap2\n      sub\n      swap1\n      return\n        /* \"contracts/Chapter5.sol\":1356:1461  function multipleReturns() public pure returns (uint a, uint b, uint c) {... */\n    tag_11:\n      tag_44\n      tag_45\n      jump\t// in\n    tag_44:\n      mload(0x40)\n      tag_46\n      swap4\n      swap3\n      swap2\n      swap1\n      tag_47\n      jump\t// in\n    tag_46:\n      mload(0x40)\n      dup1\n      swap2\n      sub\n      swap1\n      return\n        /* \"contracts/Chapter5.sol\":1467:1593  function proccessMultipleReturns() external {... */\n    tag_12:\n      tag_48\n      tag_49\n      jump\t// in\n    tag_48:\n      stop\n        /* \"contracts/Chapter5.sol\":1923:2020  function getSumWithTwoArguments() public pure returns (uint) {... */\n    tag_13:\n      tag_50\n      tag_51\n      jump\t// in\n    tag_50:\n      mload(0x40)\n      tag_52\n      swap2\n      swap1\n      tag_20\n      jump\t// in\n    tag_52:\n      mload(0x40)\n      dup1\n      swap2\n      sub\n      swap1\n      return\n        /* \"contracts/Chapter5.sol\":1599:1719  function getLastReturnValue() external {... */\n    tag_16:\n        /* \"contracts/Chapter5.sol\":1695:1712  multipleReturns() */\n      tag_54\n        /* \"contracts/Chapter5.sol\":1695:1710  multipleReturns */\n      tag_45\n        /* \"contracts/Chapter5.sol\":1695:1712  multipleReturns() */\n      jump\t// in\n    tag_54:\n        /* \"contracts/Chapter5.sol\":1687:1712  (,,z) = multipleReturns() */\n      swap1\n      swap2\n      pop\n      swap1\n      pop\n        /* \"contracts/Chapter5.sol\":1690:1691  z */\n      0x02\n      0x00\n        /* \"contracts/Chapter5.sol\":1687:1712  (,,z) = multipleReturns() */\n      dup3\n      swap2\n      swap1\n      pop\n      sstore\n      pop\n        /* \"contracts/Chapter5.sol\":1599:1719  function getLastReturnValue() external {... */\n      jump\t// out\n        /* \"contracts/Chapter5.sol\":946:959  uint public x */\n    tag_18:\n      sload(0x00)\n      dup2\n      jump\t// out\n        /* \"contracts/Chapter5.sol\":2026:2128  function getSumWithThreeArguments() public pure returns (uint) {... */\n    tag_22:\n        /* \"contracts/Chapter5.sol\":2083:2087  uint */\n      0x00\n        /* \"contracts/Chapter5.sol\":2106:2121  getSum(1, 2, 3) */\n      tag_56\n        /* \"contracts/Chapter5.sol\":2113:2114  1 */\n      0x01\n        /* \"contracts/Chapter5.sol\":2116:2117  2 */\n      0x02\n        /* \"contracts/Chapter5.sol\":2119:2120  3 */\n      0x03\n        /* \"contracts/Chapter5.sol\":2106:2112  getSum */\n      tag_42\n        /* \"contracts/Chapter5.sol\":2106:2121  getSum(1, 2, 3) */\n      jump\t// in\n    tag_56:\n        /* \"contracts/Chapter5.sol\":2099:2121  return getSum(1, 2, 3) */\n      swap1\n      pop\n        /* \"contracts/Chapter5.sol\":2026:2128  function getSumWithThreeArguments() public pure returns (uint) {... */\n      swap1\n      jump\t// out\n        /* \"contracts/Chapter5.sol\":1725:1812  function getSum(uint a, uint b) public pure returns(uint) {... */\n    tag_27:\n        /* \"contracts/Chapter5.sol\":1777:1781  uint */\n      0x00\n        /* \"contracts/Chapter5.sol\":1804:1805  b */\n      dup2\n        /* \"contracts/Chapter5.sol\":1800:1801  a */\n      dup4\n        /* \"contracts/Chapter5.sol\":1800:1805  a + b */\n      tag_58\n      swap2\n      swap1\n      tag_59\n      jump\t// in\n    tag_58:\n        /* \"contracts/Chapter5.sol\":1793:1805  return a + b */\n      swap1\n      pop\n        /* \"contracts/Chapter5.sol\":1725:1812  function getSum(uint a, uint b) public pure returns(uint) {... */\n      swap3\n      swap2\n      pop\n      pop\n      jump\t// out\n        /* \"contracts/Chapter5.sol\":965:978  uint public y */\n    tag_30:\n      sload(0x01)\n      dup2\n      jump\t// out\n        /* \"contracts/Chapter5.sol\":1235:1312  function myFunction() public pure returns (bool) {... */\n    tag_33:\n        /* \"contracts/Chapter5.sol\":1278:1282  bool */\n      0x00\n        /* \"contracts/Chapter5.sol\":1301:1305  true */\n      0x01\n        /* \"contracts/Chapter5.sol\":1294:1305  return true */\n      swap1\n      pop\n        /* \"contracts/Chapter5.sol\":1235:1312  function myFunction() public pure returns (bool) {... */\n      swap1\n      jump\t// out\n        /* \"contracts/Chapter5.sol\":984:997  uint public z */\n    tag_37:\n      sload(0x02)\n      dup2\n      jump\t// out\n        /* \"contracts/Chapter5.sol\":1818:1917  function getSum(uint a, uint b, uint c) public pure returns(uint) {... */\n    tag_42:\n        /* \"contracts/Chapter5.sol\":1878:1882  uint */\n      0x00\n        /* \"contracts/Chapter5.sol\":1909:1910  c */\n      dup2\n        /* \"contracts/Chapter5.sol\":1905:1906  b */\n      dup4\n        /* \"contracts/Chapter5.sol\":1901:1902  a */\n      dup6\n        /* \"contracts/Chapter5.sol\":1901:1906  a + b */\n      tag_62\n      swap2\n      swap1\n      tag_59\n      jump\t// in\n    tag_62:\n        /* \"contracts/Chapter5.sol\":1901:1910  a + b + c */\n      tag_63\n      swap2\n      swap1\n      tag_59\n      jump\t// in\n    tag_63:\n        /* \"contracts/Chapter5.sol\":1894:1910  return a + b + c */\n      swap1\n      pop\n        /* \"contracts/Chapter5.sol\":1818:1917  function getSum(uint a, uint b, uint c) public pure returns(uint) {... */\n      swap4\n      swap3\n      pop\n      pop\n      pop\n      jump\t// out\n        /* \"contracts/Chapter5.sol\":1356:1461  function multipleReturns() public pure returns (uint a, uint b, uint c) {... */\n    tag_45:\n        /* \"contracts/Chapter5.sol\":1404:1410  uint a */\n      0x00\n        /* \"contracts/Chapter5.sol\":1412:1418  uint b */\n      dup1\n        /* \"contracts/Chapter5.sol\":1420:1426  uint c */\n      0x00\n        /* \"contracts/Chapter5.sol\":1446:1447  1 */\n      0x01\n        /* \"contracts/Chapter5.sol\":1449:1450  2 */\n      0x02\n        /* \"contracts/Chapter5.sol\":1452:1453  3 */\n      0x03\n        /* \"contracts/Chapter5.sol\":1438:1454  return (1, 2, 3) */\n      swap3\n      pop\n      swap3\n      pop\n      swap3\n      pop\n        /* \"contracts/Chapter5.sol\":1356:1461  function multipleReturns() public pure returns (uint a, uint b, uint c) {... */\n      swap1\n      swap2\n      swap3\n      jump\t// out\n        /* \"contracts/Chapter5.sol\":1467:1593  function proccessMultipleReturns() external {... */\n    tag_49:\n        /* \"contracts/Chapter5.sol\":1569:1586  multipleReturns() */\n      tag_66\n        /* \"contracts/Chapter5.sol\":1569:1584  multipleReturns */\n      tag_45\n        /* \"contracts/Chapter5.sol\":1569:1586  multipleReturns() */\n      jump\t// in\n    tag_66:\n        /* \"contracts/Chapter5.sol\":1558:1559  x */\n      0x00\n      dup1\n        /* \"contracts/Chapter5.sol\":1561:1562  y */\n      0x01\n      0x00\n        /* \"contracts/Chapter5.sol\":1564:1565  z */\n      0x02\n      0x00\n        /* \"contracts/Chapter5.sol\":1557:1586  (x, y, z) = multipleReturns() */\n      dup7\n      swap2\n      swap1\n      pop\n      sstore\n      dup6\n      swap2\n      swap1\n      pop\n      sstore\n      dup5\n      swap2\n      swap1\n      pop\n      sstore\n      pop\n      pop\n      pop\n        /* \"contracts/Chapter5.sol\":1467:1593  function proccessMultipleReturns() external {... */\n      jump\t// out\n        /* \"contracts/Chapter5.sol\":1923:2020  function getSumWithTwoArguments() public pure returns (uint) {... */\n    tag_51:\n        /* \"contracts/Chapter5.sol\":1978:1982  uint */\n      0x00\n        /* \"contracts/Chapter5.sol\":2001:2013  getSum(1, 2) */\n      tag_68\n        /* \"contracts/Chapter5.sol\":2008:2009  1 */\n      0x01\n        /* \"contracts/Chapter5.sol\":2011:2012  2 */\n      0x02\n        /* \"contracts/Chapter5.sol\":2001:2007  getSum */\n      tag_27\n        /* \"contracts/Chapter5.sol\":2001:2013  getSum(1, 2) */\n      jump\t// in\n    tag_68:\n        /* \"contracts/Chapter5.sol\":1994:2013  return getSum(1, 2) */\n      swap1\n      pop\n        /* \"contracts/Chapter5.sol\":1923:2020  function getSumWithTwoArguments() public pure returns (uint) {... */\n      swap1\n      jump\t// out\n        /* \"#utility.yul\":7:84   */\n    tag_69:\n        /* \"#utility.yul\":44:51   */\n      0x00\n        /* \"#utility.yul\":73:78   */\n      dup2\n        /* \"#utility.yul\":62:78   */\n      swap1\n      pop\n        /* \"#utility.yul\":7:84   */\n      swap2\n      swap1\n      pop\n      jump\t// out\n        /* \"#utility.yul\":90:208   */\n    tag_70:\n        /* \"#utility.yul\":177:201   */\n      tag_82\n        /* \"#utility.yul\":195:200   */\n      dup2\n        /* \"#utility.yul\":177:201   */\n      tag_69\n      jump\t// in\n    tag_82:\n        /* \"#utility.yul\":172:175   */\n      dup3\n        /* \"#utility.yul\":165:202   */\n      mstore\n        /* \"#utility.yul\":90:208   */\n      pop\n      pop\n      jump\t// out\n        /* \"#utility.yul\":214:436   */\n    tag_20:\n        /* \"#utility.yul\":307:311   */\n      0x00\n        /* \"#utility.yul\":345:347   */\n      0x20\n        /* \"#utility.yul\":334:343   */\n      dup3\n        /* \"#utility.yul\":330:348   */\n      add\n        /* \"#utility.yul\":322:348   */\n      swap1\n      pop\n        /* \"#utility.yul\":358:429   */\n      tag_84\n        /* \"#utility.yul\":426:427   */\n      0x00\n        /* \"#utility.yul\":415:424   */\n      dup4\n        /* \"#utility.yul\":411:428   */\n      add\n        /* \"#utility.yul\":402:408   */\n      dup5\n        /* \"#utility.yul\":358:429   */\n      tag_70\n      jump\t// in\n    tag_84:\n        /* \"#utility.yul\":214:436   */\n      swap3\n      swap2\n      pop\n      pop\n      jump\t// out\n        /* \"#utility.yul\":523:640   */\n    tag_72:\n        /* \"#utility.yul\":632:633   */\n      0x00\n        /* \"#utility.yul\":629:630   */\n      dup1\n        /* \"#utility.yul\":622:634   */\n      revert\n        /* \"#utility.yul\":769:891   */\n    tag_74:\n        /* \"#utility.yul\":842:866   */\n      tag_89\n        /* \"#utility.yul\":860:865   */\n      dup2\n        /* \"#utility.yul\":842:866   */\n      tag_69\n      jump\t// in\n    tag_89:\n        /* \"#utility.yul\":835:840   */\n      dup2\n        /* \"#utility.yul\":832:867   */\n      eq\n        /* \"#utility.yul\":822:885   */\n      tag_90\n      jumpi\n        /* \"#utility.yul\":881:882   */\n      0x00\n        /* \"#utility.yul\":878:879   */\n      dup1\n        /* \"#utility.yul\":871:883   */\n      revert\n        /* \"#utility.yul\":822:885   */\n    tag_90:\n        /* \"#utility.yul\":769:891   */\n      pop\n      jump\t// out\n        /* \"#utility.yul\":897:1036   */\n    tag_75:\n        /* \"#utility.yul\":943:948   */\n      0x00\n        /* \"#utility.yul\":981:987   */\n      dup2\n        /* \"#utility.yul\":968:988   */\n      calldataload\n        /* \"#utility.yul\":959:988   */\n      swap1\n      pop\n        /* \"#utility.yul\":997:1030   */\n      tag_92\n        /* \"#utility.yul\":1024:1029   */\n      dup2\n        /* \"#utility.yul\":997:1030   */\n      tag_74\n      jump\t// in\n    tag_92:\n        /* \"#utility.yul\":897:1036   */\n      swap3\n      swap2\n      pop\n      pop\n      jump\t// out\n        /* \"#utility.yul\":1042:1516   */\n    tag_26:\n        /* \"#utility.yul\":1110:1116   */\n      0x00\n        /* \"#utility.yul\":1118:1124   */\n      dup1\n        /* \"#utility.yul\":1167:1169   */\n      0x40\n        /* \"#utility.yul\":1155:1164   */\n      dup4\n        /* \"#utility.yul\":1146:1153   */\n      dup6\n        /* \"#utility.yul\":1142:1165   */\n      sub\n        /* \"#utility.yul\":1138:1170   */\n      slt\n        /* \"#utility.yul\":1135:1254   */\n      iszero\n      tag_94\n      jumpi\n        /* \"#utility.yul\":1173:1252   */\n      tag_95\n      tag_72\n      jump\t// in\n    tag_95:\n        /* \"#utility.yul\":1135:1254   */\n    tag_94:\n        /* \"#utility.yul\":1293:1294   */\n      0x00\n        /* \"#utility.yul\":1318:1371   */\n      tag_96\n        /* \"#utility.yul\":1363:1370   */\n      dup6\n        /* \"#utility.yul\":1354:1360   */\n      dup3\n        /* \"#utility.yul\":1343:1352   */\n      dup7\n        /* \"#utility.yul\":1339:1361   */\n      add\n        /* \"#utility.yul\":1318:1371   */\n      tag_75\n      jump\t// in\n    tag_96:\n        /* \"#utility.yul\":1308:1371   */\n      swap3\n      pop\n        /* \"#utility.yul\":1264:1381   */\n      pop\n        /* \"#utility.yul\":1420:1422   */\n      0x20\n        /* \"#utility.yul\":1446:1499   */\n      tag_97\n        /* \"#utility.yul\":1491:1498   */\n      dup6\n        /* \"#utility.yul\":1482:1488   */\n      dup3\n        /* \"#utility.yul\":1471:1480   */\n      dup7\n        /* \"#utility.yul\":1467:1489   */\n      add\n        /* \"#utility.yul\":1446:1499   */\n      tag_75\n      jump\t// in\n    tag_97:\n        /* \"#utility.yul\":1436:1499   */\n      swap2\n      pop\n        /* \"#utility.yul\":1391:1509   */\n      pop\n        /* \"#utility.yul\":1042:1516   */\n      swap3\n      pop\n      swap3\n      swap1\n      pop\n      jump\t// out\n        /* \"#utility.yul\":1522:1612   */\n    tag_76:\n        /* \"#utility.yul\":1556:1563   */\n      0x00\n        /* \"#utility.yul\":1599:1604   */\n      dup2\n        /* \"#utility.yul\":1592:1605   */\n      iszero\n        /* \"#utility.yul\":1585:1606   */\n      iszero\n        /* \"#utility.yul\":1574:1606   */\n      swap1\n      pop\n        /* \"#utility.yul\":1522:1612   */\n      swap2\n      swap1\n      pop\n      jump\t// out\n        /* \"#utility.yul\":1618:1727   */\n    tag_77:\n        /* \"#utility.yul\":1699:1720   */\n      tag_100\n        /* \"#utility.yul\":1714:1719   */\n      dup2\n        /* \"#utility.yul\":1699:1720   */\n      tag_76\n      jump\t// in\n    tag_100:\n        /* \"#utility.yul\":1694:1697   */\n      dup3\n        /* \"#utility.yul\":1687:1721   */\n      mstore\n        /* \"#utility.yul\":1618:1727   */\n      pop\n      pop\n      jump\t// out\n        /* \"#utility.yul\":1733:1943   */\n    tag_35:\n        /* \"#utility.yul\":1820:1824   */\n      0x00\n        /* \"#utility.yul\":1858:1860   */\n      0x20\n        /* \"#utility.yul\":1847:1856   */\n      dup3\n        /* \"#utility.yul\":1843:1861   */\n      add\n        /* \"#utility.yul\":1835:1861   */\n      swap1\n      pop\n        /* \"#utility.yul\":1871:1936   */\n      tag_102\n        /* \"#utility.yul\":1933:1934   */\n      0x00\n        /* \"#utility.yul\":1922:1931   */\n      dup4\n        /* \"#utility.yul\":1918:1935   */\n      add\n        /* \"#utility.yul\":1909:1915   */\n      dup5\n        /* \"#utility.yul\":1871:1936   */\n      tag_77\n      jump\t// in\n    tag_102:\n        /* \"#utility.yul\":1733:1943   */\n      swap3\n      swap2\n      pop\n      pop\n      jump\t// out\n        /* \"#utility.yul\":1949:2568   */\n    tag_41:\n        /* \"#utility.yul\":2026:2032   */\n      0x00\n        /* \"#utility.yul\":2034:2040   */\n      dup1\n        /* \"#utility.yul\":2042:2048   */\n      0x00\n        /* \"#utility.yul\":2091:2093   */\n      0x60\n        /* \"#utility.yul\":2079:2088   */\n      dup5\n        /* \"#utility.yul\":2070:2077   */\n      dup7\n        /* \"#utility.yul\":2066:2089   */\n      sub\n        /* \"#utility.yul\":2062:2094   */\n      slt\n        /* \"#utility.yul\":2059:2178   */\n      iszero\n      tag_104\n      jumpi\n        /* \"#utility.yul\":2097:2176   */\n      tag_105\n      tag_72\n      jump\t// in\n    tag_105:\n        /* \"#utility.yul\":2059:2178   */\n    tag_104:\n        /* \"#utility.yul\":2217:2218   */\n      0x00\n        /* \"#utility.yul\":2242:2295   */\n      tag_106\n        /* \"#utility.yul\":2287:2294   */\n      dup7\n        /* \"#utility.yul\":2278:2284   */\n      dup3\n        /* \"#utility.yul\":2267:2276   */\n      dup8\n        /* \"#utility.yul\":2263:2285   */\n      add\n        /* \"#utility.yul\":2242:2295   */\n      tag_75\n      jump\t// in\n    tag_106:\n        /* \"#utility.yul\":2232:2295   */\n      swap4\n      pop\n        /* \"#utility.yul\":2188:2305   */\n      pop\n        /* \"#utility.yul\":2344:2346   */\n      0x20\n        /* \"#utility.yul\":2370:2423   */\n      tag_107\n        /* \"#utility.yul\":2415:2422   */\n      dup7\n        /* \"#utility.yul\":2406:2412   */\n      dup3\n        /* \"#utility.yul\":2395:2404   */\n      dup8\n        /* \"#utility.yul\":2391:2413   */\n      add\n        /* \"#utility.yul\":2370:2423   */\n      tag_75\n      jump\t// in\n    tag_107:\n        /* \"#utility.yul\":2360:2423   */\n      swap3\n      pop\n        /* \"#utility.yul\":2315:2433   */\n      pop\n        /* \"#utility.yul\":2472:2474   */\n      0x40\n        /* \"#utility.yul\":2498:2551   */\n      tag_108\n        /* \"#utility.yul\":2543:2550   */\n      dup7\n        /* \"#utility.yul\":2534:2540   */\n      dup3\n        /* \"#utility.yul\":2523:2532   */\n      dup8\n        /* \"#utility.yul\":2519:2541   */\n      add\n        /* \"#utility.yul\":2498:2551   */\n      tag_75\n      jump\t// in\n    tag_108:\n        /* \"#utility.yul\":2488:2551   */\n      swap2\n      pop\n        /* \"#utility.yul\":2443:2561   */\n      pop\n        /* \"#utility.yul\":1949:2568   */\n      swap3\n      pop\n      swap3\n      pop\n      swap3\n      jump\t// out\n        /* \"#utility.yul\":2574:3016   */\n    tag_47:\n        /* \"#utility.yul\":2723:2727   */\n      0x00\n        /* \"#utility.yul\":2761:2763   */\n      0x60\n        /* \"#utility.yul\":2750:2759   */\n      dup3\n        /* \"#utility.yul\":2746:2764   */\n      add\n        /* \"#utility.yul\":2738:2764   */\n      swap1\n      pop\n        /* \"#utility.yul\":2774:2845   */\n      tag_110\n        /* \"#utility.yul\":2842:2843   */\n      0x00\n        /* \"#utility.yul\":2831:2840   */\n      dup4\n        /* \"#utility.yul\":2827:2844   */\n      add\n        /* \"#utility.yul\":2818:2824   */\n      dup7\n        /* \"#utility.yul\":2774:2845   */\n      tag_70\n      jump\t// in\n    tag_110:\n        /* \"#utility.yul\":2855:2927   */\n      tag_111\n        /* \"#utility.yul\":2923:2925   */\n      0x20\n        /* \"#utility.yul\":2912:2921   */\n      dup4\n        /* \"#utility.yul\":2908:2926   */\n      add\n        /* \"#utility.yul\":2899:2905   */\n      dup6\n        /* \"#utility.yul\":2855:2927   */\n      tag_70\n      jump\t// in\n    tag_111:\n        /* \"#utility.yul\":2937:3009   */\n      tag_112\n        /* \"#utility.yul\":3005:3007   */\n      0x40\n        /* \"#utility.yul\":2994:3003   */\n      dup4\n        /* \"#utility.yul\":2990:3008   */\n      add\n        /* \"#utility.yul\":2981:2987   */\n      dup5\n        /* \"#utility.yul\":2937:3009   */\n      tag_70\n      jump\t// in\n    tag_112:\n        /* \"#utility.yul\":2574:3016   */\n      swap5\n      swap4\n      pop\n      pop\n      pop\n      pop\n      jump\t// out\n        /* \"#utility.yul\":3022:3202   */\n    tag_78:\n        /* \"#utility.yul\":3070:3147   */\n      0x4e487b7100000000000000000000000000000000000000000000000000000000\n        /* \"#utility.yul\":3067:3068   */\n      0x00\n        /* \"#utility.yul\":3060:3148   */\n      mstore\n        /* \"#utility.yul\":3167:3171   */\n      0x11\n        /* \"#utility.yul\":3164:3165   */\n      0x04\n        /* \"#utility.yul\":3157:3172   */\n      mstore\n        /* \"#utility.yul\":3191:3195   */\n      0x24\n        /* \"#utility.yul\":3188:3189   */\n      0x00\n        /* \"#utility.yul\":3181:3196   */\n      revert\n        /* \"#utility.yul\":3208:3399   */\n    tag_59:\n        /* \"#utility.yul\":3248:3251   */\n      0x00\n        /* \"#utility.yul\":3267:3287   */\n      tag_115\n        /* \"#utility.yul\":3285:3286   */\n      dup3\n        /* \"#utility.yul\":3267:3287   */\n      tag_69\n      jump\t// in\n    tag_115:\n        /* \"#utility.yul\":3262:3287   */\n      swap2\n      pop\n        /* \"#utility.yul\":3301:3321   */\n      tag_116\n        /* \"#utility.yul\":3319:3320   */\n      dup4\n        /* \"#utility.yul\":3301:3321   */\n      tag_69\n      jump\t// in\n    tag_116:\n        /* \"#utility.yul\":3296:3321   */\n      swap3\n      pop\n        /* \"#utility.yul\":3344:3345   */\n      dup3\n        /* \"#utility.yul\":3341:3342   */\n      dup3\n        /* \"#utility.yul\":3337:3346   */\n      add\n        /* \"#utility.yul\":3330:3346   */\n      swap1\n      pop\n        /* \"#utility.yul\":3365:3368   */\n      dup1\n        /* \"#utility.yul\":3362:3363   */\n      dup3\n        /* \"#utility.yul\":3359:3369   */\n      gt\n        /* \"#utility.yul\":3356:3392   */\n      iszero\n      tag_117\n      jumpi\n        /* \"#utility.yul\":3372:3390   */\n      tag_118\n      tag_78\n      jump\t// in\n    tag_118:\n        /* \"#utility.yul\":3356:3392   */\n    tag_117:\n        /* \"#utility.yul\":3208:3399   */\n      swap3\n      swap2\n      pop\n      pop\n      jump\t// out\n\n    auxdata: 0xa2646970667358221220716e76f13f6f5bd810e4aeec24f3b91afd554acb6dabfff4bf6012c132eba2d664736f6c63430008120033\n}\n",
				"bytecode": {
					"linkReferences": {},
					"object": "608060405234801561001057600080fd5b50600080819055506104c4806100276000396000f3fe608060405234801561001057600080fd5b50600436106100a85760003560e01c8063c3780a3a11610071578063c3780a3a14610141578063c5d7802e1461015f578063cb2b08191461017d578063d40a8f12146101ad578063de0aeea2146101cd578063ef49ba37146101d7576100a8565b8062eba1dc146100ad5780630c55699c146100b7578063323940a5146100d55780638e86b125146100f3578063a56dfe4a14610123575b600080fd5b6100b56101f5565b005b6100bf61020e565b6040516100cc91906102df565b60405180910390f35b6100dd610214565b6040516100ea91906102df565b60405180910390f35b61010d6004803603810190610108919061032b565b610229565b60405161011a91906102df565b60405180910390f35b61012b61023f565b60405161013891906102df565b60405180910390f35b610149610245565b6040516101569190610386565b60405180910390f35b61016761024e565b60405161017491906102df565b60405180910390f35b610197600480360381019061019291906103a1565b610254565b6040516101a491906102df565b60405180910390f35b6101b5610276565b6040516101c4939291906103f4565b60405180910390f35b6101d561028c565b005b6101df6102b3565b6040516101ec91906102df565b60405180910390f35b6101fd610276565b909150905060026000829190505550565b60005481565b6000610224600160026003610254565b905090565b60008183610237919061045a565b905092915050565b60015481565b60006001905090565b60025481565b6000818385610263919061045a565b61026d919061045a565b90509392505050565b6000806000600160026003925092509250909192565b610294610276565b6000806001600060026000869190505585919050558491905055505050565b60006102c160016002610229565b905090565b6000819050919050565b6102d9816102c6565b82525050565b60006020820190506102f460008301846102d0565b92915050565b600080fd5b610308816102c6565b811461031357600080fd5b50565b600081359050610325816102ff565b92915050565b60008060408385031215610342576103416102fa565b5b600061035085828601610316565b925050602061036185828601610316565b9150509250929050565b60008115159050919050565b6103808161036b565b82525050565b600060208201905061039b6000830184610377565b92915050565b6000806000606084860312156103ba576103b96102fa565b5b60006103c886828701610316565b93505060206103d986828701610316565b92505060406103ea86828701610316565b9150509250925092565b600060608201905061040960008301866102d0565b61041660208301856102d0565b61042360408301846102d0565b949350505050565b7f4e487b7100000000000000000000000000000000000000000000000000000000600052601160045260246000fd5b6000610465826102c6565b9150610470836102c6565b92508282019050808211156104885761048761042b565b5b9291505056fea2646970667358221220716e76f13f6f5bd810e4aeec24f3b91afd554acb6dabfff4bf6012c132eba2d664736f6c63430008120033",
					"opcodes": "PUSH1 0x80 PUSH1 0x40 MSTORE CALLVALUE DUP1 ISZERO PUSH2 0x10 JUMPI PUSH1 0x0 DUP1 REVERT JUMPDEST POP PUSH1 0x0 DUP1 DUP2 SWAP1 SSTORE POP PUSH2 0x4C4 DUP1 PUSH2 0x27 PUSH1 0x0 CODECOPY PUSH1 0x0 RETURN INVALID PUSH1 0x80 PUSH1 0x40 MSTORE CALLVALUE DUP1 ISZERO PUSH2 0x10 JUMPI PUSH1 0x0 DUP1 REVERT JUMPDEST POP PUSH1 0x4 CALLDATASIZE LT PUSH2 0xA8 JUMPI PUSH1 0x0 CALLDATALOAD PUSH1 0xE0 SHR DUP1 PUSH4 0xC3780A3A GT PUSH2 0x71 JUMPI DUP1 PUSH4 0xC3780A3A EQ PUSH2 0x141 JUMPI DUP1 PUSH4 0xC5D7802E EQ PUSH2 0x15F JUMPI DUP1 PUSH4 0xCB2B0819 EQ PUSH2 0x17D JUMPI DUP1 PUSH4 0xD40A8F12 EQ PUSH2 0x1AD JUMPI DUP1 PUSH4 0xDE0AEEA2 EQ PUSH2 0x1CD JUMPI DUP1 PUSH4 0xEF49BA37 EQ PUSH2 0x1D7 JUMPI PUSH2 0xA8 JUMP JUMPDEST DUP1 PUSH3 0xEBA1DC EQ PUSH2 0xAD JUMPI DUP1 PUSH4 0xC55699C EQ PUSH2 0xB7 JUMPI DUP1 PUSH4 0x323940A5 EQ PUSH2 0xD5 JUMPI DUP1 PUSH4 0x8E86B125 EQ PUSH2 0xF3 JUMPI DUP1 PUSH4 0xA56DFE4A EQ PUSH2 0x123 JUMPI JUMPDEST PUSH1 0x0 DUP1 REVERT JUMPDEST PUSH2 0xB5 PUSH2 0x1F5 JUMP JUMPDEST STOP JUMPDEST PUSH2 0xBF PUSH2 0x20E JUMP JUMPDEST PUSH1 0x40 MLOAD PUSH2 0xCC SWAP2 SWAP1 PUSH2 0x2DF JUMP JUMPDEST PUSH1 0x40 MLOAD DUP1 SWAP2 SUB SWAP1 RETURN JUMPDEST PUSH2 0xDD PUSH2 0x214 JUMP JUMPDEST PUSH1 0x40 MLOAD PUSH2 0xEA SWAP2 SWAP1 PUSH2 0x2DF JUMP JUMPDEST PUSH1 0x40 MLOAD DUP1 SWAP2 SUB SWAP1 RETURN JUMPDEST PUSH2 0x10D PUSH1 0x4 DUP1 CALLDATASIZE SUB DUP2 ADD SWAP1 PUSH2 0x108 SWAP2 SWAP1 PUSH2 0x32B JUMP JUMPDEST PUSH2 0x229 JUMP JUMPDEST PUSH1 0x40 MLOAD PUSH2 0x11A SWAP2 SWAP1 PUSH2 0x2DF JUMP JUMPDEST PUSH1 0x40 MLOAD DUP1 SWAP2 SUB SWAP1 RETURN JUMPDEST PUSH2 0x12B PUSH2 0x23F JUMP JUMPDEST PUSH1 0x40 MLOAD PUSH2 0x138 SWAP2 SWAP1 PUSH2 0x2DF JUMP JUMPDEST PUSH1 0x40 MLOAD DUP1 SWAP2 SUB SWAP1 RETURN JUMPDEST PUSH2 0x149 PUSH2 0x245 JUMP JUMPDEST PUSH1 0x40 MLOAD PUSH2 0x156 SWAP2 SWAP1 PUSH2 0x386 JUMP JUMPDEST PUSH1 0x40 MLOAD DUP1 SWAP2 SUB SWAP1 RETURN JUMPDEST PUSH2 0x167 PUSH2 0x24E JUMP JUMPDEST PUSH1 0x40 MLOAD PUSH2 0x174 SWAP2 SWAP1 PUSH2 0x2DF JUMP JUMPDEST PUSH1 0x40 MLOAD DUP1 SWAP2 SUB SWAP1 RETURN JUMPDEST PUSH2 0x197 PUSH1 0x4 DUP1 CALLDATASIZE SUB DUP2 ADD SWAP1 PUSH2 0x192 SWAP2 SWAP1 PUSH2 0x3A1 JUMP JUMPDEST PUSH2 0x254 JUMP JUMPDEST PUSH1 0x40 MLOAD PUSH2 0x1A4 SWAP2 SWAP1 PUSH2 0x2DF JUMP JUMPDEST PUSH1 0x40 MLOAD DUP1 SWAP2 SUB SWAP1 RETURN JUMPDEST PUSH2 0x1B5 PUSH2 0x276 JUMP JUMPDEST PUSH1 0x40 MLOAD PUSH2 0x1C4 SWAP4 SWAP3 SWAP2 SWAP1 PUSH2 0x3F4 JUMP JUMPDEST PUSH1 0x40 MLOAD DUP1 SWAP2 SUB SWAP1 RETURN JUMPDEST PUSH2 0x1D5 PUSH2 0x28C JUMP JUMPDEST STOP JUMPDEST PUSH2 0x1DF PUSH2 0x2B3 JUMP JUMPDEST PUSH1 0x40 MLOAD PUSH2 0x1EC SWAP2 SWAP1 PUSH2 0x2DF JUMP JUMPDEST PUSH1 0x40 MLOAD DUP1 SWAP2 SUB SWAP1 RETURN JUMPDEST PUSH2 0x1FD PUSH2 0x276 JUMP JUMPDEST SWAP1 SWAP2 POP SWAP1 POP PUSH1 0x2 PUSH1 0x0 DUP3 SWAP2 SWAP1 POP SSTORE POP JUMP JUMPDEST PUSH1 0x0 SLOAD DUP2 JUMP JUMPDEST PUSH1 0x0 PUSH2 0x224 PUSH1 0x1 PUSH1 0x2 PUSH1 0x3 PUSH2 0x254 JUMP JUMPDEST SWAP1 POP SWAP1 JUMP JUMPDEST PUSH1 0x0 DUP2 DUP4 PUSH2 0x237 SWAP2 SWAP1 PUSH2 0x45A JUMP JUMPDEST SWAP1 POP SWAP3 SWAP2 POP POP JUMP JUMPDEST PUSH1 0x1 SLOAD DUP2 JUMP JUMPDEST PUSH1 0x0 PUSH1 0x1 SWAP1 POP SWAP1 JUMP JUMPDEST PUSH1 0x2 SLOAD DUP2 JUMP JUMPDEST PUSH1 0x0 DUP2 DUP4 DUP6 PUSH2 0x263 SWAP2 SWAP1 PUSH2 0x45A JUMP JUMPDEST PUSH2 0x26D SWAP2 SWAP1 PUSH2 0x45A JUMP JUMPDEST SWAP1 POP SWAP4 SWAP3 POP POP POP JUMP JUMPDEST PUSH1 0x0 DUP1 PUSH1 0x0 PUSH1 0x1 PUSH1 0x2 PUSH1 0x3 SWAP3 POP SWAP3 POP SWAP3 POP SWAP1 SWAP2 SWAP3 JUMP JUMPDEST PUSH2 0x294 PUSH2 0x276 JUMP JUMPDEST PUSH1 0x0 DUP1 PUSH1 0x1 PUSH1 0x0 PUSH1 0x2 PUSH1 0x0 DUP7 SWAP2 SWAP1 POP SSTORE DUP6 SWAP2 SWAP1 POP SSTORE DUP5 SWAP2 SWAP1 POP SSTORE POP POP POP JUMP JUMPDEST PUSH1 0x0 PUSH2 0x2C1 PUSH1 0x1 PUSH1 0x2 PUSH2 0x229 JUMP JUMPDEST SWAP1 POP SWAP1 JUMP JUMPDEST PUSH1 0x0 DUP2 SWAP1 POP SWAP2 SWAP1 POP JUMP JUMPDEST PUSH2 0x2D9 DUP2 PUSH2 0x2C6 JUMP JUMPDEST DUP3 MSTORE POP POP JUMP JUMPDEST PUSH1 0x0 PUSH1 0x20 DUP3 ADD SWAP1 POP PUSH2 0x2F4 PUSH1 0x0 DUP4 ADD DUP5 PUSH2 0x2D0 JUMP JUMPDEST SWAP3 SWAP2 POP POP JUMP JUMPDEST PUSH1 0x0 DUP1 REVERT JUMPDEST PUSH2 0x308 DUP2 PUSH2 0x2C6 JUMP JUMPDEST DUP2 EQ PUSH2 0x313 JUMPI PUSH1 0x0 DUP1 REVERT JUMPDEST POP JUMP JUMPDEST PUSH1 0x0 DUP2 CALLDATALOAD SWAP1 POP PUSH2 0x325 DUP2 PUSH2 0x2FF JUMP JUMPDEST SWAP3 SWAP2 POP POP JUMP JUMPDEST PUSH1 0x0 DUP1 PUSH1 0x40 DUP4 DUP6 SUB SLT ISZERO PUSH2 0x342 JUMPI PUSH2 0x341 PUSH2 0x2FA JUMP JUMPDEST JUMPDEST PUSH1 0x0 PUSH2 0x350 DUP6 DUP3 DUP7 ADD PUSH2 0x316 JUMP JUMPDEST SWAP3 POP POP PUSH1 0x20 PUSH2 0x361 DUP6 DUP3 DUP7 ADD PUSH2 0x316 JUMP JUMPDEST SWAP2 POP POP SWAP3 POP SWAP3 SWAP1 POP JUMP JUMPDEST PUSH1 0x0 DUP2 ISZERO ISZERO SWAP1 POP SWAP2 SWAP1 POP JUMP JUMPDEST PUSH2 0x380 DUP2 PUSH2 0x36B JUMP JUMPDEST DUP3 MSTORE POP POP JUMP JUMPDEST PUSH1 0x0 PUSH1 0x20 DUP3 ADD SWAP1 POP PUSH2 0x39B PUSH1 0x0 DUP4 ADD DUP5 PUSH2 0x377 JUMP JUMPDEST SWAP3 SWAP2 POP POP JUMP JUMPDEST PUSH1 0x0 DUP1 PUSH1 0x0 PUSH1 0x60 DUP5 DUP7 SUB SLT ISZERO PUSH2 0x3BA JUMPI PUSH2 0x3B9 PUSH2 0x2FA JUMP JUMPDEST JUMPDEST PUSH1 0x0 PUSH2 0x3C8 DUP7 DUP3 DUP8 ADD PUSH2 0x316 JUMP JUMPDEST SWAP4 POP POP PUSH1 0x20 PUSH2 0x3D9 DUP7 DUP3 DUP8 ADD PUSH2 0x316 JUMP JUMPDEST SWAP3 POP POP PUSH1 0x40 PUSH2 0x3EA DUP7 DUP3 DUP8 ADD PUSH2 0x316 JUMP JUMPDEST SWAP2 POP POP SWAP3 POP SWAP3 POP SWAP3 JUMP JUMPDEST PUSH1 0x0 PUSH1 0x60 DUP3 ADD SWAP1 POP PUSH2 0x409 PUSH1 0x0 DUP4 ADD DUP7 PUSH2 0x2D0 JUMP JUMPDEST PUSH2 0x416 PUSH1 0x20 DUP4 ADD DUP6 PUSH2 0x2D0 JUMP JUMPDEST PUSH2 0x423 PUSH1 0x40 DUP4 ADD DUP5 PUSH2 0x2D0 JUMP JUMPDEST SWAP5 SWAP4 POP POP POP POP JUMP JUMPDEST PUSH32 0x4E487B7100000000000000000000000000000000000000000000000000000000 PUSH1 0x0 MSTORE PUSH1 0x11 PUSH1 0x4 MSTORE PUSH1 0x24 PUSH1 0x0 REVERT JUMPDEST PUSH1 0x0 PUSH2 0x465 DUP3 PUSH2 0x2C6 JUMP JUMPDEST SWAP2 POP PUSH2 0x470 DUP4 PUSH2 0x2C6 JUMP JUMPDEST SWAP3 POP DUP3 DUP3 ADD SWAP1 POP DUP1 DUP3 GT ISZERO PUSH2 0x488 JUMPI PUSH2 0x487 PUSH2 0x42B JUMP JUMPDEST JUMPDEST SWAP3 SWAP2 POP POP JUMP INVALID LOG2 PUSH5 0x6970667358 0x22 SLT KECCAK256 PUSH18 0x6E76F13F6F5BD810E4AEEC24F3B91AFD554A 0xCB PUSH14 0xABFFF4BF6012C132EBA2D664736F PUSH13 0x63430008120033000000000000 "
				},
				"gasEstimates": {
					"creation": {
						"codeDepositCost": "244000",
						"executionCost": "5301",
						"totalCost": "249301"
					},
					"external": {
						"getLastReturnValue()": "22343",
						"getSum(uint256,uint256)": "infinite",
						"getSum(uint256,uint256,uint256)": "infinite",
						"getSumWithThreeArguments()": "infinite",
						"getSumWithTwoArguments()": "infinite",
						"multipleReturns()": "infinite",
						"myFunction()": "343",
						"proccessMultipleReturns()": "66655",
						"x()": "2452",
						"y()": "2518",
						"z()": "2451"
					}
				},
				"methodIdentifiers": {
					"getLastReturnValue()": "00eba1dc",
					"getSum(uint256,uint256)": "8e86b125",
					"getSum(uint256,uint256,uint256)": "cb2b0819",
					"getSumWithThreeArguments()": "323940a5",
					"getSumWithTwoArguments()": "ef49ba37",
					"multipleReturns()": "d40a8f12",
					"myFunction()": "c3780a3a",
					"proccessMultipleReturns()": "de0aeea2",
					"x()": "0c55699c",
					"y()": "a56dfe4a",
					"z()": "c5d7802e"
				}
			},
			"storageLayout": {
				"storage": [
					{
						"astId": 3,
						"contract": "contracts/Chapter5.sol:Chapter5",
						"label": "x",
						"offset": 0,
						"slot": "0",
						"type": "t_uint256"
					},
					{
						"astId": 5,
						"contract": "contracts/Chapter5.sol:Chapter5",
						"label": "y",
						"offset": 0,
						"slot": "1",
						"type": "t_uint256"
					},
					{
						"astId": 7,
						"contract": "contracts/Chapter5.sol:Chapter5",
						"label": "z",
						"offset": 0,
						"slot": "2",
						"type": "t_uint256"
					}
				],
				"types": {
					"t_uint256": {
						"encoding": "inplace",
						"label": "uint256",
						"numberOfBytes": "32"
					}
				}
			},
			"userdoc": {
				"kind": "user",
				"methods": {
					"constructor": {
						"notice": "- 一個合約只能有一個 Constructor - 可以為 public 或 internal - 如為 internal 則其為 Abstract Contract - 可以帶入參數"
					}
				},
				"version": 1
			}
		}
	}
}